:020000040800F2
:10000000000001201D7900084579000845790008A5
:10001000457900084579000845790008000000008E
:10002000000000000000000000000000457900080A
:10003000457900080000000045790008457900086E
:100040004579000845790008457900084579000898
:100050004579000845790008457900084579000888
:100060004579000845790008457900084579000878
:100070004579000845790008457900084579000868
:100080004579000845790008457900084579000858
:100090004579000845790008457900084579000848
:1000A0004579000845790008457900084579000838
:1000B00075740008457900084579000845790008FD
:1000C0004579000845790008457900084579000818
:1000D0004579000875060020457900084579000833
:1000E00045790008457900084579000800000000BE
:1000F0000000000000000000000000000000000000
:100100000000000000000000457900084579000863
:1001100045790008457900084579000845790008C7
:1001200045790008457900084579000845790008B7
:100130004579000800000000000000004579000833
:100140004579000845790008457900084579000897
:10015000000000000000000000000000000000009F
:10016000000000000000000000000000000000008F
:10017000000000000000000000000000000000007F
:10018000000000000000000000000000000000006F
:10019000000000000000000000000000000000005F
:1001A000000000000000000000000000000000004F
:1001B000000000000000000000000000000000003F
:1001C000000000000000000000000000000000002F
:1001D000000000000000000000000000000000001F
:1001E0005FF8E0F108B50548054B1B1A062B00D84F
:1001F00008BD044B002BFBD09847F9E768090020A5
:100200006B0900200000000008B50748074B1B1AC7
:100210009B1003EBD373591000D108BD044A002A88
:10022000FBD09047F9E700BF68090020680900206B
:100230000000000010B5064C237843B9FFF7D2FF49
:10024000044B13B10448AFF300800123237010BDA9
:100250006809002000000000CCC8000808B5074B62
:100260001BB107480749AFF300800748036813B183
:10027000064B03B19847BDE80840C5E70000000001
:10028000CCC800086C0900206409002000000000B0
:10029000134B002B08BF114B9D46A3F5803A00215C
:1002A0008B460F461148124A121A08F00FF90D4BEF
:1002B000002B00D098470C4B002B00D09847002013
:1002C000002104000D000B4808F099F808F0C8F868
:1002D0002000290000F010F808F098F8000008004D
:1002E000000001200000000000000000680900205C
:1002F000ECAE002035840008BD4E2DE98048B3697E
:1003000040F2712243F48043B361BA4BBBB09A60B0
:1003100042F22C02DA60B84B20225A60B74B99683F
:100320005A68914200F05E8619689A680139501C3B
:10033000B34D0A40986013441B7B95F80021DBB253
:100340002C4652B9E02B03BF2B70012385F80031F6
:1003500085F8002185F80121E0E7012A06D16B70BC
:1003600085F80131022385F80031D7E7501C95F854
:100370000111C0B28142AB5485F80001CED1AB78F7
:10038000182B00F0978425D8042B00F058830DD843
:10039000012B4FF0000147D0C0F07081022B00F01C
:1003A0008B81032B00F0CF8200F001BE102B00F0F8
:1003B000138407D8082B00F02F830A2B00F09C83AE
:1003C00000F0F5BD112B00F01F84132B00F03184D9
:1003D00000F0EDBD302B00F05F8513D81D2B00F031
:1003E000C38407D81A2B00F09C841C2B00F0FA84DD
:1003F00000F0DDBD1E2B00F00B85202B00F02885C2
:1004000000F0D5BD502B00F0B08507D8312B00F09F
:100410005D85402B00F0908500F0C9BD903B012B1D
:1004200040F2C88500F0C3BD8DF85230754BE02016
:10043000754A1B788DF850000D20C2F828138DF8EE
:1004400051008DF8531013B101218DF853106F49ED
:100450000C782CB19DF8531041F002018DF8531027
:10046000DFF8E09199F8001029B19DF8531041F0A0
:1004700004018DF85310DFF8D08198F8001029B1ED
:100480009DF8531041F008018DF85310604F3978F2
:1004900029B19DF8531041F010018DF853105D4DB6
:1004A000297829B19DF8531041F020018DF853109F
:1004B0005949B2F822C3097800208DF854105749E1
:1004C000B2F824E30978A2F822038DF85510A2F8B7
:1004D0002403BCF1000F03D041F002018DF8551048
:1004E000517D0020507529B19DF8551041F004014F
:1004F0008DF8551092F82910002082F8290029B1B2
:100500009DF8551041F008018DF8551092F82C23F4
:100510002AB19DF8552042F010028DF85520BEF109
:10052000000F05D09DF8552042F020028DF855208F
:100530003B499DF85520097800290CBF0021402136
:100540000A438DF8552043B1364806F04EFB0D2383
:10055000B0FBF3F08DF8560001E08DF85630E4B1B1
:10056000314B1B786BB1314806F03FFB2324B0FBC5
:10057000F4F08DF857002E4806F037FBB0FBF4F08E
:1005800008E00A232B488DF8573006F02EFB232372
:10059000B0FBF3F08DF8580003E08DF857408DF86C
:1005A000584099F8003043B1234806F01EFB7823E9
:1005B000B0FBF3F08DF8590001E08DF8593098F850
:1005C000003043B11D4806F010FBD823B0FBF3F018
:1005D0008DF85A0001E08DF85A303B78B3B31848D3
:1005E00006F003FB3023B0FBF3F08DF85B002FE047
:1005F000001002400038014000E100E0E807002060
:1006000024880020DC000020E42100200F010020CD
:10061000100100200000002084090020860900202D
:1006200085090020A02A002001000020D4510020CC
:10063000E451002054A9002024A40020C05200202E
:1006400014250020DB0000200E0100208DF85B3017
:100650002B7843B1C64806F0C8FA4423B0FBF3F048
:100660008DF85C0001E08DF85C30C24B14A80D21C0
:100670009847C14B00221A6000F09CBCE0238DF823
:10068000503001238DF853308DF852100023BB48B1
:10069000DAB2845C191DC9B2013324B13AA801440D
:1006A00001F8984CF3E7B34B14A88DF85110984714
:1006B000B14B1C6000F07EBC023A112A40F2AA81C4
:1006C000EC786A79C4F30013322A85F8023129796B
:1006D00000F2A081AA4B01F0010A9B79C1F3400806
:1006E000062BC1F3800CC1F3C00EC1F30010C1F39F
:1006F00040110BD9A3F16207012F1CD9A3F15B07AD
:10070000052F18D9652B40F0858126E0012B04D1F7
:10071000BAF1000F00F07E811FE0022B04D1B8F186
:10072000000F00F0778118E0032B04D1BCF1000F1B
:1007300000F0708111E0042B04D1BEF1000F00F035
:1007400069810AE0052B03D1002800F0638104E0F1
:10075000062B02D1002900F05D81EE796D7ADFF879
:1007600020920F2D019600F2558199F808B099F862
:100770000C60CDF808B099F80DB00396CDF810B024
:1007800099F80FB099F80E60CDF818B099F811B03B
:100790000596CDF81CB099F813B099F81060CDF813
:1007A00024B0DFF82CB200968BF80030754B99F826
:1007B000126083F800A0744B99F80A7083F80080E7
:1007C000724BDFF8108283F800C0714B089683F8F3
:1007D00000E0704BDFF800E218706F4B6F48197043
:1007E0006F4BE143C1F3C011197002EB4203590092
:1007F00001F59671A0F8A012980000F51670AEF8F9
:100800007405A8F8F0040C204243664802F51672FD
:10081000C0F8F024644A5B08A2F88815544A4833AB
:10082000284699F81490A2F83C3202F02DFB5F4B59
:10083000099983F84357A3F844775D4B5D4A1F80BD
:100840005D4B019E83F8775B5C4B157083F84C55CC
:10085000C4F3C00388F8F2344FF496634B43C8F8EE
:10086000F434574BC4F38002029FDDF80CB083F8D8
:100870000423F201059EF9014FEACB10DDF818B010
:10088000F701A3F80813089E04994FEACB1EDDF880
:100890001CB0CD01F101009E0BF5F06CA3F816C35E
:1008A00006F5F06CE607A3F8062348BF52424FEA6C
:1008B000C91948BFA3F80623A207A3F80A03A3F89F
:1008C0000C53A3F80E73A3F810E3A3F81213A3F8C4
:1008D0001493A3F818C313D540426D427F42CEF162
:1008E000000E4942C9F10009A3F80A03A3F80C530A
:1008F000A3F80E73A3F810E3A3F81213A3F814934C
:100900001978002940F09B802E4F4FF4C042FB69BC
:100910002D4843F00103FB614FF080439A607C2235
:1009200099624FF08054DA620122DA60046018683C
:1009300010431860254B196043F8042C204B1A70A3
:1009400002F002FB7BE0032864D0214BE8781B789F
:10095000834274D0062841D9A0F16203012B49D902
:10096000A0F15B03052B45D9652853D14FE000BFAB
:10097000884F0020ED01002018002742048C000859
:1009800024880020DC0000200F010020DB00002074
:100990000E0100201001002000000020A02A0020ED
:1009A0000100002054A90020142500203C580020FC
:1009B000D46D0020D36D0020688D0020941C002091
:1009C000E42100200010024000E100E09481214277
:1009D0008409002024A40020C0520020012801D155
:1009E0009C4B12E0022801D19B4B0EE0032801D161
:1009F0009A4B0AE0042801D1994B06E0052801D161
:100A0000984B02E0062802D1974B1B7813B103F0F4
:100A10005DFC14E00420CBE2944B1B78632B16D1D1
:100A2000042863D1ED78924C6F1E7D427D4123787E
:100A300045B11BB98F48638002F05EFC257002F05F
:100A4000ABFCB7E2002BF9D002F020FCF6E7622BFA
:100A500005D0A3F15E02012A01D95C2B15D104282F
:100A60000FD1EC78844A661E7442744114706CB1E4
:100A7000547844B903F0FD015C2907D1012151707C
:100A800004E0042402E0002400E002245D2B0AD1EB
:100A900095F80131042B29D1784BDA78784B541E24
:100AA000624262410BE05B2B12D195F80131042BBD
:100AB0001CD1724BDA78734B501E424242411A707D
:100AC000002ABCD05A78002AB9D101225A70B6E760
:100AD000652B0DD195F80131042B07D1674BDA78DE
:100AE000694B511E4A424A411A70A8E7042401E0AA
:100AF000002CA4D06548A9E15C4B1D78002D68D17D
:100B0000634C023A5FFA82F8204629464FF47A7223
:100B100007F0DCFC0820A4F8E803A4F8EA5384F802
:100B2000EC532746EBB2434547D200235FFA83FCE0
:100B30000C2101FB0CF1574A02EB010E515CC1B3D1
:100B4000DFF85C91013315F809908945EED19EF8E4
:100B500008A003464FF00041C0EB030E5FFA8EFE83
:100B6000D64527D24FF00C0E0EFB0C2EDEF804E01B
:100B7000DFF83CB101EA0E0E8E4503F007094FEA9B
:100B8000E30E1BF809B017F80E900CBF4BEA0909E9
:100B900029EA0B0907F80E9040F2E23E734504D9AA
:100BA0000023A4F8E833042414E0013349089BB27D
:100BB000D2E7034601351846B4E70828F0D00530DF
:100BC000334B81B2A3F8E813334809B202F028FB93
:100BD000F0E10524314839E11E4B1B788BB1234BE2
:100BE0001D78012D0DD82C2818BF04240AD12C48BB
:100BF00002F082FB044628B9002D40F0DB81012081
:100C0000ADE102242748FEE0124B1B7873B1174B6D
:100C10001D78012D0AD80F2818BF042407D12048B9
:100C200002F04AFB04460028E6D000E002241E48F9
:100C3000E9E0084B1B784BB10C4B1D78012D05D812
:100C400002F024FB04460028D6D000E00224174816
:100C5000D9E000BFDC0000200F010020DB000020F5
:100C60000E01002010010020000000208409002057
:100C700050A90020CB8A000824A900202488002045
:100C800020A90020385800203B580020CF8C0008B5
:100C90003889002090880008F18C00080D8D00082C
:100CA00027880020208D00083F8D00085C8D0008FB
:100CB000A58C0008914B1B7883B3914B1F7817F0DC
:100CC000FD0F2BD18F4B1B7843B3252918BF04246C
:100CD00025D18D4805F089FF202841F251818A4BAA
:100CE00093F8E8202AB100221A8183F8E8205A817B
:100CF0001A730025DFF8108263194046197901350F
:100D000005F032FF212DF5D1804B1B78002B41F0EF
:100D10003281012388F84C3001F02DB902247C483F
:100D200094E0764B1B78E3B1754D2B7813F0FD0FF3
:100D300017D1744B1B782BB1911EC9B2754805F0C1
:100D4000AFF906E0252818BF04240BD1714801F043
:100D5000E1FD044630B92B78002B40F02B810220B6
:100D6000FDE002246A484EE0644B1B78002B01F042
:100D70003680042841F03580EB78012B17D1604A8A
:100D80001278022A41F02D80604A1178002940F043
:100D900011815D4A82F84C30C2F8DC10C2F8E010D4
:100DA000C2F8E41082F8E81082F8E91002E1002BA2
:100DB00041F01780524A1278022A41F01480534AB7
:100DC0001278002A00F0F6804F4A82F84C30C2F8C0
:100DD000DC30C2F8E030C2F8E43082F8E83082F863
:100DE000E930E7E0454B1B785BB10C2818BF0424C1
:100DF00008D1484801F02AFF0446002800F0DA80B4
:100E000000E00224444821B202F00AFA2046CFE072
:100E10003A4B1B78A3B1042814D1EB780022012BA4
:100E200008D0022B10D1384BC3F8E420012283F8FC
:100E3000E920BFE03449C1F8E02081F8E830B9E0AA
:100E4000022402E0042400E0044634482146DBE7A3
:100E5000334B1B78DBB12A4B1F780FB1032F16D110
:100E60007C2818BF042415D12E4805F0BEFE772833
:100E70000FD9002563192B481979013505F074FE47
:100E8000782DF7D1002F40F09580032067E00224F1
:100E900000E005242448D9E7244B1B788BB1184B7C
:100EA0001D7815F0FB0F0CD1023AD1B212290AD9E4
:100EB000184801F0ABFE044630B9002D7AD1042069
:100EC0004DE0022400E0042419489CE7174B1B78EE
:100ED0007BB10B4B1D7815F0FB0F0AD1023AD1B252
:100EE000122908D90B4801F091FE04460028E4D0ED
:100EF00002E0022400E004240E4884E70F010020F1
:100F00008409002001000020D4510020860900201F
:100F1000788D000827880020928D0008B08D000889
:100F2000DB00002024A40020CB8D00080E0100204F
:100F3000EF8D00080B8E0008224B1B7893B1224BDB
:100F40001D780DB1052D0DD1342818BF04240AD108
:100F50001E4801F0E1FF044628B95DBB052003F0FF
:100F6000B5F927E002241A484DE71A4B1B78CBB19C
:100F7000154B1F780FB1062F14D1472818BF042432
:100F800013D1154805F031FE43280DD9002563190A
:100F90001148D978013505F0E7FD442DF7D14FB957
:100FA0000620DCE7022400E005240C484EE701207F
:100FB00002F010FA0A4B002283F8002183F8012185
:100FC000FFF7ACB910010020840900202788002019
:100FD000248E000800000020884F00203F8E00086B
:100FE000248800209A4C4BF67F33D4F828232746D8
:100FF0009A4205D9974B002283F8002183F80121FA
:10100000D4F81C1322780131914BC4F81C13002A28
:1010100000F02483D3F828234BF67F339A421ED95D
:101020008D490B785A1E052A16D8022B10D18B4BEE
:101030001B786BB18A4B002283F84C20C3F8DC206C
:10104000C3F8E020C3F8E42083F8E82083F8E9201F
:1010500000230B7001F078FF0023C4F82833D4F884
:101060001C2345F6BF518A42794B0AD90022C3F8A6
:101070001C2393F8202382F0010283F82023794B6C
:101080001A60794805F05FFC20B9744B1A78002A81
:1010900040F0AD86754805F056FC012840F2EB8221
:1010A000002514AC0AAA2A447048214605F0FEFB2C
:1010B000BA8EFB8E92B29BB29A424FEA450303D19D
:1010C000634A92F83820A2B1F98E3A6B89B232F8AD
:1010D00011100CAAD152002287F83820F98EB88D51
:1010E000013189B2F986F98E89B2884201D858490E
:1010F000CA8697F821235AB1BDF850201AB140F69C
:10110000FF718A4204D1B7F822230132A7F82223C3
:10111000BDF85010B7F8162301358A1AB7F906132F
:1011200012B24A430DF12C09022D4FEAE232DFF8E8
:10113000208102F30F0229F80320B2D198F82CA3E2
:10114000BAF1000F40F09782484610A92A4606F0EF
:10115000FBFB12AA2B4608F13C0010A907F01CF873
:10116000129A139B134493FBF5F3BDF82C201B1428
:1011700003F30F039BB2D21AADF83420BDF82E2032
:10118000D31AADF83630344B1B78002B4CD1384B8A
:101190001B7853B108F168000DA922462B4606F0D2
:1011A000F1FD20460CA902F0B1FC324B1B784BB18B
:1011B00031480DA92246022306F0E4FD20460CA981
:1011C00003F0D0FB2D4B1B787BB12D480DA90EAA47
:1011D000022306F0D7FD2B480EA92246022306F073
:1011E000D1FD20460CA903F01DFD274D274F2B787C
:1011F0001BB93B78002B00F03E820223244849466D
:10120000224606F0BFFD3B781BB120460CA904F036
:1012100077FF2B78002B00F02E821E4B20461B7888
:10122000002B00F0B780B1E0012B35D1104B1B78BB
:10123000002B00F0208208F168000DA922462B4601
:1012400006F0A0FD20460CA902F060FC13E200BFEE
:10125000E421002024880020840900208609002041
:10126000D451002090812142FC210020E82100205F
:10127000DC0000200E010020582200201001002078
:1012800064220020702200200F010020DB000020DB
:101290004022002001000020022B7FD1744B1B78DC
:1012A000002B00F0E8812B4608F15C0049462246FD
:1012B00006F068FD6F4B1B78002B6AD06E4B1B78D5
:1012C000002B62D00DF12707554617F8012F6B4B05
:1012D000042ADFF8C4810DD0082A16D10022A3F811
:1012E0002227A3F82A27A3F82027C3F82C2783F85E
:1012F00041270AE0624900220A8021F8022C03F506
:10130000AC51A8F800200A604A75B3F82AE70DF13D
:10131000300A0EF1010E1FFA8EFEA3F82AE7B3F889
:101320004437615B734535F80A20544807D990F873
:10133000469719F1000918BF4FF0010903E009B2FF
:1013400003F040FE8146B8F800004E4B0130B3F880
:1013500000E080B28645615B3AF80520A8F80000FD
:1013600004D99878003018BF012004E0A3F244703B
:1013700009B203F027FE0235042DA6D1B9F1000F02
:1013800018BF012001F036FC75E1204602F0CCF8D0
:1013900071E120460CA906F0D9F86CE1032B10D1BD
:1013A000394B1B78002B00F0668108F15C000DA919
:1013B00022462B4606F0E6FC20460CA904F0A0FECF
:1013C00059E1042B10D1314B1B78002B00F05381D5
:1013D00008F174000DA922462B4606F0D3FC2046E6
:1013E0000CA903F0BFFA46E1052B17D1284B1B7857
:1013F000002B00F0408108F180000DA90EAA2B46B9
:1014000006F0C0FC08F18C000EA922462B4606F01F
:10141000B9FC20460CA903F005FC2CE1632B40F03D
:10142000C8800EAF08F1680049463A462B4606F0E0
:10143000A9FCD046174D37F808002B79C10B8B4219
:10144000A94609D02B68B3F5004F2ABF6FF4CC72C0
:1014500003F299139B182B60D5F800E00D4B0EF5A5
:101460004C523332B2F5803F297117D21A6099E09D
:101470000F01002001000020860900203C580020B8
:10148000B26D0020D46D0020DB0000200E01002092
:1014900010010020288D0020BA6D0020AEF54C42CE
:1014A000CD3A1A609A68520009B142F001029A607E
:1014B00095F83C20531CDBB209EB4202172B85F850
:1014C0003C30908103D9764B002283F83C20A868F9
:1014D00020F07F437348584005F0AAFB02282DD81E
:1014E00000214FF47A534CF2801209EB0100B0F95D
:1014F0000C0012B21BB202318242B8BF02468342D4
:10150000A8BF0346302992B29BB2EED110B219B2F5
:10151000C1EB000EBEF1050F10DD00124FF0000E02
:101520008DF85100091220468DF850E08DF85220B8
:101530008DF853108DF8543002F08AFAAB685A488F
:1015400023F07F43584005F073FB02282AD800217E
:101550004FF47A534CF2801209EB0100B0F90C0001
:1015600012B21BB202318242B8BF02468342A8BF08
:101570000346302992B29BB2EED110B219B2451A8D
:10158000052D0FDD001280258DF85100091220462F
:101590008DF850508DF852208DF853108DF854303E
:1015A00002F056FA08F10208B8F1040F7FF442AFD6
:1015B00061E0602B5FD100270CABFA5A3B4B3B4DEF
:1015C000588959689042188938BF5A81904288BF1B
:1015D0003648114488BF02811A68596001321A6086
:1015E00045F6BF539A4235D9B1FBF2F368892A898F
:1015F000E0214FEA122CC3F3072E4FEA10288DF892
:1016000039008DF83D308DF850108DF854000921C7
:101610008DF858302046264B8DF83B208DF856200B
:101620008DF838808DF83AC08DF83CE08DF8521076
:101630008DF853808DF855C08DF857E08DF8511016
:1016400098471C4A002313604FF6FF722B606B60B3
:101650002A816B810237042FAED10CE016488142FB
:1016600009D9C3F81C2393F8202382F0010283F8E0
:101670002023124B1A60124B124D1B7823B12B788A
:10168000012B01D104F0BCFA0F4B1B7813B32B785C
:10169000022B1FD10D4B1B78D3B104F06BF919E06D
:1016A000288D002068B4AA00974B5500C85100202F
:1016B000ED010020180027427FA9030090812142FC
:1016C000DC000020840900200F0100200100002020
:1016D00004F05EFCBC4B1B78002B67D02B78032BEF
:1016E00064D1BA4F384605F060FA3C4630B9B7F8D5
:1016F000EC341BB9D7F8F834002B57D0B7F8EC34DA
:10170000DFF8C8822BB9404605F04FFA002840F0B8
:10171000B483B7F8EC34002B00F0878301F012F9A2
:101720000746142F42D9B4F8EE345A1CA4F8EE241C
:10173000234494F8F22493F83C00002300F0C00EF8
:10174000BEF1800F12A900F06183BEF1C00F40F01E
:101750005583002A40F2657E18BF4FF46D7E21F854
:1017600003E002338000082BC0B2E7D1984814AAE6
:10177000042306F01DF90023032014A9142200F00D
:101780003DFC944B143F1B78BFB21BB1D4F8F4342A
:10179000C4F8F834B4F8EE14B4F8EC248B4B91424E
:1017A000BFD30022A3F8EE24A3F8EC248A4B1B78C5
:1017B00023B12B78042B01D104F096F9874B1B78C9
:1017C00023B12B78052B01D102F002FF844B1B784B
:1017D000B3B12B78834C062B06D0B4F838321BB942
:1017E000204605F0E2F958B17E4F384605F0DDF9A4
:1017F000002840F07283B7F83832002B40F06D8338
:101800002B78632B40F02C81774C04F0F9F9237886
:10181000002B00F02581754805F0E7F90D23B0FB9A
:10182000F3F0C3B2042B40F21B810023704A14A8CA
:101830009A5C1A5401330C2BF8D162881523B2FB41
:10184000F3F103FB11239BB2002B00F0FE80012A71
:1018500004D130238DF85930022305E0022A07D144
:1018600034238DF8593019238DF85A30DE23EAE0FD
:10187000032A04D131238DF859306F23F4E7042A69
:1018800007D11F238DF859302B238DF85A30F623BA
:10189000D9E0052A04D132238DF8593022230FE0F4
:1018A000062A07D124238DF859302A238DF85A307F
:1018B000E023C8E0072A07D133238DF859303B23B2
:1018C0008DF85A30B323BEE0082A77D0012B07D118
:1018D00025238DF859304F238DF85A309323B2E0E9
:1018E000022B07D170238DF859300B238DF85A3015
:1018F000DA23A8E0032B01D1252310E0042B04D127
:1019000033238DF859301B23DAE7052B04D1252327
:101910008DF859306F2341E0062B04D139238DF81F
:1019200059301D236FE0072B07D125238DF859303F
:101930000C238DF85A30C72385E0082B04D150239F
:101940008DF859306F2308E0092A00F01C83092B19
:1019500007D125238DF859301E238DF85A30D02316
:1019600071E00A2A00F012830A2B07D121238DF897
:1019700059300C238DF85A30C22364E00B2A00F052
:1019800008830B2B01D1252319E00C2A00F00483D6
:101990000C2B07D13D238DF8593002238DF85A3096
:1019A000D72350E00D2A00F0FA820D2B01D1252318
:1019B00057E70E2A00F0F6820E2B1BD150238DF82C
:1019C00059306F237CE700BFDB00002024A40020F7
:1019D00034A40020010000200E010020100100208E
:1019E00000000020884F002050A90020A02A0020DD
:1019F000948A00080F2A00F0EC820F2B07D12523D0
:101A00008DF859301B238DF85A30D6231BE0102A4D
:101A10000BD0102B07D123238DF859301B238DF8C1
:101A20005A303A230FE0112A06D0112B04D121237A
:101A30008DF85930252303E016238DF859302923DA
:101A40008DF85A30F5238DF85B3001F035FC628853
:101A500040F276230132B2FBF3F103FB11236380E2
:101A60002B78622B07D05F2B05D05E2B10D05C2B20
:101A700040F0ED809AE0B14B1A78B14B2AB10522C3
:101A800083F84C2003F076FFE1E083F84C20DEE0A1
:101A900003F070FFAB4805F0A8F82323B0FBF3F088
:101AA00010F0FF0F00F0D380A44C6378013B032BB0
:101AB00000F2C680DFE803F0021C545E012001F052
:101AC000E3F9A14801F0C2F8A048222104F0E8FAA5
:101AD0009B4B012283F84C200022C3F8DC20C3F882
:101AE000E020C3F8E42083F8E82083F8E92073E0DD
:101AF00094F82A209649C2EBC2028B185878895C68
:101B0000E0759878A27D2076D8788C4F6076187929
:101B100001F00F01A07658799B79E076207F22F0C2
:101B20000F0200F00F0023F00F0303430A4307F1F5
:101B3000080022212377A27504F0B2FA94F82A3023
:101B4000052B09D1002387F82A303B78002B7ED162
:101B50007A4B03225A707AE0013387F82A3076E014
:101B60007C48222104F09CFA754BD3F8DC3063608A
:101B7000042366E0724A6068D2F8DC301E3083428B
:101B80006E4964D90023138382F84C305383C2F822
:101B9000DC30C2F8E030C2F8E43082F8E83082F895
:101BA000E930137781F82A304B7050E004F0F0F9F7
:101BB000694805F01AF82323B0FBF3F010F0FF0F8B
:101BC00045D05E4C6378022B08D0032B35D0012B17
:101BD00039D1624800F09EFE022332E094F82A20B8
:101BE0005F49C2EBC2028B185878895CE07598781F
:101BF000A27D2076D87801F00F016076187922F066
:101C00000F02A07658799B79E076207F23F00F03AE
:101C100000F00F0003430A4304F108002377A27584
:101C200000F078FE94F82A30052B04D1002384F8C4
:101C30002A3023788AE7013307E04A4800F06AFE39
:101C40000023637003E00023637084F82A302B784C
:101C50005D2B21D103F048FF434804F0C6FFD82391
:101C6000B0FBF3F010F0FF0F16D0404C6378012B5F
:101C700002D0022B06D00DE03D48D92100F0C6FF6E
:101C8000022308E03B48D92100F0C0FF237813B1BC
:101C9000012300E0002363702B785B2B21D102F03D
:101CA00097FC354804F0A1FF3023B0FBF3F010F0AF
:101CB000FF0F16D0314C6378012B0FD1304BA27837
:101CC000312000FB023001F027F9A378013303F043
:101CD0000303A370237823B9637002E000236370C9
:101CE000A3702B78652B09D1264B1B7833B100F0FC
:101CF00029FEA52802D9AA2001F0D0FE2B78002BBE
:101D00007EF40CAB204CB4F8E833002B3EF406AB69
:101D100000F018FE0546182D7EF600ABB4F8EA3345
:101D20001A4903F00702DB108A5CE35C6120134070
:101D300030D01749182200232EE000BF24A900202C
:101D4000D4510020E4510020A08A0008598C0008DA
:101D5000F48A0008A98A000854A90020AD8C000864
:101D60007B8C00081E8B0008C052002020A9002098
:101D70001101002002000020142500203858002006
:101D8000408B00083B58002038890020A58C0008B3
:101D9000DE0000209149182200F030F994F8EC237D
:101DA000183D0132D2B2312AADB28D4B84F8EC230A
:101DB00007D9B3F8EA230132A3F8EA23002283F813
:101DC000EC23B4F8EA13B4F8E823854B9142A2D38C
:101DD0000022A3F8EA23A3F8E823FEF79FBA02241F
:101DE00002E0042400E004467E48FFF72FB8187094
:101DF00094F804237C4B1A60FFF74CB9BEF1000F36
:101E00000BD14FF6C46E4FF6895C0AE0002A40F20F
:101E1000772E18BF4FF49E7EA1E44FF64C4E4FF63E
:101E20009B0C002A08BFE64699E4704BD3F8F834BF
:101E3000002B3FF4BBAC00F085FD0746142F7FF666
:101E4000B5AC4FF000086A4812A914AA0423CDF8D3
:101E50004880CDF84C8005F0ABFD4346032014A923
:101E6000142200F0CBF8D4F8F834143F013BBFB291
:101E7000C4F8F834002BE1D198E45E4B1B78ABB189
:101E80004FF07808594804F05BFEB4F8EC3408F1E0
:101E9000FF385A1C18F0FF082344A4F8EC2483F8F8
:101EA0003C00EFD10023A7F8EE3432E4B8F8F01488
:101EB000B8F8EC2498B200EB020E88421FFA8EFEAE
:101EC00007D204EB0E004FF0770E80F83CE00133B0
:101ED000F0E70A44A7F8EC24E4E7B4F838322BBB67
:101EE000444B1B788BB9444AB2F83C2299B29142D8
:101EF00005D22144AA2081F870010133F6E7A4F845
:101F000038220023A4F83A3210E044273A4804F07B
:101F100017FEB4F83832013F5A1C17F0FF0723446C
:101F2000A4F8382283F87001F0D1EAE7B4F8383227
:101F3000002B3FF465AC00F005FD0746A02F7FF6AF
:101F40005FACB4F83A32A03F5A1C234493F87001B6
:101F5000A4F83A2201F0A2FDB4F83A22B4F83832DB
:101F6000DFF894809A42BFB2E8D30023A8F83A324F
:101F7000A8F8383244E4002F7FF41CA8FEF7EFBE27
:101F80000524FEF7CCBE0A2B0FD1EFE40B2B10D1AA
:101F9000F9E40C2B11D1FDE40D2B12D107E50E2B2A
:101FA00013D10BE50F2B14D129E50B2B7FF4F0ACEB
:101FB000E9E40C2B7FF4F9ACECE40D2B7FF4FCACE2
:101FC000F5E40E2B7FF419ADF8E40F2B7FF421AD6F
:101FD00015E5102B7FF429AD1DE500BF8809002011
:101FE000388900205C8E0008B081214224A40020A2
:101FF00034A4002086090020884F00202DE9F843F2
:102000002A4C1F46237889469046002B4BD094F8E3
:102010002C33002B47D1264B1A783AB901221A707B
:1020200094F80423234B82F001021A60013805283A
:1020300016D8DFE800F00306090C0F12B4F80A53B3
:1020400010E0B4F80C530DE0B4F80E530AE0B4F805
:10205000105307E0B4F8125304E0B4F8145301E04D
:10206000B4F808530026B3B243451CD239F91630F0
:1020700029B25943B4F81823C91301F30F011144CD
:1020800089B2B1F5805F094B04D3B3F82423013240
:10209000A3F8242308480FB93A4600E0BA5D04F0DB
:1020A0002BFC0136DFE7BDE8F88300BFE421002008
:1020B00086090020B0812142FC2100202DE9FF414A
:1020C000744C42F2D813E35A734804EB83035B6801
:1020D00023F07F43584004F0ABFD022800F2D58086
:1020E00042F2DA13E05A002100F583560D36B6B2FB
:1020F000B6F5875F26BFA0F1730292B232460D4655
:102100004FF47A574CF2801CDFF8908102F10C03F7
:1021100034F9133011F908800FFA8CFC3FB29C455A
:10212000B8BF9C469F42A8BF1F46B8F1010F1FFAD7
:102130008CFCBFB20AD0B8F1030F05D0B8F1FF3F55
:1021400006D003EB430303E003EB4303ED1A00E087
:102150001D44531D9BB2B3F5875F03D3A2F586528E
:102160001B3A93B20131182901D01A46CCE742F24A
:10217000EC12A258474B954240F3878042F2382236
:102180009A5C632A13D10FFA8CFC3FB267447F102C
:1021900042F214229F52C7EB0C0C44F63E1707FB89
:1021A0000CFC42F236224FEAEC3C23F802C042F229
:1021B0001423E35EB6F5875F009342F2362328BF0F
:1021C000A0F17306E35E28BFB6B202AF01933046BA
:1021D00018213A46002304F08FF9207800230028C4
:1021E00014BF042202221946DFF8B4C013F80C8091
:1021F00017F803C0013388EA0C0CDFF8A880062B1F
:1022000018F80CC06144C9B2EED191423DD842F2F7
:10221000EC13E550052242F2F013E25242F2DA13D7
:10222000E35A42F2E812A35242F2DE12A65203F53A
:102230008352073292B2174FB2F5875F42F2E01134
:1022400028BFA3F179027A52E8B903F2BB7080B2D9
:1022500042F2E612A3520F4942F2DC12B0F5875F58
:10226000A65228BFA3F6251042F2E212885203F2CA
:10227000BD7189B2B1F5875F42F2E4122ABFA3F6BD
:102280002313A152A352012000E0002004B0BDE8B6
:10229000F08100BF442D0020A030FB0077910008A2
:1022A000EA900008109200082DE9FF41634C41F2CA
:1022B000D823E35A624804EB83035B68C3F3130338
:1022C000584004F0B5FC032800F2B38041F2DA2351
:1022D000E05A002100F60116B6B2B6F5166F26BF19
:1022E000A0F15F0292B232460D464FF47A574CF29B
:1022F000801CDFF8548102F10C0334F9133011F91A
:1023000008800FFA8CFC3FB29C45B8BF9C469F42A8
:10231000A8BF1F46B8F1010F1FFA8CFCBFB20AD04C
:10232000B8F1030F05D0B8F1FF3F06D003EB43032C
:1023300003E003EB4303ED1A00E01D44531D9BB281
:10234000B3F5166F28BFA2F65B1201F1010128BF99
:1023500093B2142901D01A46CBE741F2E822A258E1
:10236000364B954265DD41F234329A5C632A13D1D3
:102370000FFA8CFC3FB267447F1041F210329F523B
:10238000C7EB0C0C44F63E1707FB0CFC41F2323253
:102390004FEAEC3C23F802C041F21033E35EB6F59D
:1023A000166F009341F2323328BFA0F15F06E35E5F
:1023B00028BFB6B202AF019314213A46002330463B
:1023C00004F004F92378002B4FF0000314BF04221B
:1023D000022219461B4813F800C0F85C01338CEA4E
:1023E0000000DFF868C0052B1CF800000144C9B2EA
:1023F000F0D191421DD841F2E821655041F2EC2123
:10240000635241F2DA23E35A0C4A03F6FB0080B22E
:1024100002F59751B0F5166F0B8041F2DC21665240
:1024200028BF653B41F2DE2134BF50525352012098
:1024300000E0002004B0BDE8F08100BFE47400209B
:10244000ADB5070055910008AE8E00081092000847
:102450002DE9FF47984C8046B4F8543B974854F810
:10246000233023F07F43584004F0E2FB0228A0F120
:102470000300C0B28CBF4FF0000A4FF0010A1228CF
:1024800040F21781B4F856CB00220CF22D5080B2E6
:10249000B0F5B46F26BFACF1730189B201461546A1
:1024A0004FF47A564CF2801704EB4103B3F9143021
:1024B0003FB236B29F42B8BF1F469E42A8BF1E46DB
:1024C000BFB2B6B2BAF1000F02D0DFF8FC9101E062
:1024D000DFF8F89112F809904FFA89F9B9F1010F74
:1024E0000AD0B9F1030F05D0B9F1FF3F06D003EBD5
:1024F000430303E003EB4303ED1A00E01D444B1DCF
:102500009BB2B3F5B46F28BFA1F29B5102F1010257
:1025100028BF8BB2182A01D01946C5E7D4F8603B12
:102520009D4240F3C6803FB233B23B445B109EB243
:10253000FF1A44F631435F43B0F5B46F33B2C7F3CB
:10254000CF3728BFACF1730000930DF108093BB2FF
:1025500028BF80B2019318214A46042304F004F9ED
:1025600057495848BAF1000F44D000231A4610F8D2
:1025700003A019F803C00AEA0C0CDFF854A113F801
:102580000AA001338CEA0A0C11F80CC0072B624434
:10259000D2B2ECD1032A00F28C80B8F1000F13D034
:1025A0000023A4F8727BA4F8707BA4F86E7BA4F8D7
:1025B0006C7BA4F86A6BA4F8686BA4F8666BA4F84B
:1025C000646B84F8743B10E094F8743B3A4A04EB73
:1025D00043010133DBB2032BA1F86C7BA1F8646BE0
:1025E00094BF82F8743B82F8748B334AC4F8605B02
:1025F000402342E05346524610F803A019F803C0A6
:102600000AEA0C0CDFF8CCA013F80AA001338CEA1C
:102610000A0C11F80CC0072B6244D2B2ECD1032A89
:1026200047D8B8F1000F13D00023A4F8727BA4F8A8
:10263000707BA4F86E7BA4F86C7BA4F86A6BA4F89A
:10264000686BA4F8666BA4F8646B84F8743B10E0C4
:1026500094F8743B184A04EB43010133DBB2032BBB
:10266000A1F86C7BA1F8646B94BF82F8743B82F88C
:10267000748B114AC4F8605B202384F8753BB4F86E
:10268000563B03F21A4189B2B1F5B46F28BFA3F5E6
:10269000C371A2F85A1B03F20D1292B2B2F5B46FD5
:1026A000A4F8583B2ABFA3F29343A4F85C2BA4F8E8
:1026B0005C3B04B0BDE8F087688D00206E28760092
:1026C000109200088F9100087E8E0008CA900008C2
:1026D000778E00085A910008B0F820372DE9F047AE
:1026E00000EB83035B680446834823F07F4386B096
:1026F0005840884604F09CFA0228A0F10300C0B2BA
:102700008CBF4FF000094FF00109122840F2F08011
:10271000B4F822370020A3F1730189B205331FFA00
:1027200083FA0F464CF280164FF47A52054607F1B1
:102730000C0334F9133036B212B29E42B8BF1E46B3
:102740009A42A8BF1A46B6B292B2B9F1000F02D0AF
:10275000DFF8B0C101E0DFF8B0C110F80CC04FFAEB
:102760008CFCBCF1010F0AD0BCF1030F05D0BCF109
:10277000FF3F06D003EB430303E003EB4303ED1AF3
:1027800000E01D440537BFB2574500F10100CED12E
:10279000D4F82C379D4240F3AB8036B212B23244AB
:1027A0005210B61A44F631435E430423C6F3CF36C3
:1027B00000930DF1100A33B201920293204697B2B2
:1027C0005346182204F0E8F84C494D48B9F1000F7F
:1027D00040D00022134610F802901AF802C009EA0D
:1027E0000C0CDFF8289112F8099001328CEA090CE0
:1027F00011F80CC0072A6344DBB2ECD1032B77D865
:10280000B8F1000F11D0A4F83E67A4F83C67A4F813
:102810003A67A4F83867A4F83677A4F83477A4F8B0
:102820003277A4F8307700230BE094F8403704EBBC
:1028300043020133DBB2032BA2F83867A2F83077EA
:1028400002D884F8403701E084F84087C4F82C5758
:1028500040233FE04A464B4610F802901AF802C067
:1028600009EA0C0CDFF8A89012F8099001328CEA02
:10287000090C11F80CC0072A6344DBB2ECD1032B1E
:1028800036D8B8F1000F11D0A4F83E67A4F83C6721
:10289000A4F83A67A4F83867A4F83677A4F8347730
:1028A000A4F83277A4F8307700230BE094F840378F
:1028B00004EB43020133DBB2032BA2F83867A2F822
:1028C000307702D884F8403701E084F84087C4F8B4
:1028D0002C57202384F84137B4F82237A3F5C3726C
:1028E000A4F8243703F20D13A4F82627A4F82837F8
:1028F00006B0BDE8F08700BF6E2876001092000891
:10290000C28E000896910008968E0008619100081A
:102910006891000838B50546094804F066F9202892
:1029200009D900242B1906485978013404F01CF900
:10293000212CF7D101E0052038BD002038BD00BFB3
:1029400054A90020114BD98C9A8C89B292B2914231
:1029500004D193F8282092B9188B11E0D98C9A8C65
:1029600089B292B2914205D29A8CD88C198B80B2DE
:10297000084401E0D88C9A8C801A80B200E00020D4
:102980001B8B834238BF0020704700BFE42100202A
:102990002DE9F04703F1020CBDF920A00133BDF988
:1029A00024901FFA8CFC9BB20027BCB2ACF102064B
:1029B0008C42B6B24FD2294CF51004EB4004B4F867
:1029C0001680C9F10004CAEB08080FFA88F8A04580
:1029D00006F00706224C07DA14F80680565D26EA50
:1029E00008065655DD101DE0B8F1000F07DA14F89F
:1029F0000680565D26EA08065655DD1009E0C845F2
:102A0000A65D12F8058048EA060656554FEAE3052A
:102A100008DA03F00706A65D2C46555D25EA060593
:102A2000155506E003F00708565D14F808403443D6
:102A3000545500F10A04A4B2B4F5F06F24BFA0F21B
:102A4000767084B20CF1020C023301371FFA8CFC51
:102A50009BB22046A9E7BDE8F08700BFB809002077
:102A60006F9100082DE9FF415F4CB4F8163F04EB6D
:102A700043035888C0F3090080F4A67080F0010079
:102A800004F0D6F8022800F2AB80B4F8180F002149
:102A900000F22676B6B2B6F5F06F26BFA0F15A0264
:102AA00092B232460D464FF47A574CF2801CDFF852
:102AB000408104EB4203B3F9163011F908800FFA94
:102AC0008CFC3FB29C45B8BF9C469F42A8BF1F46A6
:102AD000B8F1010F1FFA8CFCBFB20AD0B8F1030F96
:102AE00005D0B8F1FF3F06D003EB430303E003EB4F
:102AF0004303ED1A00E01D4402F10A039BB2B3F553
:102B0000F06F28BFA2F2767201F1010128BF93B2E3
:102B10000A2901D01A46CAE7D4F8242F324B95422D
:102B20005EDD93F8702F632A10D10FFA8CFC3FB250
:102B300067447F10C7EB0C0CA3F84C7F44F63E179C
:102B400007FB0CFC4FEAEC3CA3F86ECFB4F94C3F0A
:102B5000B6F5F06F28BFA0F15A060093B4F96E3FA6
:102B600028BFB6B2019330460A2103AA0023FFF71B
:102B70000FFF23789DF80D009DF80C10002B1B4BC8
:102B800080F0F50081F0CD01595C185C14BF032280
:102B9000012208449DF80E1021F00F0181F09001F0
:102BA000595C431803F0FF03934219D80623A4F895
:102BB000283FB4F8183F0C4A03F21B7189B2B1F5F3
:102BC000F06FA4F81E3F28BF653BC4F8245FA4F84B
:102BD0001A6F34BFA2F81C1FA2F81C3F012000E0AE
:102BE000002004B0BDE8F081B80900201092000870
:102BF000AE910008034B1A7882421CBF024A106053
:102C000018707047850900209481214270B50646EE
:102C10000D480D4603F0E9FFA84212D3013D0A48D2
:102C2000E9B203F0A1FF0024E3B2AB4204F10104D6
:102C300005D233445978044803F096FFF4E70020A6
:102C400070BD052070BD00BFC052002070B50021CE
:102C500006460C22134805F039FC0023124A134C97
:102C60009D5CD91003F00702715CA25C11424FEA2F
:102C7000E5020F4905F0070505D08818645D90F856
:102C80007B00044305E08818645D90F87B0020EA2F
:102C9000040401330A44442B82F87B40DED1002037
:102CA00070BD00BF4F520020F0900008E290000875
:102CB000D4510020F8B51D4C054604EB00163046F3
:102CC00003F073FF20281ED9D4F8DC30132B1AD957
:102CD00005F1380354F82330052B14D904F1AE055F
:102CE00004F1CF07304603F02BFF05F8010F002356
:102CF000BD4205F8283CF5D12123A4F8D8300023A3
:102D0000A4F8DA30F8BD0023254485F8E830084BF4
:102D100003F1210213F8011F83F8621093424FF070
:102D2000000183F83A10F5D1E6E700BFD451002046
:102D3000205200202DE9F0414F4C8046D4F8DC3081
:102D40000F460133C4F8DC30D4F8E0304A4E01338A
:102D5000C4F8E030D4F8E4300133C4F8E43094F837
:102D60006E300B2B84BF002384F86E3094F86E30E5
:102D7000BBB9304603F019FF06F16F0548B906F1FB
:102D8000100003F012FF20B93C4A1368C6F86F30F8
:102D900003E03B4A1368C4F86F3053686B60936874
:102DA000AB6094F86E20374B6832224432F8071F2C
:102DB000012F198092784FF000009A7014BF0422FE
:102DC000082284F88920D4F8DC2084F88700132AAC
:102DD00084F88800A3F1AF0306D903EB071003F0D2
:102DE000E4FE003018BF0120B8F10103D3F1000860
:102DF00058EB030894F86E302BB1B3F1090218BFF9
:102E00000122012101E01946012294F8AF7080EA05
:102E1000080547EAC010002981EA080640EAC80808
:102E200094F8B0000CBF00278027384340EAC20066
:102E30008D4214BF02210021014394F8B10084F8AF
:102E4000B010964214BF202100210143954214BFC7
:102E50000225002541EA050284F8B120033303224C
:102E6000A4F8D82084F8AF80002284F86E30A4F84B
:102E7000DA20BDE8F08100BFD451002062C700080D
:102E80004F5200208352002030B51F4B1F4A03F1E0
:102E9000200153F8044B8B4242F8044BF9D11B78C4
:102EA0000001137040F00900194BC0B233F8102034
:102EB000184BD1B293F85940920A24F03F0444EAE7
:102EC000900093F85A4083F8590004F00F048808E2
:102ED00000F0300544F040042C4383F85A4093F846
:102EE000604000F00F0024F00F04204383F86000DE
:102EF00093F8610002F03C0200F0030040EA811107
:102F0000114383F8611030BD349100082152002034
:102F1000CA8E0008D451002038B50546094803F090
:102F200064FE2F2809D900242B190648597801344A
:102F300003F01AFE302CF7D101E0052038BD002047
:102F400038BD00BF14250020114B1B785A1E51427A
:102F50005141104A981E116041424141B3F1030CA6
:102F600042F8041CDCF1000151EB0C01181F516008
:102F700041424141B3F1050C9160DCF1000151EB9C
:102F80000C01D160991F4B424B411361704700BF48
:102F9000840900209C812142F0B5224CA3B094F812
:102FA0000241002C3BD0E0248DF80440F4248DF83D
:102FB00006400025EEB2EC1C865DE4B222AF01357E
:102FC000274416B107F8846CF4E7081207F8840C5C
:102FD000601C22ADC0B2284400F8841CA11CC9B2F8
:102FE0001012294401F8840CE11CC9B2294401F8EB
:102FF000842C221DD2B219122A4402F8841CA11D6D
:103000000534E4B22C4404F8843CC9B2064B01A850
:103010008DF805109847054B1E6003F0B5FC23B0F2
:10302000F0BD00BF24880020ED01002018002742D9
:10303000F0B584462948A3B090F80201BDF9A0700C
:10304000002848D0E0208DF80400F5208DF8060017
:103050000025E8B2EC1C1CF80060E4B222A801359F
:10306000204416B100F8846CF3E70D1200F8845C7C
:10307000601C22ADC0B2284400F8841CA11CC9B257
:103080001012294401F8840CE11CC9B2294401F84A
:10309000842C221DD2B219122A4402F8841C621D0B
:1030A000D2B22A4402F8843CA31D04F10801DBB229
:1030B00007342B443A12E4B203F8842CC9B2084B0B
:1030C0002C4401A804F8847C8DF805109847054B22
:1030D0001E6003F059FC23B0F0BD00BF248800201F
:1030E000ED01002018002742F7B54CF280124FF492
:1030F0007A554FF0000E2E4617461FFA8EF38B427C
:10310000454C27D200F10C0334F91330002B0ADDB3
:103110003FB236B2BB42A8BF1F46B342B8BF1E463D
:10312000BFB2B6B209E02DB212B2AB42B8BF1D4673
:103130009342A8BF1A46ADB292B2431D9BB2B3F5FB
:10314000875F03D3A0F586501B3883B20EF1010EC2
:103150001846D2E739B236B22DB212B231442A44FF
:10316000491052108E187610B7B28E1BB6B233B219
:1031700000932A483BB2FFF75BFF42F23821635CC1
:10318000632B0FD10023E218023302F50751202BE5
:1031900002F508528F86D682F5D1002242F23823FA
:1031A000E25410E003F58752183204EB4202978094
:1031B00003F588520133DBB2083204EB42020F2BD5
:1031C000D6806354E9D8002342F21422A35242F27B
:1031D0003622A3521E461A46A11801F5075001F5E2
:1031E00008513430163100880988023203443144D2
:1031F000202A094D9BB289B202D09BB28EB2EBE776
:1032000043F30B1342F21422AB5241F30B1142F27F
:103210003623E95203B0F0BD442D00202F9300085F
:1032200030B5174BA3B093F802310D462BB3E02312
:103230008DF80430F2238DF806300023D9B2DA1C61
:10324000445CD2B222A90133114414B101F8844C78
:10325000F4E72B1201F8843C531C911CDBB222AA28
:10326000134403F8845CC9B2064B01A88DF805101D
:103270009847054B1C6003F087FB23B030BD00BFAF
:1032800024880020ED0100201800274208B50848D6
:1032900003F0ABFC014620B90648FFF7C1FF05204B
:1032A00008BD0221024803F05FFC002008BD00BFFA
:1032B000A02A00204F93000838B505460C4803F0BB
:1032C00094FC0C28014605D80A4809B2FFF7A8FF6C
:1032D000052038BD0648012103F046FC0024295D85
:1032E0000348013403F040FC0C2CF8D1002038BD19
:1032F000A02A00206C93000838B505460C4803F05E
:1033000074FC2928014605D80A4809B2FFF788FF4E
:10331000052038BD0648002103F026FC0024295D65
:103320000348013403F020FC292CF8D1002038BDDB
:10333000A02A00208A93000810B5134B9EB01B787A
:1033400013F0FB031ED1114A1278DAB1E0228DF896
:10335000002030228DF80220DAB2D41C8A42E4B276
:1033600006D21EAA1444C25C013304F8782CF3E799
:103370000331C9B2064B68468DF801109847054BDA
:1033800000221A601EB010BD840900200E0100202A
:10339000ED0100201800274207B5E0238DF8043026
:1033A00070238DF80630084B04219B780DEB01004B
:1033B0008DF80730054B8DF805109847044B002217
:1033C0001A6003B05DF804FB24880020ED010020A2
:1033D0001800274207B5E0238DF800307F238DF8D1
:1033E0000230094B05219B788DF804008DF80330DD
:1033F0006846064B8DF801109847054B00221A606D
:1034000003B05DF804FB00BF24880020ED0100201C
:103410001800274210B5134BC0B01B7813F0FB0304
:103420001ED1114A1278DAB1E0228DF8042031223F
:103430008DF80620DAB2D41C8A42E4B206D240AA41
:103440001444C25C013304F8FC2CF3E70331C9B225
:10345000064B01A88DF805109847054B00221A600D
:1034600040B010BD840900200E010020ED010020B5
:10347000180027420E4B13B51B7813F0FD0414D12E
:103480000C4B1B788BB100284FF0E0038DF8043013
:103490000CBF19231B2303218DF8063001A8064B0E
:1034A0008DF805109847054B1C6002B010BD00BF99
:1034B000840900200F010020ED01002018002742A0
:1034C00010B5154B8AB01B7813F0FD0322D1134CB5
:1034D0002478FCB100284FF0E0040CBF18201A201B
:1034E0008DF800408DF80200D8B2C41C9042E4B2BE
:1034F00006D20AA80444C85C013304F8280CF3E798
:10350000D11CC9B2064B68468DF801109847054B8F
:1035100000221A600AB010BD840900200F010020AB
:10352000ED010020180027422DE9F04FA9B00390CB
:103530000026A84C0398B4F83C35825B54F823105D
:1035400012F4004F4FEA410118BF41F0010144F865
:10355000231054F82330B4F83EB59F4823F07F433E
:1035600004EB4B0158408A8203F062FB0228A0461C
:1035700000F2D9800BF2212080B2B0F5257F28BF60
:10358000ABF173024FF000012CBF92B202460D4620
:103590004FF47A574CF2801ADFF85CC208EB420312
:1035A000B3F9143011F90CC00FFA8AFA3FB29A45F8
:1035B000B8BF9A469F42A8BF1F46BCF1010F1FFA31
:1035C0008AFABFB20AD0BCF1030F05D0BCF1FF3FAD
:1035D00006D003EB430303E003EB4303ED1A00E0E3
:1035E0001D44531D9BB2B3F5257F28BFA2F28F2245
:1035F00001F1010128BF93B2182901D01A46CBE787
:10360000D4F844359D4240F38E800FFA8AFA3FB2D7
:1036100057447F1044F63143C7EB0A0A03FB0AFA0A
:103620004FEAEA3AB0F5257F1FFA87F91FFA8AF8C0
:103630000DF1140C28BFABF173000FFA89F30FFAE8
:1036400088FB6246009328BF80B20423CDF804B003
:103650001821CDF808C003F023F80023DDF808C0D6
:103660001A465E49585C1CF8031001405C48185C1F
:10367000013341405B48072B415C0A44D2B2F0D190
:10368000032A50D8584B93F80231002B34D0E02352
:103690008DF81C30F3238DF81E300021534AC8B238
:1036A000CB1C825CDBB228A80131184412B100F8AF
:1036B000842CF3E7391200F8841C591C28A8C9B2DD
:1036C000014401F8847C991CC9B201444FEA2B2BB8
:1036D00001F884BC191D0333DBB2034403F884AC46
:1036E000C9B2434B029207A88DF81D109847414B71
:1036F000029A1A6003F048F9B4F83E25354B02F2FD
:103700000D1189B2B1F5257F24BF6FF4C371521832
:10371000C4F84455A4F84895A4F84A8534BFA3F8E2
:103720004015A3F84025B4F83E25B4F8403593423F
:1037300033D1981D80B2B0F5257F24BFA3F28E232C
:1037400098B2B4F9483584210093B4F94A3507AAF0
:103750000193082302F0A4FF0DF1130205AB04A8A6
:103760000DF11D0103F064F89DF8132094F84C3519
:103770009A420BD19DF81430032B07D1C3230020AC
:1037800007A922228DF81C30FFF79AFE42F20F7330
:10379000A4F840350023C4F84435B4F83E250D4B59
:1037A000013292B2B2F5257F28BF0022A3F83E2550
:1037B000B4F83C25074B013292B2042A06F1020606
:1037C00088BF0022042EA3F83C257FF4B2AE29B0B6
:1037D000BDE8F08F941C00206E287600E091000870
:1037E000289300081092000824880020AA9300085B
:1037F000ED0100201800274210930008B0F826378A
:1038000030B503F13C0203F516739DB292B200236A
:10381000541C00EB4202A4B2B2F84A27AC42134453
:1038200001D02246F4E74FF40772B3FBF2F3C3F37F
:10383000072281F8222081F8233000782422BDE875
:103840003040FFF73DBE00000146164830B5B0F8E5
:103850005A3B4FF407743C339BB20022054605EBFC
:103860004300B0F87C0B013C0244581C80B2B0F518
:10387000B46F28BFA3F29F53A4B228BF98B20CB173
:103880000346ECE74FF40773B2FBF3F2C2F30723EE
:1038900081F8232081F8223001202422BDE8304025
:1038A000FFF70EBE688D002010B5144BA2B01B7838
:1038B000032B00D0FBB9124B1B78E3B1E0238DF84A
:1038C000043020238DF806300023DAB2D41C8A425B
:1038D000E4B206D222AA1444C25C013304F8842C58
:1038E000F3E70331C9B2074B01A88DF805109847DB
:1038F000054B00221A6022B010BD00BF84090020D1
:10390000DB000020ED0100201800274210B5134B0A
:1039100086B01B78012B1FD8114B1B78E3B1E02335
:103920008DF8043011238DF806300023DAB2D41C50
:103930008A42E4B206D206AA1444C25C013304F8F7
:10394000142CF3E70331C9B2064B01A88DF805101A
:103950009847054B00221A6006B010BD840900206C
:10396000DC000020ED0100201800274210B50B4CB0
:10397000B4F85C234AB1D4F85813B1FBF2F2C2F3A5
:103980000721017342730E2100E00C21FFF7BEFFF7
:103990000023C4F85833A4F85C3310BD3419002058
:1039A00010B5E0238EB08DF8043010238DF806306A
:1039B0000023DAB2D41C8A42E4B206D20EAA14441E
:1039C000C25C013304F8342CF3E70331C9B201A817
:1039D000044B8DF805109847034B00221A600EB077
:1039E00010BD00BFED0100201800274210B5144B98
:1039F000A2B01B78052B00D0FBB9124B1B78E3B1AA
:103A0000E0238DF8043040238DF806300023DAB22D
:103A1000D41C8A42E4B206D222AA1444C25C013306
:103A200004F8842CF3E70331C9B2074B01A88DF8E1
:103A300005109847054B00221A6022B010BD00BF48
:103A40008409002010010020ED0100201800274209
:103A500000B50F4BA3B01B78632B16D1E0238DF874
:103A6000043008238DF80630002301AA1A44C15CF3
:103A70000133052BD170F8D10821064B01A88DF830
:103A800005109847044B00221A6023B05DF804FB30
:103A900084090020ED0100201800274230B50023E2
:103AA000ADF5217D02060BD5154A00A9194402F196
:103AB000280452F8045BA24241F8045BF9D10AE001
:103AC000104A00A9194402F1280452F8045BA242EA
:103AD00041F8045BF9D128334000B3F5A07FC0B2B0
:103AE000E0D1694650AA0848A02304F04BF906200B
:103AF00050A9A0220023FEF781FA0DF5217D30BDEB
:103B0000E8910008B8910008984F00202DE9F04F87
:103B1000A5B0029003910024A74D039B029E1A5B5F
:103B2000D5F8583329461344C5F85833B5F85C33F3
:103B30000133A5F85C33325B2B79D20B934209D069
:103B40002B68B3F5004F2ABF6FF4CC7C03F29913B6
:103B500063442B602E68984B06F54C503330B0F51B
:103B6000803F2A7101D218607AE3A6F54C40CD3827
:103B700018605879012853D003D3022800F0CA8274
:103B80006EE3996849000AB141F001019960AD689E
:103B90008A4825F07F45684003F04AF80228864E9F
:103BA00010D8874800F0B4FE06F10C000021532223
:103BB00004F08CFC00233367C6F85833A6F85C3356
:103BC000012395E27F48684003F032F8054600285B
:103BD00040F046837C4800F09BFE0120FFF70AF886
:103BE0007A4B012283F82123794A06F10C031068ED
:103BF0005168C6F8585303C39068A6F85C53186020
:103C0000A3F10800FFF7B2FE06F10C0029460E22D0
:103C100004F05CFC4FF4165373673567022367E2C8
:103C2000986840009860002A00F0218340F001006D
:103C30009860186F674EC208134400F00700305CAC
:103C40001B7B03430A4413732B6F0133B3F5257FAA
:103C50002B6740F0058300235F48CA18167B185C69
:103C600001337040532B1073F6D1002300200FAAAC
:103C700098540133542BF9D1584B01EBE002127BDD
:103C8000D6070FD513F80E6C24AF3E4413F80D7C05
:103C90004FF0800C2CFA07F716F854CC47EA0C07C3
:103CA00006F8547C97070FD513F80C6C24AF3E44EC
:103CB00013F80B7C4FF0800C2CFA07F716F854CC55
:103CC00047EA0C0706F8547C56070FD513F80A6C20
:103CD00024AF3E4413F8097C4FF0800C2CFA07F710
:103CE00016F854CC47EA0C0706F8547C17070FD592
:103CF00013F8086C24AF3E4413F8077C4FF0800C97
:103D00002CFA07F716F854CC47EA0C0706F8547C4F
:103D1000B0F5247F09D10022EA67C5F88020C5F8F4
:103D20008420C5F88820AA675AE0D6060FD513F874
:103D3000066C24AF3E4413F8057C4FF0800C2CFA3F
:103D400007F716F854CC47EA0C0706F8547C970698
:103D50000FD513F8046C24AF3E4413F8037C4FF0E6
:103D6000800C2CFA07F716F854CC47EA0C0706F833
:103D7000547C56060FD513F8026C24AF3E4413F85A
:103D8000017C4FF0800C2CFA07F716F854CC47EA68
:103D90000C0706F8547C17060BD51A7824AE32446B
:103DA0005E78802727FA06F612F8547C3E4302F824
:103DB000546C0830103360E73419002050765500F9
:103DC000EA95000868B4AA000C960008E4210020D7
:103DD000D6930008A49D0008119800087A9800085E
:103DE00024AF07EBE20313F8541C02F00700802312
:103DF000C340402525FA00F019420CBF00230123DF
:103E000001420CBF0021012183F0010581F0010076
:103E100005EB000918180190B64803EB010CD0F827
:103E20007C806918D0F88460856F0CEB080A09EB78
:103E300006070091E9085745D4BF0497CDF810A0B4
:103E4000BA4501F1220A05F0070300EB8A0A07DAF6
:103E5000A94F17F803B0DAF804700BEA070706E079
:103E6000A64F17F803B0DAF804704BEA0707664468
:103E7000C844B045D4BFCDF814800596B04501F1D3
:103E80004C06CAF8047000EB860004DA9A4EF75C20
:103E900046683E4003E0994EF75C46683E43954FC6
:103EA0004660D7F88080009ED7F888C001984644C5
:103EB0006044B042D4BF0690069601F1760986426E
:103EC00007EB89093E4607DA8B4810F803A0D9F8BA
:103ED00004000AEA000006E0884810F803A0D9F8B8
:103EE00004004AEA0000C9F804000198A0318044A7
:103EF000009806EB81018444C445D4BFCDF81CC0B2
:103F0000CDF81C80E0451BDA7B48C05C4B68034061
:103F10004B60049B0232FB67059B0135C7F880307C
:103F2000069BB2F5257FC7F88430079BBD67C7F8AD
:103F300088307FF455AF002340F24912194604E05F
:103F40006E48C05C4B680343E2E703294CD8DFE8C6
:103F500001F0020F1D34694D02F007002D5CD010F6
:103F600006EB8000D0F88C00054218BF02211AE051
:103F7000624D02F00701685CD11006EB8101D1F8B7
:103F80003411084214BF0221002122E05B4802F0F4
:103F90000701405CD11006EB8101D1F8DC11084229
:103FA00014BF03210121544F03F0070506EBD30092
:103FB0007F5D90F82C533D4013E0504D02F0070018
:103FC0002F5CD01006EB8000D0F88402074208BFB7
:103FD000012106EBD30003F00707EF5D90F82C53A7
:103FE0003D4380F82C53013312F1FF32ADD2002251
:103FF00002F11000013200236F46292AC355F7D180
:10400000C3F5A47201323D4802F0070106EBE2025B
:10401000415C92F82C23114209D0012003F00701E2
:1040200000FA01F1DA0804ADA85C0143A954013398
:10403000B3F5A57FE4D14FF0FF32002304AFF85C65
:104040002F495040C0B231F81010C2F3072201339B
:104050005140272B0A46F1D1CB439DF83710DAB2F5
:10406000914209D19DF83810C3F307235A1A5342DD
:104070005341002B3CD001E0002339E00120FEF742
:10408000B9FD204B012283F82123B6F85C231E4B97
:104090009AB118491B78D1F85813012BB1FBF2F2F1
:1040A000C2F307218DF839108DF83A200FD8174B3D
:1040B0001B7863B104A82B2107E01B78012B06D8DD
:1040C000124B1B781BB104A82921FFF769FC0025BE
:1040D0000F4829460E22C6F85853A6F85C5304F040
:1040E000F5F9022373714FF4165335677367B7E020
:1040F0007371B5E034190020949D0008E295000822
:10410000E2930008E421002084090020DC00002064
:1041100040190020986840009860002A00F0B180A3
:1041200040F001009860186F5B4EC208134400F025
:104130000700305C1B7B03432F6FD5F8088057487E
:104140001144013788EA00000B732F6702F070FDFD
:104150000128534E21D8534800F0DAFB0020FEF727
:1041600049FD514B002683F82163504B1B78012BEE
:1041700010D84F4B1B786BB1E02303218DF83C30F6
:104180008DF83D1013238DF83E300FA8494B98470A
:10419000494B1E6000236B7162E05C2F0ED94748CB
:1041A00028F07F43584002F043FD022806D86023E0
:1041B00033674FF416537367012700E000272B6F16
:1041C000602B16D1AFB901266FF07F403B4BF0401A
:1041D000F34000EA0800584002F02AFD02285FFA86
:1041E00086F903D8C9F160032B6702E00136042E7B
:1041F000EAD16E6F2A48013E6E67C6B9304800F0BA
:1042000087FB3046FEF7F6FC274B83F82163274BEC
:104210001B78012BBED8264B1B78002BBAD0E0238D
:1042200003218DF83C308DF83D101223ABE7026F6F
:10423000602A15D14FB1552242752D228275162262
:10424000C2750C30FFF792FB03E00C300C21FFF736
:104250005DFB1C4800210E2204F038F900232B6777
:104260000234042C7FF458AC25B0BDE8F08F186FF1
:10427000154EC208134400F00700305C1B7B03405E
:10428000E0E4186F104EC208134400F00700305CE1
:104290001B7B034050E700BFA49D00085E13AAAA41
:1042A000341900202D960008E42100208409002004
:1042B000DC000020ED0100201800274268B4AA00AD
:1042C0004D960008401900209C9D00085C2810B500
:1042D000044635D012D8042824D008D802281DD08E
:1042E0001ED8012832D1A14800F012FB78E0062840
:1042F0001CD019D35B2829D19D4824E0602819D00F
:1043000004D85E2818D019D99A481CE063280FD029
:10431000652817D0622819D1974814E0974812E011
:10432000974810E097480EE097480CE097480AE05D
:10433000974808E0974806E0974804E0974802E06D
:10434000974800E0974800F0E3FA04E0964800F050
:10435000DFFA012C44D0954B0022022C1A601A710E
:104360005A719A601A675A67C3F85823A3F85C23F6
:1043700036D18F4B002241F2DA215A5241F2D82134
:104380005A5241F2E8215A50632041F234315854D4
:1043900042F20F7141F2DC20195241F2DE20195233
:1043A00003F59750018041F2E220195241F2E420D6
:1043B000195241F210315A5241F232315A5241F2FD
:1043C000EC215A5241F2EE215A5441F238315A50FE
:1043D000042C41F23C311A705A5200F0948054E09F
:1043E000744A002342F20F71A2F83E35A2F83C3520
:1043F000C2F84435A2F84A35A2F84835A2F840156B
:104400006D4A41F27850A2F8583BC2F8603B82F8FE
:10441000753B82F8763B82F8783BA2F85A3BA2F8CB
:104420005C1B664A032C135241F27650135241F240
:104430007E50135241F27450135202F5AC50036097
:1044400041F29550135441F29650135441F29A5050
:10445000135441F27A50A2F82437A2F82237A2F876
:104460002A37A2F82037C2F82C3782F8413782F871
:10447000423782F84637A2F82637135241F27C536E
:10448000A2F82817D1527FF474AF4D4B002242F2AC
:10449000DA115A5242F2D8115A5242F2EC115A50E1
:1044A000632042F23821585442F20F7142F2DC107C
:1044B000195242F2DE10195242F2E010195242F241
:1044C000E610195242F2E810195242F2E210195263
:1044D00042F2E410195242F214215A5242F23621A9
:1044E0005A5242F2F0115A5242F2F2115A5442F226
:1044F0003C215A5003F509510A80052C42F2422111
:104500001A705A5423D02F4B6321002283F8701F56
:1045100042F20F711A70A3F8182FA3F8162FC3F8E0
:10452000242FA3F81A1FA3F81C1FA3F81E1FA3F81B
:10453000201FA3F8221FA3F84C2FA3F86E2FA3F877
:10454000282F83F82A2FC3F8742FA3F8782F1E4B37
:10455000002283F8EC23A3F8E823A3F8EA231B4BFB
:104560001C70BDE81040FEF7EFBC00BF8596000848
:10457000C097000838970008039700087596000850
:1045800098960008B2960008C2960008D3960008D4
:10459000E69600081D9700085497000879970008D0
:1045A0009B970008E3970008009800083419002042
:1045B000E4740020941C0020688D00203C580020EA
:1045C000442D0020B80900203889002084090020EB
:1045D00030B5484CABB0204602F0E7FA20B9B4F849
:1045E0008435002B00F08380B4F88435ABBB424B9C
:1045F0001A78FAB93F4BB3F8883591B2994205D28F
:1046000021445F2081F8D4000132F6E7E2185721F7
:1046100082F8D4105A1C92B22244752182F8D41028
:10462000DA1C02339BB2A4F884252344FD2283F8CC
:10463000D4200FE030252F4802F082FAB4F88435F8
:10464000013D5A1C15F0FF052344A4F8842583F886
:10465000D400F0D10023A4F88635B4F88435002BBB
:1046600045D0FEF76FF90546282D40D9B4F88635B8
:104670005A1C2344A4F8862593F8D420002302F082
:10468000C001802908D0C02903D039B94FF60B7179
:1046900006E040F2DF2103E0F52101E04FF6215171
:1046A0002DF8031002339200082BD2B2E7D1134841
:1046B000694602AA042303F07BF9114802A916AA4D
:1046C000282303F05FFB16A9282200230520FDF70D
:1046D00095FCB4F88615B4F88425283D9142ADB216
:1046E000044BC1D30022A3F88625A3F884252BB060
:1046F00030BD00BF1425002086090020242500209D
:1047000030250020F0B57C4C42F2DC13E35A9DB01A
:1047100003F1780080B2B0F5875F03D3A3F583502F
:10472000083880B242F21423E35E0821009342F27B
:104730003623E35E0DEB01020193002301F0DCFE62
:104740009DF8093042F2422203F00F03A3540F2BCD
:1047500000F2AA80DFE803F008A8A863A8A8A8418F
:10476000A8A8A8A82CA8A88542F2DC17E05B4FF403
:10477000C671FEF7B9FC42F2142642F2362542F227
:10478000E613E15E5D48A25F635FFEF705FCA35F91
:10479000E05B0093635F4FF4C671019303AA0823A3
:1047A00001F0AAFE01238DF80C3003A8642179E002
:1047B00042F2E615605BB42142F2142742F236263B
:1047C000FEF792FC4E48A35F615FE25FFEF7E4FBF9
:1047D000E35F605B0093A35F15E042F2DC17E05BF0
:1047E000B421FEF781FC42F2142642F2362542F251
:1047F000E6134448E15EA25F635FFEF7CDFBA35F73
:10480000E05B0093635F0193B421082303AA01F0E6
:1048100073FE01238DF80C3003A82E2142E042F2F2
:10482000DC17E05B4821FEF75FFC42F2142642F2FF
:10483000362542F2E613E15E3348A25F635FFEF77E
:10484000ABFBA35FE05B0093635F4821019303AA86
:10485000082301F051FE01238DF80C3003A8132129
:1048600020E042F2DC17E05BD821FEF73DFC42F28B
:10487000142642F2362542F2E613E15E2348A25F97
:10488000635FFEF789FBA35FE05B0093635FD82162
:10489000019303AA082301F02FFE01238DF80C30A9
:1048A00003A83721FEF748FD42F2E813E35A124805
:1048B00003F586521F3292B2B2F5875F28BF03F12B
:1048C000FF3242F2E2114252591C89B2B1F5875FC0
:1048D00028BFA3F5865342F2E41224BF1F3BA35224
:1048E0004FF0020338BFA1522370002242F2EC13B2
:1048F000E2501DB0F0BD00BF442D0020AC9D00086B
:10490000DA9D0008089E0008379E0008659E000892
:1049100010B5114BA2B093F80231D3B1E0238DF85A
:104920000430F1238DF806300023DAB2845CD91C00
:10493000C9B2013324B122AA114401F8844CF4E72E
:10494000064B01A88DF805109847054B1C6002F036
:104950001BF822B010BD00BF24880020ED0100200C
:10496000180027422DE9F04FBDB003908B4600267A
:10497000039BDFF8AC829A5B3BF80610994DD8F8A0
:10498000003005F509570B44C8F800303B88A7F103
:10499000680901333B80B9F80030100405EB83034C
:1049A0005968914C4FEA410148BF41F001015960FB
:1049B000238803F10C0125F811202A78012A02D05E
:1049C000022A16D0B8E021896289914206D28B4230
:1049D00007D3934205D8FDF771FB02E08B42F8D371
:1049E000F9E7228863899A4240F0E080FFF78AFE67
:1049F000DCE021896289914206D28B4207D393423F
:104A000005D8FDF75BFB02E08B42F8D3F9E7DFF84E
:104A1000FCA12188BAF80020914240F0C780BAF882
:104A20001020052A15D1BAF8082002F586511F3149
:104A300089B2B1F5875F28BF02F1FF312181511C96
:104A400089B2B1F5875F25BFA2F586521F3A618111
:104A50006281664C4FF458712088FEF745FBBAF925
:104A600008106348B4F93620B4F95830FEF794FAC8
:104A7000B4F9363020880093B4F958304FF45871A7
:104A8000019305AA082301F037FD638A013B1FFA51
:104A900083FAA4F812A0BAF1000F2DD15548FFF700
:104AA00037FF5046FEF7A6F8534B544A1B7882F85E
:104AB00021A313F0FB0710D1514B1B786BB1E023FE
:104AC0008DF81030322303218DF8123004A84D4B9D
:104AD0008DF8111098474C4B1F604C4B42F20F71F0
:104AE0000022198063212A7083F858109A74C4F840
:104AF0000E2083F8622059E0BAF104025342534178
:104B00008DF814303B8863B1D8F8002005A8B2FBBB
:104B1000F3F3C3F307228DF8ED208DF8EE30DB219F
:104B200001E005A8D921FEF775FC0023C8F8003084
:104B30003B80C4F80E3039E0FDF7C0FA80B1237E27
:104B400073B90120C8F800303B80FEF753F82B4BB7
:104B5000012283F82123632384F85E300A2323761D
:104B6000237E13B12A4A013B1370237E012B1DD1F2
:104B7000284A138803F2BB7189B2B1F5875F28BF59
:104B8000A3F6251122F8041C03F2BD7189B2B1F518
:104B9000875F214A24BFA3F6231313804FF001033C
:104BA0002B704FF0000338BF118023760E4B023676
:104BB0001A88013292B2B2F5875F29BF00221A80AB
:104BC0001A8083F86820B9F80020144B013292B2A1
:104BD000042A88BF0022042E1A807FF4C9AE3DB09B
:104BE000BDE8F08F442D00201E4F0020224F0020F2
:104BF000959E0008C39E000884090020E42100203F
:104C00000E010020ED01002018002742244F002053
:104C1000364F00202A4F0020284F00201C4F002034
:104C2000804F00202DE9F043074691B088460026CA
:104C3000A84C38F80610D4F8743FBA5B0B44C4F89B
:104C4000743FB4F8783F12F4004F03F10103A4F865
:104C5000783FB4F8163FA14604EB430359889D4DB5
:104C60004FEA410189B218BF41F001015980B4F8FF
:104C7000183F04EB4301CA822278012A40F03E81AA
:104C8000B5F8201FB5F8222F914206D28B4207D3E8
:104C9000934205D8FDF7E6FE02E08B42F8D3F9E730
:104CA000B4F8181FB4F81C2F8A4B914240F0688169
:104CB000B3F8282F062A16D1B3F81E2F02F27F71FF
:104CC00089B2B1F5F06F28BF02F1FF31A3F8201FC0
:104CD000531C9BB2B3F5F06F2ABFA2F27F72A4F807
:104CE000223FA4F8222F4CF280124FF47A50B4F8ED
:104CF0001A1F4FF0C00C0546964609EB4103B3F965
:104D00001630002B0CDD0FFA8EFE2DB27345A8BFB6
:104D10009E46AB42B8BF1D461FFA8EFEADB209E0FB
:104D200000B212B28342B8BF18469342A8BF1A46D7
:104D300080B292B201F10A039BB2B3F5F06F0CF1AD
:104D4000FF3C28BFA1F276711FFA8CFC28BF8BB202
:104D5000BCF1000F01D01946CFE70FFA8EF12DB24A
:104D600000B212B229440244491052108D186D103D
:104D70001FFA85F94D1BADB22BB2009356480FFABE
:104D800089F3FEF755F994F8702F524B632A0CD132
:104D900003F62A7203F64A7322F8029F9A42558458
:104DA000FAD1002384F8703F0BE003EB420101329B
:104DB000D2B20F2AA1F82C9FA1F84E5F83F8702F72
:104DC000EFD8464B0022A4F84C2FA4F86E2F03F125
:104DD0002000114633F8025F2A445D8C8342294447
:104DE00092B289B202D092B289B2F3E741F30B13C7
:104DF00042F30B1292B29BB2A4F84C2FA4F86E3F70
:104E00003748B4F91E1F12B21BB2FEF7C5F8B4F949
:104E10004C3FB4F81A0F0093B4F96E3FC0210193D0
:104E200003AA0823FDF7B4FDB4F8285FDFF8A490C7
:104E3000013DADB2A4F8285F5DBB2A48FFF768FDCD
:104E40002846FDF7D7FE284B83F82153274B1B78C4
:104E5000052B00D08BB9264B1B7873B1E0238DF85E
:104E60000830412303218DF80A3002A8214B8DF828
:104E700009109847204B00221A6042F20F7200235B
:104E8000A4F81C2F6322237084F8702F84F82A3F23
:104E90001DE06B1F5D425D41B9F8783F8DF80C5005
:104EA00063B1D9F8742F03A8B2FBF3F3C3F307225D
:104EB0008DF83D208DF83E30332101E003A83121EB
:104EC000FEF794FD0023C4F8743FA4F8783FC4F8BB
:104ED000243F55E0B8090020E49E0008E2180020B5
:104EE000059F00082D9F0008E42100208409002070
:104EF00010010020ED01002018002742FDF7B2FD4F
:104F000098B195F82A3F83B90120C5F8743FA5F8F8
:104F1000783FFDF76FFE294B012283F8212363239D
:104F200085F8703F052385F82A3F94F82A3F1BB186
:104F3000234A013B82F82A3F94F82A3F204A012B5A
:104F40001ED1B2F81E3F03F27F7189B2B1F5F06F46
:104F500028BF03F1FF31A2F8201F5A1C92B2B2F50C
:104F6000F06F24BFA3F27F73A4F8223F4FF0010338
:104F700023704FF0000338BFA4F8222F84F82A3F93
:104F8000B4F8182F0E4B013292B2B2F5F06F28BF71
:104F90000022A3F8182FB4F8162F094B013292B251
:104FA000092A06F1020688BF0022042EA3F8162F54
:104FB0007FF43EAE11B0BDE8F08300BFE4210020D5
:104FC000B8090020F0B5B0F822370446B0F8280739
:104FD0008FB09842C0F06181B3F5617F80F05D8150
:104FE00004EB43000183A0F84A27B4F820270029E6
:104FF00004EB820250684FEA4000B8BF40F0010065
:10500000506094F8462732B9A3F5C8735A2B10D8CC
:10501000204601210BE0B4F82427511E89B28B42AF
:1050200007D3013292B2934203D820460021FDF704
:1050300053FBB4F82237B4F82817994240F01F8187
:10504000B4F93237B4F93067B4F938771E44B4F99B
:1050500034370EAD1E44B4F93637A1F28E211E440A
:10506000B4F93A3746F38F061F44B4F93C3720466B
:105070001F44B4F93E3789B21F4494F8413747F3CF
:105080008F0705F8243D0823009301962B460297CD
:10509000842201F081FC94F84137402B40F0978046
:1050A0000DF113020DF1120304A80DF1150101F029
:1050B000BFFB9DF8132094F843379A4240F0DF80FD
:1050C00000239DF8142084F8423784F847379DF870
:1050D00012301A438DF814200A2B60D8DFE803F051
:1050E0003C35545F5F5F061B1B5F1B002378B4F9E0
:1050F0002427002B14BF0221012133466A48009760
:10510000FDF796FF20462946FEF778FB022384F838
:105110004637002316E094F84637022B40F0AF8064
:105120002378B4F92427002B14BF02210121334630
:105130005E480097FDF77CFF20462946FEF75EFBA0
:105140009DF8123084F8483799E02378B4F9242781
:10515000002B0097564809E094F84637012B0FD1F1
:105160002378B4F924275348002B009714BF022159
:1051700001213346FDF75CFF20462946FEF73EFB42
:10518000012384F846377AE094F84637012B76D12C
:105190002378B4F92427002B0097474805E02378AB
:1051A000B4F924274548002B009714BF02210121A0
:1051B0003346FDF73DFF20462946FEF71FFB00233F
:1051C00084F8463742F20F73A4F8283757E0202BB3
:1051D00018D12378B4F92427002B14BF0221012110
:1051E000334637480097FDF723FF20462946FEF750
:1051F00005FB012384F84637002384F8423784F8FE
:1052000047373CE094F846378BB194F84237013386
:10521000DBB20C2B84F8423709D92078FEF72AF943
:10522000002384F8463742F20F73A4F8283794F825
:105230004637012B16D194F84737042B06D9202383
:105240008DF81430002384F8473705E00133DBB2D2
:1052500084F847378DF81430207829462222FEF74B
:105260002FF90CE0022B0AD194F848373BB143F0F8
:105270004003204629468DF81430FEF7BFFAB4F8F3
:1052800022370133A4F82237B4F8203701339BB218
:10529000042B88BF0023A4F8203794F84607003079
:1052A00018BF01200FB0F0BD4F9F0008869F000877
:1052B000BE9F0008F69F000831A000086DA00008FE
:1052C0009DA000082DE9F04F00254FF41676044606
:1052D0008DB00582057045828680057545754FF451
:1052E000966003F06FF8A060304603F06BF84FF45F
:1052F000FA77A584E060E584278384F8285084F851
:1053000029504FF47A7003F05DF8E061384603F0FD
:1053100059F8A5862062E586A68584F8385084F879
:1053200039504FF4966003F04DF82946206310225F
:1053300004F13C0003F0CAF804F14C030393E56464
:1053400025656565A565A4F85C5025666566A4F8C5
:105350006850E5662567A4F87450A567E567A4F86A
:105360008050C4F88450C4F88850A4F88C50C4F815
:105370009050C4F8945004F1980300225A53023517
:105380008C2DFAD104F5927B00212BF80210023209
:10539000502AF9D104F5BA7A00222AF80120023104
:1053A0003C29F9D104F5D879002629F802600232A7
:1053B000DC2AF9D104F52378002528F806500236B6
:1053C000782EAC46F8D14FF480420127A4F806238A
:1053D000A4F80823A4F80A23A4F80C23A4F80E23A5
:1053E000A4F81023A4F81223A4F814234FF40062A5
:1053F0001846294684F80453A4F81623A4F8182361
:10540000C4F81C5384F82153A4F82253A4F824535D
:10541000C4F8285384F82C538C2284F82073019309
:10542000CDF808C003F052F829465846502203F040
:105430004DF829463C22504603F048F82946484694
:10544000DC2203F043F829463246404603F03EF89A
:1054500029461022039803F039F8039ADDF808C0B2
:105460002264C24A019B62642A22A4F85C20C04ADA
:10547000C4F890802267BF4ADFF83083E267522287
:10548000A4F88020BC4A84F848C0C4F888202022B0
:10549000A4F88C20B94AE7632366C4F89420B84B7B
:1054A000D8F81820B74E6366C4F86CB00C23C4F863
:1054B0008490B549DFF8EC924FF0060B42F03D02C4
:1054C000A4F86830A4F874B0C4F878A0C8F818201C
:1054D0004FF08832C9F800203046C9F80420C9F8D6
:1054E0000C5032607260F5600A604A60CD60C1F8AD
:1054F0000024C1F80424C1F80C5402221946019377
:1055000001F0F7FA30460521022201F0F2FA3046A6
:105510000421022201F0EDFA30460D21082201F0AB
:10552000E8FA30460721022201F0E3FA30465946F4
:10553000022201F0DEFA30460821022201F0D9FAF7
:1055400030460921022201F0D4FA30460A21022213
:1055500001F0CFFA30460B21022201F0CAFA3046A0
:1055600029462A4601F0C5FA30462A46394601F056
:10557000C0FA2A464846854D042101F0BAFA484649
:105580000F21042201F0B5FA6A68484622F44072FD
:1055900042F480726A6009210A2201F0AAFA0A2103
:1055A0004846042201F0A5FA6A6806F5E05622F0A2
:1055B000E06242F000726A60D8F8042005F51055E8
:1055C00022F4404242F40042C8F80420D8F81820DF
:1055D000019B42F40072C8F81820D8F81820184629
:1055E00042F48062C8F818204FF4C0226A604FF07D
:1055F00080722A614FF00062326108226A630922D8
:105600007263AA683A43AA60B2683A43B26001F092
:1056100084FAAB68414643F00403AB60AB685B07B8
:10562000FCD4B36843F00403B360594A936813F0A1
:105630000407FAD15748584E836805AD43F001037B
:10564000836093680DF1140943F001039360CB6903
:10565000012243F00053CB61504B1A600FCE0FC5AF
:1056600096E8070085E807003B4659F80320043315
:1056700001211C2B1160F8D1494E4A480921022210
:105680000027494D01F035FA37602B684FF47A72E4
:10569000B3FBF2F36420584301F03FFA3B4659F85C
:1056A000032004334FF0000A1C2BC2F800A0F6D1EF
:1056B0000127376028684FF47A781423B0FBF8F09C
:1056C000584301F02AFAC6F800A028680A23B0FB64
:1056D000F8F0584301F021FADDF814A037600DF11D
:1056E0002808CAF8007004AF2B684FF47A7BB3FB2C
:1056F000FBF34FF00A0B0BFB03FB584601F00DFACE
:1057000057F8042F002313607A6801214745116080
:10571000EAD19846584601F000FA09EB080293696D
:1057200000275269A8F104081F6018F1180F4FF004
:1057300001031360EED15846019301F0EEF9CAF867
:105740000070376028684FF47A78B0FBF8F04FF0BB
:105750000A0909FB00F001F0E0F9019B11483360F0
:1057600009214A4601F0C5F922E000BF600200208D
:105770007802002054020020900200208C030020B8
:1057800038030020000C01400010014000000140DF
:105790000028014000240140D4A00008007400400B
:1057A000A4012142000801403403002000100240FF
:1057B0002B683220B3FBF8F800FB08F001F0ADF9DC
:1057C00006253E46644A654BDFF898B1DFF898A19C
:1057D000DFF89891DFF89881614F86F00106166036
:1057E000FA205660013DCBF80060CAF80060C9F8A5
:1057F0000060C8F800603E601E6001F08EF915F090
:10580000FF05DFD1554A0126CBF80060FA20CAF81F
:105810000050C9F80050C8F800503D60156001F014
:105820007CF94E4BCBF80060FA20CAF80060C9F84A
:105830000050C8F800503D601D6001F06EF9474A05
:10584000CBF80060FA20CAF80060C9F80060C8F818
:1058500000503D60156001F060F9404BCBF80060EE
:10586000FA20CAF80060C9F80060C8F800603D601E
:105870001D6001F052F9394ACBF80060FA20CAF8ED
:105880000060C9F80060C8F800603E60156001F073
:1058900044F9324BCBF80060FA20CAF80060C9F82E
:1058A0000060C8F800603E601E6001F036F92B4AC7
:1058B000CBF80060FA20CAF80060C9F80060C8F8A8
:1058C00000603E60156001F028F9244BCBF80060C1
:1058D000FA20CAF80060C9F80060C8F800603D60AE
:1058E0001D6001F01AF91D4ACBF80060FA20CAF8D1
:1058F0000060C9F80060C8F800503D60156001F014
:105900000CF9164BCBF80060FA20CAF80060C9F811
:105910000050C8F800503D601D6001F0FEF80F4ACD
:10592000CBF80060FA20CAF80050C9F80050C8F857
:1059300000503D60156001F0F0F8084B2046CBF8B0
:105940000050CAF80050C9F80050C8F800503D6037
:105950001D600DB0BDE8F08F90812142AC812142E5
:10596000A88121429C81214298812142A08121422B
:10597000A4812142F0B5574C93B094F84C30002BE1
:1059800000F0A580B4F8D820002A52D1013B042BA6
:1059900048D8DFE803F003470E0813000020FDF7A6
:1059A00089F9042343E001200021FDF7C3F9032313
:1059B0003DE00120FDF77EF9022338E0464B1B78DD
:1059C000622B0DD1454B03F121025F2103F8011F2A
:1059D00093424FF0000103F8281CF6D121231BE06D
:1059E0005F2B1BD13D4BDA1D552103F8011F93425C
:1059F0004FF0000103F8281CF6D15F2384F8B6307D
:105A0000374BDA1DFF2103F8011F93424FF00001CD
:105A100003F8281CF6D10F23A4F8D8300023A4F8EB
:105A2000DA3006E000200121FDF784F9012384F833
:105A30004C30B4F8D830002B49D0FCF783FF064631
:105A4000142E44D9B4F8DA30E11891F8AF200133BC
:105A500091F88770A4F8DA30002302F0C0018029A1
:105A600001AD08D0C02903D041B94FF63A6107E033
:105A700040F2525104E04FF4E37101E04FF6AE21E1
:105A8000E95202339200082BD2B2E6D1002114224F
:105A900003A802F01BFD1348294608AA04238DF829
:105AA000167001F085FF08A9142203AB0220FCF751
:105AB000A5FAB4F8DA10B4F8D820143E9142B6B280
:105AC000044BBDD30022A3F8DA20A3F8D82013B0EA
:105AD000F0BD00BFD4510020840900208252002074
