:020000040800F2
:1000000000000120C5780008ED780008ED780008B0
:10001000ED780008ED780008ED7800080000000099
:10002000000000000000000000000000ED78000863
:10003000ED78000800000000ED780008ED78000879
:10004000ED780008ED780008ED780008ED780008FC
:10005000ED780008ED780008ED780008ED780008EC
:10006000ED780008ED780008ED780008ED780008DC
:10007000ED780008ED780008ED780008ED780008CC
:10008000ED780008ED780008ED780008ED780008BC
:10009000ED780008ED780008ED780008ED780008AC
:1000A000ED780008ED780008ED780008ED7800089C
:1000B000355F0008ED780008ED780008ED7800085D
:1000C000ED780008ED780008ED780008ED7800087C
:1000D000ED78000875060020ED780008ED7800083E
:1000E000ED780008ED780008ED78000800000000C9
:1000F0000000000000000000000000000000000000
:100100000000000000000000ED780008ED78000815
:10011000ED780008ED780008ED780008ED7800082B
:10012000ED780008ED780008ED780008ED7800081B
:10013000ED7800080000000000000000ED780008E5
:10014000ED780008ED780008ED780008ED780008FB
:10015000000000000000000000000000000000009F
:10016000000000000000000000000000000000008F
:10017000000000000000000000000000000000007F
:10018000000000000000000000000000000000006F
:10019000000000000000000000000000000000005F
:1001A000000000000000000000000000000000004F
:1001B000000000000000000000000000000000003F
:1001C000000000000000000000000000000000002F
:1001D000000000000000000000000000000000001F
:1001E0005FF8E0F108B50548054B1B1A062B00D84F
:1001F00008BD044B002BFBD09847F9E768090020A5
:100200006B0900200000000008B50748074B1B1AC7
:100210009B1003EBD373591000D108BD044A002A88
:10022000FBD09047F9E700BF68090020680900206B
:100230000000000010B5064C237843B9FFF7D2FF49
:10024000044B13B10448AFF300800123237010BDA9
:1002500068090020000000003CC8000808B5074BF2
:100260001BB107480749AFF300800748036813B183
:10027000064B03B19847BDE80840C5E70000000001
:100280003CC800086C090020640900200000000040
:10029000134B002B08BF114B9D46A3F5803A00215C
:1002A0008B460F461148124A121A08F0E3F80D4B1C
:1002B000002B00D098470C4B002B00D09847002013
:1002C000002104000D000B4808F06DF808F09CF8C0
:1002D0002000290000F010F808F06CF80000080079
:1002E000000001200000000000000000680900205C
:1002F000ECAE0020DD830008BD4E2DE98048B369D7
:1003000040F2712243F48043B361BA4BBBB09A60B0
:1003100042F22C02DA60B84B20225A60B74B99683F
:100320005A68914200F04A8619689A680139501C4F
:10033000B34D0A40986013441B7B95F80021DBB253
:100340002C4652B9E02B03BF2B70012385F80031F6
:1003500085F8002185F80121E0E7012A06D16B70BC
:1003600085F80131022385F80031D7E7501C95F854
:100370000111C0B28142AB5485F80001CED1AB78F7
:10038000182B00F0838425D8042B00F054830DD85B
:10039000012B4FF0000146D0C0F07081022B00F01D
:1003A0008B81032B00F0CD8200F0EDBD102B00F00F
:1003B000018407D8082B00F02B830A2B00F08A83D6
:1003C00000F0E1BD112B00F00D84132B00F01F8411
:1003D00000F0D9BD202B00F0278510D81C2B00F091
:1003E000ED8404D81A2B00F0888400F0CCBD1D2BBE
:1003F00000F0A6841E2B00F0F78400F0C4BD402B53
:1004000000F0868507D8302B00F03285312B00F0C4
:10041000498500F0B8BD502B00F09385902B00F07B
:10042000B58500F0B0BD8DF85230764BE020764AAD
:100430001B788DF850000D20C2F828138DF851005C
:100440008DF8531013B101218DF853106F490C78BA
:100450002CB19DF8531041F002018DF85310DFF8D4
:10046000E49199F8001029B19DF8531041F004016E
:100470008DF85310DFF8D08198F8001029B19DF85D
:10048000531041F008018DF85310614F397829B1AC
:100490009DF8531041F010018DF853105D4D2978EF
:1004A00029B19DF8531041F020018DF853105A499D
:1004B000B2F822C3097800208DF854105749B2F8D9
:1004C00024E30978A2F822038DF85510A2F824033A
:1004D000BCF1000F03D041F002018DF85510517DA1
:1004E0000020507529B19DF8551041F004018DF898
:1004F000551092F82910002082F8290029B19DF8A2
:10050000551041F008018DF8551092F82C232AB1AE
:100510009DF8552042F010028DF85520BEF1000FD5
:1005200005D09DF8552042F020028DF855203C4919
:100530009DF85520097800290CBF002140210A436D
:100540008DF8552043B1374802F018FB0D23B0FB5E
:10055000F3F08DF8560001E08DF85630E4B1324BDF
:100560001B786BB1314802F009FB2324B0FBF4F097
:100570008DF857002E4802F001FBB0FBF4F008E0C4
:100580000A232C488DF8573002F0F8FA2323B0FBE9
:10059000F3F08DF8580003E08DF857408DF858407F
:1005A00099F8003043B1244802F0E8FA7823B0FB10
:1005B000F3F08DF8590001E08DF8593098F80030CB
:1005C00043B11E4802F0DAFAD823B0FBF3F08DF8FD
:1005D0005A0001E08DF85A303B78BBB3184802F05E
:1005E000CDFA3023B0FBF3F08DF85B0030E000BFB4
:1005F000001002400038014000E100E0E807002060
:10060000FC490020DA000020E4210020E60100205F
:10061000E7010020E9010020B4090020B60900200C
:10062000B509002014250020E8010020448D002099
:10063000548D002054A9002060580020E85200206A
:100640005C4D0020D90000200C0100208DF85B30AB
:100650002B7843B1C64802F091FA4423B0FBF3F083
:100660008DF85C0001E08DF85C30C24B14A80D21C0
:100670009847C14B00221A6000F088BCE0238DF837
:10068000503001238DF853308DF852100023BB48B1
:10069000DAB2845C191DC9B2013324B13AA801440D
:1006A00001F8984CF3E7B34B14A88DF85110984714
:1006B000B14B1C6000F06ABC023A112A40F2A681DC
:1006C000EC786A79C4F30013322A85F8023129796B
:1006D00000F29C81AA4B01F0010A9B79C1F340080A
:1006E000062BC1F3800CC1F3C00EC1F30010C1F39F
:1006F000401109D9A3F16207012F1AD9A3F15B07B1
:10070000052F00F2838114E0012B04D1BAF1000F10
:1007100000F07C811FE0022B04D1B8F1000F00F043
:10072000758118E0032B04D1BCF1000F00F06E813D
:1007300011E0042B04D1BEF1000F00F067810AE044
:10074000052B03D1002800F0618104E0062B02D1C3
:10075000002900F05B81EE796D7ADFF824920F2D8D
:10076000019600F2538199F808B099F80C60CDF821
:1007700008B099F80DB00396CDF810B099F80FB005
:1007800099F80E60CDF818B099F811B00596CDF82B
:100790001CB099F813B099F81060CDF824B0DFF8C8
:1007A00030B200968BF80030764B99F8126083F8DF
:1007B00000A0754B99F80A7083F80080734BDFF83E
:1007C000148283F800C0724B089683F800E0714BE6
:1007D000DFF804E21870704B70481970704BE143F9
:1007E000C1F3C011197002EB4203590001F5967173
:1007F000A0F8A012980000F51670AEF87405A8F8DD
:10080000F0040C204243674802F51672C0F8F02449
:10081000654A5B08A2F88815554A4833284699F876
:100820001490A2F83C3202F03BFB604B099983F82C
:100830004357A3F844775E4B5E4A1F805E4B019E90
:1008400083F8775B5D4B157083F84C55C4F3C00398
:1008500088F8F2344FF496634B43C8F8F434584B9D
:10086000C4F38002029FDDF80CB083F80423F20188
:10087000059EF9014FEACB10DDF818B0F701A3F897
:100880000813089E04994FEACB1EDDF81CB0CD0179
:10089000F101009E0BF5F06CA3F816C306F5F06CA1
:1008A000E607A3F8062348BF52424FEAC91948BFDA
:1008B000A3F80623A207A3F80A03A3F80C53A3F88E
:1008C0000E73A3F810E3A3F81213A3F81493A3F87C
:1008D00018C313D540426D427F42CEF1000E49420B
:1008E000C9F10009A3F80A03A3F80C53A3F80E7387
:1008F000A3F810E3A3F81213A3F8149319780029AE
:1009000040F099802F4F4FF4C042FB692E4843F0CE
:100910000103FB614FF080439A607C2299624FF0A3
:100920008054DA620122DA600460186810431860AB
:10093000264B196043F8042C214B1A7001F00CFD72
:1009400079E0032862D0224BE8781B78834272D08A
:10095000062808D9A0F16203012B47D9A0F15B0357
:10096000052B53D842E0012838D1064B49E000BF9F
:10097000104B0020ED01002018002742CB8D00080D
:10098000FC490020DA000020E6010020D900002008
:100990000C010020E7010020E901002014250020BF
:1009A000E801002054A900205C4D00205C5D00207F
:1009B000F4720020F372002064920020941C002046
:1009C000E42100200010024000E100E09481214277
:1009D000B409002060580020E8520020022801D10C
:1009E000934B0EE0032801D1924B0AE0042801D179
:1009F000914B06E0052801D1904B02E0062802D178
:100A00008F4B1B7813B104F099FB14E00420BBE278
:100A10008C4B1B78632B16D1042855D1ED788A4C6A
:100A20006F1E7D427D41237845B11BB987486380A5
:100A300006F0CCFA257003F0DFF9A7E2002BF9D01D
:100A400006F0AEFAF6E7622B05D0A3F15E02012AAA
:100A500001D95C2B15D104280FD1EC787C4A661E95
:100A60007442744114706CB1547844B903F0FD01C0
:100A70005C2907D10121517004E0042402E0002424
:100A800000E002245D2B0AD195F80131042B1BD123
:100A9000704BDA78704B501E424242410BE05B2BA8
:100AA00014D195F80131042B0ED16A4BDA786B4BD7
:100AB000511E4A424A411A70002ABCD05A78002A74
:100AC000B9D101225A70B6E7042401E0002CB2D05B
:100AD0006348A7E15B4B1D78002D68D1614C023A59
:100AE0005FFA82F8204629464FF47A7207F0C2FC7A
:100AF0000820A4F8E803A4F8EA5384F8EC53274646
:100B0000EBB2434547D200235FFA83FC0C2101FB83
:100B10000CF1554A02EB010E515CC1B3DFF858915C
:100B2000013315F809908945EED19EF808A00346D7
:100B30004FF00041C0EB030E5FFA8EFED64527D280
:100B40004FF00C0E0EFB0C2EDEF804E0DFF838B18F
:100B500001EA0E0E8E4503F007094FEAE30E1BF87B
:100B600009B017F80E900CBF4BEA090929EA0B09E6
:100B700007F80E9040F2E23E734504D90023A4F832
:100B8000E833042414E0013349089BB2D2E703465A
:100B900001351846B4E70828F0D00530314B81B252
:100BA000A3F8E813314809B206F0C4F9EEE10524D0
:100BB0002F4837E12F4B1B788BB1224B1D78012D2D
:100BC0000DD82C2818BF04240AD12B4806F0FEF9B2
:100BD000044628B9002D40F0D9810120ABE1022460
:100BE0002648FCE0234B1B7873B1164B1D78012D72
:100BF0000AD80F2818BF042407D11F4806F006FAA8
:100C000004460028E6D000E002241D48E7E0194B26
:100C10001B784BB10B4B1D78012D05D806F0C0F9A0
:100C200004460028D6D000E002241648D7E000BFD2
:100C3000E6010020D90000200C010020E70100207F
:100C4000E9010020B409002050A900208C88000888
:100C500024A90020FC49002020A90020308E00207B
:100C6000238C0008348E002030890008458C000851
:100C7000618C0008DA000020FF490020748C000815
:100C8000938C0008B08C000805890008914B1B78F4
:100C900083B3914B1F7817F0FD0F2BD18F4B1B782F
:100CA00043B3252918BF042425D18D4801F066FFE0
:100CB000202841F244818A4B93F8E8202AB100228F
:100CC0001A8183F8E8205A811A730025DFF8108210
:100CD000631940461979013501F024FE212DF5D123
:100CE000804B1B78002B41F02581012388F84C3084
:100CF00001F020B902247C4894E0764B1B78E3B1E4
:100D0000754D2B7813F0FD0F17D1744B1B782BB159
:100D1000911EC9B2754805F00BFD06E0252818BFE5
:100D200004240BD1714802F02FFD044630B92B7812
:100D3000002B40F02B810220FDE002246A484EE0A7
:100D4000644B1B78002B01F02980042841F0288097
:100D5000EB78012B17D1604A1278022A41F02080EB
:100D6000604A1178002940F011815D4A82F84C30C8
:100D7000C2F8DC10C2F8E010C2F8E41082F8E81003
:100D800082F8E91002E1002B41F00A80524A127801
:100D9000022A41F00780534A1278002A00F0F680B8
:100DA0004F4A82F84C30C2F8DC30C2F8E030C2F86A
:100DB000E43082F8E83082F8E930E7E0454B1B7810
:100DC0005BB10C2818BF042408D1484801F066F92B
:100DD0000446002800F0DA8000E00224444821B2F2
:100DE00006F0A8F82046CFE03A4B1B78A3B10428C0
:100DF00014D1EB780022012B08D0022B10D1384BF4
:100E0000C3F8E420012283F8E920BFE03449C1F8A7
:100E1000E02081F8E830B9E0022402E0042400E098
:100E2000044634482146DBE7334B1B78DBB12A4BC1
:100E30001F780FB1032F16D17C2818BF042415D1B9
:100E40002E4801F09BFE77280FD9002563192B4807
:100E50001979013501F066FD782DF7D1002F40F0AA
:100E60009580032067E0022400E005242448D9E7A8
:100E7000244B1B788BB1184B1D7815F0FB0F0CD150
:100E8000023AD1B212290AD9184801F099FE044653
:100E900030B9002D7AD104204DE0022400E0042472
:100EA00019489CE7174B1B787BB10B4B1D7815F04D
:100EB000FB0F0AD1023AD1B2122908D90B4801F02E
:100EC0007FFE04460028E4D002E0022400E004246F
:100ED0000E4884E7E6010020B4090020E801002064
:100EE000448D0020B6090020CC8C0008FF4900206A
:100EF000E68C0008048D0008D9000020605800200E
:100F00001F8D00080C010020438D00085F8D000834
:100F1000224B1B7893B1224B1D780DB1052D0DD1BD
:100F2000342818BF04240AD11E4801F069FE044683
:100F300028B95DBB052004F001F927E002241A4816
:100F40004DE71A4B1B78CBB1154B1F780FB1062F0D
:100F500014D1472818BF042413D1154801F00EFE00
:100F600043280DD9002563191148D978013501F0BE
:100F7000D9FC442DF7D14FB90620DCE7022400E06C
:100F800005240C484EE7012002F0AAFF0A4B00227C
:100F900083F8002183F80121FFF7C0B9E7010020A1
:100FA000B4090020FF490020788D0008E9010020E5
:100FB000104B0020938D0008FC4900209A4C4BF602
:100FC0007F33D4F8282327469A4205D9974B00222D
:100FD00083F8002183F80121D4F81C132278013111
:100FE000914BC4F81C13002A00F02483D3F8282363
:100FF0004BF67F339A421ED98D490B785A1E052A2B
:1010000016D8022B10D18B4B1B786BB18A4B002268
:1010100083F84C20C3F8DC20C3F8E020C3F8E420B8
:1010200083F8E82083F8E92000230B7001F094F99D
:101030000023C4F82833D4F81C2345F6BF518A4254
:10104000794B0AD90022C3F81C2393F8202382F09D
:10105000010283F82023794B1A60794801F059FB8B
:1010600020B9744B1A78002A40F0A086754801F028
:1010700050FB012840F2EB82002514AC0AAA2A4456
:101080007048214601F0F8FABA8EFB8E92B29BB2FC
:101090009A424FEA450303D1634A92F83820A2B13D
:1010A000F98E3A6B89B232F811100CAAD152002293
:1010B00087F83820F98EB88D013189B2F986F98E1A
:1010C00089B2884201D85849CA8697F821235AB173
:1010D000BDF850201AB140F6FF718A4204D1B7F82A
:1010E00022230132A7F82223BDF85010B7F81623A7
:1010F00001358A1AB7F9061312B24A430DF12C09C9
:10110000022D4FEAE232DFF8208102F30F0229F8C4
:101110000320B2D198F82CA3BAF1000F40F09782C7
:10112000484610A92A4606F0E3FB12AA2B4608F10E
:101130003C0010A907F004F8129A139B134493FB88
:10114000F5F3BDF82C201B1403F30F039BB2D21A46
:10115000ADF83420BDF82E20D31AADF83630344B1C
:101160001B78002B4CD1384B1B7853B108F1680029
:101170000DA922462B4606F0D9FD20460CA903F006
:10118000FDFB324B1B784BB131480DA9224602239F
:1011900006F0CCFD20460CA904F0C0F82D4B1B78BE
:1011A0007BB12D480DA90EAA022306F0BFFD2B48E6
:1011B0000EA92246022306F0B9FD20460CA904F030
:1011C000E9FC274D274F2B781BB93B78002B00F00B
:1011D0003E82022324484946224606F0A7FD3B787A
:1011E0001BB120460CA904F0D9FA2B78002B00F093
:1011F0002E821E4B20461B78002B00F0B780B1E0FA
:10120000012B35D1104B1B78002B00F0208208F108
:1012100068000DA922462B4606F088FD20460CA941
:1012200003F0ACFB13E200BFE4210020FC490020E6
:10123000B4090020B6090020448D0020908121428D
:10124000FC210020E8210020DA0000200C01002011
:1012500058220020E7010020642200207022002094
:10126000E6010020D900002040220020E8010020F3
:10127000022B7FD1744B1B78002B00F0E8812B46AA
:1012800008F15C004946224606F050FD6F4B1B7882
:10129000002B6AD06E4B1B78002B62D00DF1270714
:1012A000554617F8012F6B4B042ADFF8C4810DD087
:1012B000082A16D10022A3F82227A3F82A27A3F888
:1012C0002027C3F82C2783F841270AE0624900222F
:1012D0000A8021F8022C03F5AC51A8F800200A601E
:1012E0004A75B3F82AE70DF1300A0EF1010E1FFA24
:1012F0008EFEA3F82AE7B3F84437615B734535F8EF
:101300000A20544807D990F8469719F1000918BFE8
:101310004FF0010903E009B202F0CCFE8146B8F8B3
:1013200000004E4B0130B3F800E080B28645615BAF
:101330003AF80520A8F8000004D99878003018BFC2
:10134000012004E0A3F2447009B202F0B3FE0235BA
:10135000042DA6D1B9F1000F18BF012000F092FEB4
:1013600075E1204605F07CFC71E120460CA903F0F4
:1013700051F86CE1032B10D1394B1B78002B00F096
:10138000668108F15C000DA922462B4606F0CEFCD2
:1013900020460CA904F002FA59E1042B10D1314B7C
:1013A0001B78002B00F0538108F174000DA9224630
:1013B0002B4606F0BBFC20460CA903F0AFFF46E12C
:1013C000052B17D1284B1B78002B00F0408108F12A
:1013D00080000DA90EAA2B4606F0A8FC08F18C008F
:1013E0000EA922462B4606F0A1FC20460CA904F0CB
:1013F000D1FB2CE1632B40F0C8800EAF08F16800F0
:1014000049463A462B4606F091FCD046174D37F830
:1014100008002B79C10B8B42A94609D02B68B3F584
:10142000004F2ABF6FF4CC7203F299139B182B6004
:10143000D5F800E00D4B0EF54C523332B2F5803F3B
:10144000297117D21A6099E0E6010020E801002016
:10145000B60900205C5D0020D2720020F4720020EA
:10146000D90000200C010020E70100202492002078
:10147000DA720020AEF54C42CD3A1A609A685200FA
:1014800009B142F001029A6095F83C20531CDBB28E
:1014900009EB4202172B85F83C30908103D9764B3B
:1014A000002283F83C20A86820F07F43734858400E
:1014B00001F0BEFB02282DD800214FF47A534CF2E4
:1014C000801209EB0100B0F90C0012B21BB202311C
:1014D0008242B8BF02468342A8BF0346302992B277
:1014E0009BB2EED110B219B2C1EB000EBEF1050FE6
:1014F00010DD00124FF0000E8DF851000912204649
:101500008DF850E08DF852208DF853108DF854303E
:1015100002F0C0FCAB685A4823F07F43584001F00A
:1015200087FB02282AD800214FF47A534CF280120C
:1015300009EB0100B0F90C0012B21BB20231824279
:10154000B8BF02468342A8BF0346302992B29BB27D
:10155000EED110B219B2451A052D0FDD001280250B
:101560008DF85100091220468DF850508DF8522008
:101570008DF853108DF8543002F08CFC08F10208FD
:10158000B8F1040F7FF442AF61E0602B5FD1002718
:101590000CABFA5A3B4B3B4D58895968904218891D
:1015A00038BF5A81904288BF3648114488BF0281B3
:1015B0001A68596001321A6045F6BF539A4235D90C
:1015C000B1FBF2F368892A89E0214FEA122CC3F3B8
:1015D000072E4FEA10288DF839008DF83D308DF830
:1015E00050108DF8540009218DF858302046264BB4
:1015F0008DF83B208DF856208DF838808DF83AC054
:101600008DF83CE08DF852108DF853808DF855C060
:101610008DF857E08DF8511098471C4A002313604D
:101620004FF6FF722B606B602A816B810237042FAB
:10163000AED10CE01648814209D9C3F81C2393F8B7
:10164000202382F0010283F82023124B1A60124BF0
:10165000124D1B7823B12B78012B01D102F06AF9CE
:101660000F4B1B7813B32B78022B1FD10D4B1B781C
:10167000D3B105F019F919E02492002068B4AA004A
:10168000974B5500504D0020ED01002018002742D7
:101690007FA9030090812142DA000020B4090020D4
:1016A000E6010020E801002005F052FABC4B1B784F
:1016B000002B67D02B78032B64D1BA4F384601F04A
:1016C00052F93C4630B9B7F8EC341BB9D7F8F834C6
:1016D000002B57D0B7F8EC34DFF8C8822BB940465E
:1016E00001F041F9002840F0A783B7F8EC34002B53
:1016F00000F07A8302F0F8F80746142F42D9B4F8C4
:10170000EE345A1CA4F8EE24234494F8F22493F8FF
:101710003C00002300F0C00EBEF1800F12A900F0C3
:101720005483BEF1C00F40F04883002A40F2657E2A
:1017300018BF4FF46D7E21F803E002338000082BC0
:10174000C0B2E7D1984814AA042306F005F9002393
:10175000032014A9142202F02FF8944B143F1B7895
:10176000BFB21BB1D4F8F434C4F8F834B4F8EE14B2
:10177000B4F8EC248B4B9142BFD30022A3F8EE24A3
:10178000A3F8EC248A4B1B7823B12B78042B01D1CE
:1017900004F0FEFF874B1B7823B12B78052B01D17A
:1017A00005F03CF9844B1B78B3B12B78834C062BA6
:1017B00006D0B4F838321BB9204601F0D4F858B13D
:1017C0007E4F384601F0CFF8002840F06583B7F827
:1017D0003832002B40F060832B78632B40F02C8153
:1017E000774C02F0A7F82378002B00F0258175488C
:1017F00001F0C4F90D23B0FBF3F0C3B2042B40F2A7
:101800001B810023704A14A89A5C1A5401330C2BD4
:10181000F8D162881523B2FBF3F103FB11239BB2CD
:10182000002B00F0FE80012A04D130238DF85930BE
:10183000022305E0022A07D134238DF859301923F9
:101840008DF85A30DE23EAE0032A04D131238DF8E3
:1018500059306F23F4E7042A07D11F238DF859303C
:101860002B238DF85A30F623D9E0052A04D13223F0
:101870008DF8593022230FE0062A07D124238DF852
:1018800059302A238DF85A30E023C8E0072A07D1BF
:1018900033238DF859303B238DF85A30B323BEE003
:1018A000082A77D0012B07D125238DF859304F23F3
:1018B0008DF85A309323B2E0022B07D170238DF8B4
:1018C00059300B238DF85A30DA23A8E0032B01D1CD
:1018D000252310E0042B04D133238DF859301B232A
:1018E000DAE7052B04D125238DF859306F2341E029
:1018F000062B04D139238DF859301D236FE0072BB7
:1019000007D125238DF859300C238DF85A30C72381
:1019100085E0082B04D150238DF859306F2308E05F
:10192000092A00F00F83092B07D125238DF85930A0
:101930001E238DF85A30D02371E00A2A00F0058367
:101940000A2B07D121238DF859300C238DF85A30FA
:10195000C22364E00B2A00F0FB820B2B01D125236C
:1019600019E00C2A00F0F7820C2B07D13D238DF8EB
:10197000593002238DF85A30D72350E00D2A00F059
:10198000ED820D2B01D1252357E70E2A00F0E982C5
:101990000E2B1BD150238DF859306F237CE700BFED
:1019A000D90000206058002070580020E801002075
:1019B0000C010020E7010020E9010020104B00206D
:1019C00050A9002014250020D78800080F2A00F015
:1019D000DF820F2B07D125238DF859301B238DF87B
:1019E0005A30D6231BE0102A0BD0102B07D123230B
:1019F0008DF859301B238DF85A303A230FE0112A05
:101A000006D0112B04D121238DF85930252303E072
:101A100016238DF8593029238DF85A30F5238DF887
:101A20005B3005F0F3FA628840F276230132B2FBB4
:101A3000F3F103FB112363802B78622B07D05F2B1C
:101A400005D05E2B10D05C2B40F0ED809AE0BD4BB2
:101A50001A78BD4B2AB1052283F84C2004F024FFEC
:101A6000E1E083F84C20DEE004F01EFFB74801F00F
:101A700085F82323B0FBF3F010F0FF0F00F0D380C4
:101A8000B04C6378013B032B00F2C680DFE803F023
:101A9000021C545E012001F003FAAD4800F0FEFA8A
:101AA000AC48222104F044FEA74B012283F84C20CD
:101AB0000022C3F8DC20C3F8E020C3F8E42083F858
:101AC000E82083F8E92073E094F82A20A249C2EBC9
:101AD000C2028B185878895CE0759878A27D2076D0
:101AE000D878984F6076187901F00F01A076587970
:101AF0009B79E076207F22F00F0200F00F0023F0A8
:101B00000F0303430A4307F1080022212377A2753C
:101B100004F00EFE94F82A30052B09D1002387F833
:101B20002A303B78002B7ED1864B03225A707AE014
:101B3000013387F82A3076E08848222104F0F8FD46
:101B4000814BD3F8DC306360042366E07E4A606832
:101B5000D2F8DC301E3083427A4964D900231383E3
:101B600082F84C305383C2F8DC30C2F8E030C2F85F
:101B7000E43082F8E83082F8E930137781F82A30CF
:101B80004B7050E004F0E4FF754800F0F7FF2323AA
:101B9000B0FBF3F010F0FF0F45D06A4C6378022BD6
:101BA00008D0032B35D0012B39D16E4801F0ECFD64
:101BB000022332E094F82A206B49C2EBC2028B1850
:101BC0005878895CE0759878A27D2076D87801F005
:101BD0000F016076187922F00F02A07658799B7970
:101BE000E076207F23F00F0300F00F0003430A4349
:101BF00004F108002377A27501F0C6FD94F82A309D
:101C0000052B04D1002384F82A3023788AE7013396
:101C100007E0564801F0B8FD0023637003E000239D
:101C2000637084F82A302B785D2B21D104F0B0FD4D
:101C30004F4800F0A3FFD823B0FBF3F010F0FF0FE4
:101C400016D04C4C6378012B02D0022B06D00DE04D
:101C50004948D92100F0B4FF022308E04748D921C0
:101C600000F0AEFF237813B1012300E0002363707E
:101C70002B785B2B21D104F0D1FE414800F07EFF90
:101C80003023B0FBF3F010F0FF0F16D03D4C63781B
:101C9000012B0FD13C4BA278312000FB023000F029
:101CA000AFFFA378013303F00303A370237823B9B4
:101CB000637002E000236370A3702B78002B7EF426
:101CC0002DAB324CB4F8E833002B3EF427AB01F0D7
:101CD0000BFE0546182D7EF621ABB4F8EA332C49ED
:101CE00003F00702DB108A5CE35C6120134003D041
:101CF00028491822002301E02749182201F05CFD41
:101D000094F8EC23183D0132D2B2312AADB21F4B08
:101D100084F8EC2307D9B3F8EA230132A3F8EA23C5
:101D2000002283F8EC23B4F8EA13B4F8E823174B45
:101D30009142CFD30022A3F8EA23A3F8E823FEF7C9
:101D4000EDBA00BF24A90020448D0020548D00204E
:101D50001A8C0008E3880008628800080D890008D2
:101D600054A90020B588000838880008348B000882
:101D7000E852002020A90020000000200D010020D2
:101D80005C4D0020308E0020568B0008348E0020E1
:101D900005890008DC00002084090020022402E0FC
:101DA000042400E004467C48FFF73CB8187094F81F
:101DB00004237A4B1A60FFF759B9BEF1000F0BD11B
:101DC0004FF6C46E4FF6895C0AE0002A40F2772E87
:101DD00018BF4FF49E7EAEE44FF64C4E4FF69B0C70
:101DE000002A08BFE646A6E46D4BD3F8F834002B72
:101DF0003FF4C8AC01F078FD0746142F7FF6C2AC63
:101E00004FF00008674812A914AA0423CDF84880AF
:101E1000CDF84C8005F0A0FD4346032014A9142200
:101E200001F0CAFCD4F8F834143F013BBFB2C4F847
:101E3000F834002BE1D1A5E45B4B1B78ABB14FF03C
:101E40007808574800F05AFDB4F8EC3408F1FF3830
:101E50005A1C18F0FF082344A4F8EC2483F83C0033
:101E6000EFD10023A7F8EE343FE4B8F8F014B8F847
:101E7000EC2498B200EB020E88421FFA8EFE07D2C5
:101E800004EB0E004FF0770E80F83CE00133F0E7F2
:101E90000A44A7F8EC24E4E7B4F838322BBB424BF1
:101EA0001B788BB9414AB2F83C2299B2914205D2D3
:101EB0002144AA2081F870010133F6E7A4F8382202
:101EC0000023A4F83A3210E04427384800F016FD09
:101ED000B4F83832013F5A1C17F0FF072344A4F826
:101EE000382283F87001F0D1EAE7B4F83832002BD9
:101EF0003FF472AC01F0F8FC0746A02F7FF66CAC03
:101F0000B4F83A32A03F5A1C234493F87001A4F865
:101F10003A2201F0B1FCB4F83A22B4F83832DFF8D2
:101F20008C809A42BFB2E8D30023A8F83A32A8F8CE
:101F3000383251E4002F7FF429A8FEF7FCBE0524B7
:101F4000FEF7D9BE0A2B0FD1FCE40B2B10D106E50E
:101F50000C2B11D10AE50D2B12D114E50E2B13D148
:101F600018E50F2B14D136E50B2B7FF4FDACF6E40E
:101F70000C2B7FF406ADF9E40D2B7FF409AD02E5DF
:101F80000E2B7FF426AD05E50F2B7FF42EAD22E559
:101F9000102B7FF436AD2AE5B08D0008B0812142C8
:101FA0006058002070580020B6090020104B002017
:101FB0002DE9F04703F1020CBDF920A00133BDF972
:101FC00024901FFA8CFC9BB20027BCB2ACF1020635
:101FD0008C42B6B24FD2294CF51004EB4004B4F851
:101FE0001680C9F10004CAEB08080FFA88F8A0456A
:101FF00006F00706224C07DA14F80680565D26EA3A
:1020000008065655DD101DE0B8F1000F07DA14F888
:102010000680565D26EA08065655DD1009E0C845DB
:10202000A65D12F8058048EA060656554FEAE30514
:1020300008DA03F00706A65D2C46555D25EA06057D
:10204000155506E003F00708565D14F808403443C0
:10205000545500F10A04A4B2B4F5F06F24BFA0F205
:10206000767084B20CF1020C023301371FFA8CFC3B
:102070009BB22046A9E7BDE8F08700BFB809002061
:10208000A6AE0008034B1A7882421CBF024A1060B9
:1020900018707047B50900209481214270B5002165
:1020A00006460C22134806F0E5F90023124A134CA9
:1020B0009D5CD91003F00702715CA25C11424FEAEB
:1020C000E5020F4905F0070505D08818645D90F812
:1020D0007B00044305E08818645D90F87B0020EAEB
:1020E000040401330A44442B82F87B40DED10020F3
:1020F00070BD00BFBF8D002048AE0008AEAE000826
:10210000448D0020194B002241F2DA215A5241F24B
:10211000D8215A5241F2E8215A50632041F2343119
:10212000585442F20F7141F2DC20195241F2DE2084
:10213000195203F59750018041F2E220195241F201
:10214000E420195241F210315A5241F232315A52BE
:1021500041F2EC215A5241F2EE215A5441F2383107
:102160005A5041F23C311A705A527047047A00209A
:102170002DE9F04703F1020CBDF920A00133BDF9B0
:1021800024901FFA8CFC9BB20027BCB2ACF1020673
:102190008C42B6B24FD2294C00F10C0534F81580B0
:1021A000C9F10004CAEB08080FFA88F8A0454FEA05
:1021B000E605234C06F0070607DA14F80680565D9C
:1021C00026EA08065655DD101DE0B8F1000F07DAC3
:1021D00014F80680565D26EA08065655DD1009E01B
:1021E000C845A65D12F8058048EA060656554FEA2E
:1021F000E30508DA03F00706A65D2C46555D25EADF
:102200000605155506E003F00708565D14F808406A
:1022100034435455441DA4B2B4F5166F24BFA0F640
:102220005B1084B20CF1020C023301371FFA8CFCF4
:102230009BB22046A9E7BDE8F08700BF047A0020E2
:102240002F8E0008064B00221A601A715A719A608C
:102250001A675A67C3F85823A3F85C23704700BF76
:1022600034190020094B0022A3F8582BC3F8602B27
:1022700083F8752B83F8762B83F8782BA3F85A2BE9
:1022800042F20F72A3F85C2B704700BF64920020EB
:102290002DE9F0439E1CB6B2013306EB4101BDF9B6
:1022A0001C90BDF920809BB289B2B71E8E42BFB28E
:1022B0004BD0274CFD1004EB4004B4F814C0C8F117
:1022C0000004C9EB0C0C0FFA8CFCA44507F00707BF
:1022D000204C07DA14F807C0575D27EA0C0757555A
:1022E000DD101DE0BCF1000F07DA14F807C0575DE0
:1022F00027EA0C075755DD1009E0C445E75D12F8E1
:1023000005C04CEA070757554FEAE30508DA03F022
:102310000707E75D2C46555D25EA0705155506E0DC
:1023200003F0070C575D14F80C403C435455441D12
:10233000A4B2B4F5B46F24BFA0F29B5084B20236AD
:102340000233B6B29BB22046AFE7BDE8F08300BFD0
:10235000649200209EAE0008114B1B785A1E514219
:102360005141104A981E116041424141B3F1030CA2
:1023700042F8041CDCF1000151EB0C01181F516004
:1023800041424141B3F1050C9160DCF1000151EB98
:102390000C01D160991F4B424B411361704700BF44
:1023A000B40900209C8121421E4B002242F2DA1126
:1023B0005A5242F2D8115A5242F2EC115A5063204A
:1023C00042F23821585442F20F7142F2DC10195295
:1023D00042F2DE10195242F2E010195242F2E610B7
:1023E000195242F2E810195242F2E210195242F226
:1023F000E410195242F214215A5242F236215A5232
:1024000042F2F0115A5242F2F2115A5442F23C2175
:102410005A5003F509510A8042F242211A705A5467
:10242000704700BFB8270020084B0022A3F83E25C4
:10243000A3F83C25C3F84425A3F84A25A3F848256A
:1024400042F20F72A3F84025704700BF941C002091
:102450002DE9F04703F1020CBDF920900133BDF9DD
:1024600024801FFA8CFC9BB20027BCB2ACF10206A0
:102470008C42B6B250D2294C00F10C0534F815A0AC
:10248000C8F10004C9EB0A0A0FFA8AFAA2454FEA1A
:10249000E605234C06F0070607DA14F806A0565D99
:1024A00026EA0A065655DD101DE0BAF1000F07DADC
:1024B00014F806A0565D26EA0A065655DD1009E016
:1024C000C245A65D12F805A04AEA060656554FEA2F
:1024D000E30508DA03F00706A65D2C46555D25EAFC
:1024E0000605155506E003F0070A565D14F80A4084
:1024F00034435455441DA4B2B4F5875F03D3A0F50B
:1025000086501B3884B20CF1020C023301371FFADB
:102510008CFC9BB22046A8E7BDE8F087B8270020D6
:1025200096AE00082DE9F0439E1CB6B2013306EBCF
:102530004101BDF91C90BDF920809BB289B2B71E44
:102540008E42BFB24BD0274CFD1004EB4004B4F8D0
:1025500014C0C8F10004C9EB0C0C0FFA8CFCA445A4
:1025600007F00707204C07DA14F807C0575D27EA81
:102570000C075755DD101DE0BCF1000F07DA14F809
:1025800007C0575D27EA0C075755DD1009E0C44521
:10259000E75D12F805C04CEA070757554FEAE30517
:1025A00008DA03F00707E75D2C46555D25EA0705C5
:1025B000155506E003F0070C575D14F80C403C433A
:1025C0005455441DA4B2B4F5257F24BFA0F28F203A
:1025D00084B202360233B6B29BB22046AFE7BDE802
:1025E000F08300BF941C002038AE000870B50D7B4E
:1025F0004C7B087DC97CAD0045EA94158900A40098
:1026000024F03F0401F03C01214341EA9011C9B29A
:10261000EDB2C900C0F3C20001EBC5210144B1F520
:10262000006F084610D34FF4802420F4FF6525F096
:1026300007054DB1044201D16408FBE7E50A40F605
:10264000754675436840F0E7064C54F8200000B129
:102650004140C1F3C721080901F00F011070197042
:1026600070BD00BF388E0008024B9A685B689A42C2
:10267000FAD17047DC06002010B503468489C08972
:10268000A4B280B2844204D11C7C04F0FF0004B9DF
:1026900010BDDC895868A4B230F814000880D889CD
:1026A000996880B2095C117000221A74D98918885F
:1026B000013189B2D981D98989B2884200D8DA81B9
:1026C000012010BD037C30B503F0FF041BB10123D2
:1026D0004374002030BD85894368ADB223F81510DE
:1026E0008189836889B25A548389028801339BB2F5
:1026F000838183899BB29A4298BF84818289C389EE
:1027000092B29BB29A424FF0010308BF037418467D
:1027100030BDC289838992B29BB29A4207D1037CB1
:1027200003F0FF020BB10088704710467047C28962
:10273000838992B29BB29A4203D28289C389D01A0A
:1027400005E0C3898189028889B28818C01A80B2DD
:10275000704700002DE9F047BDF8204002EB8202EF
:1027600004F1020C0A440134BDF924A0BDF92890FB
:102770001FFA8CFCA4B292B2ACF102079142BFB234
:1027800046D001F10C0530F81580C9F10005CAEBFF
:1027900008080FFA88F8A8454FEAE7061D4D07F02C
:1027A000070707DA15F807809F5D27EA08079F5596
:1027B000E6101DE0B8F1000F07DA15F807809F5DFD
:1027C00027EA08079F55E61009E0C845EF5D13F8B2
:1027D000068048EA07079F554FEAE40608DA04F046
:1027E0000707EF5D35469E5D26EA07065E5506E063
:1027F00004F007089F5D15F808503D439D550531CD
:102800000CF1020C023489B21FFA8CFCA4B2B3E7BB
:10281000BDE8F08740AE0008024610B5002302F87C
:10282000041B0021D1500433142BFAD100F11804F9
:10283000002363520231B1F5E16FF9D142F20F7119
:10284000A0F82037A0F82237A0F82437A0F82637C0
:10285000A0F82817A0F82A37C0F82C37A0F830378E
:10286000A0F83237A0F83437A0F83637A0F8383758
:10287000A0F83A37A0F83C37A0F83E3780F8403748
:1028800080F8413780F8423780F84337A0F8443762
:1028900080F8463780F8473780F8483700F24A72A8
:1028A0000021D1520233B3F5E16FF9D110BD0729F0
:1028B00088BF08394FEA81014FF00F0303FA01F393
:1028C00002FA01F110B588BF0430046824EA03035A
:1028D0001943016010BD10F1FF3001D300BFFAE7CA
:1028E0007047002310B503810446438101800373C0
:1028F000084605F03BFD6060204610BD10B54189DB
:10290000426889B20346505C00221A7359891C88B8
:10291000013189B259815989C0B289B28C4298BFBC
:102920005A8110BD037B10B503F0FF02BBB90489C7
:102930004368A4B219550389018801339BB203810E
:1029400003899BB2994298BF02810289438992B25E
:102950009BB29A424FF0010303D1037301E00020C0
:1029600010BD184610BD4289038992B29BB29A42AB
:1029700007D1037B03F0FF020BB1008870471046BC
:1029800070474289038992B29BB29A4203D202896C
:102990004389D01A05E043890189028889B28818E1
:1029A000C01A80B270470000F8B51D4C054604EB14
:1029B00000163046FFF7D7FF20281ED9D4F8DC30A8
:1029C000132B1AD905F1380354F82330052B14D9E9
:1029D00004F1AE0504F1CF073046FFF78FFF05F88D
:1029E000010F0023BD4205F8283CF5D12123A4F8AE
:1029F000D8300023A4F8DA30F8BD0023254485F848
:102A0000E830084B03F1210213F8011F83F862102C
:102A100093424FF0000183F83A10F5D1E6E700BF8A
:102A2000448D0020908D00202DE9F0414F4C8046D0
:102A3000D4F8DC300F460133C4F8DC30D4F8E03091
:102A40004A4E0133C4F8E030D4F8E4300133C4F81E
:102A5000E43094F86E300B2B84BF002384F86E3082
:102A600094F86E30BBB93046FFF77DFF06F16F0575
:102A700048B906F11000FFF776FF20B93C4A136809
:102A8000C6F86F3003E03B4A1368C4F86F305368F0
:102A90006B609368AB6094F86E20374B68322244C9
:102AA00032F8071F012F198092784FF000009A70BA
:102AB00014BF0422082284F88920D4F8DC2084F88A
:102AC0008700132A84F88800A3F1AF0306D903EB2B
:102AD0000710FFF748FF003018BF0120B8F10103CD
:102AE000D3F1000858EB030894F86E302BB1B3F122
:102AF000090218BF0122012101E01946012294F8C0
:102B0000AF7080EA080547EAC010002981EA08068C
:102B100040EAC80894F8B0000CBF0027802738436B
:102B200040EAC2008D4214BF02210021014394F803
:102B3000B10084F8B010964214BF20210021014357
:102B4000954214BF0225002541EA050284F8B12010
:102B500003330322A4F8D82084F8AF80002284F83D
:102B60006E30A4F8DA20BDE8F08100BF448D00206B
:102B700008C80008BF8D0020F38D0020428903891A
:102B800092B29BB29A42038803D1027B92B9184653
:102B900012E04189028989B292B2914205D202893A
:102BA000408980B21844801A02E041890289881A5B
:102BB00080B201E000207047834238BF0020704798
:102BC00070B506460D480D46FFF7D8FFA84212D350
:102BD000013D0A48E9B2FFF7A5FE0024E3B2AB428B
:102BE00004F1010405D2334459780448FFF79AFEF2
:102BF000F4E7002070BD052070BD00BFE852002042
:102C000038B505460948FFF7B9FF2F2809D9002430
:102C10002B19064859780134FFF784FE302CF7D180
:102C200001E0052038BD002038BD00BF5C4D00200C
:102C3000084BC0F30721C2B2595C9A5C82B00A44C7
:102C4000C0F30741595C000E1B5C0A44D018C0B2A7
:102C500002B07047E1C600082DE9FF415F4CB4F8AF
:102C6000163F04EB43035888C0F3090080F4A670B4
:102C700080F00100FFF7DCFF022800F2AB80B4F81F
:102C8000180F002100F22676B6B2B6F5F06F26BF17
:102C9000A0F15A0292B232460D464FF47A574CF2E6
:102CA000801CDFF8408104EB4203B3F9163011F9C0
:102CB00008800FFA8CFC3FB29C45B8BF9C469F42EF
:102CC000A8BF1F46B8F1010F1FFA8CFCBFB20AD093
:102CD000B8F1030F05D0B8F1FF3F06D003EB430373
:102CE00003E003EB4303ED1A00E01D4402F10A0385
:102CF0009BB2B3F5F06F28BFA2F2767201F1010129
:102D000028BF93B20A2901D01A46CAE7D4F8242F63
:102D1000324B95425EDD93F8702F632A10D10FFA83
:102D20008CFC3FB267447F10C7EB0C0CA3F84C7FC0
:102D300044F63E1707FB0CFC4FEAEC3CA3F86ECFC1
:102D4000B4F94C3FB6F5F06F28BFA0F15A060093D6
:102D5000B4F96E3F28BFB6B2019330460A2103AAE8
:102D60000023FFF725F923789DF80D009DF80C103E
:102D7000002B1B4B80F0F50081F0CD01595C185CF5
:102D800014BF0322012208449DF80E1021F00F0108
:102D900081F09001595C431803F0FF03934219D866
:102DA0000623A4F8283FB4F8183F0C4A03F21B711D
:102DB00089B2B1F5F06FA4F81E3F28BF653BC4F897
:102DC000245FA4F81A6F34BFA2F81C1FA2F81C3F9E
:102DD000012000E0002004B0BDE8F081B809002027
:102DE000E1C600088CAE0008F0B584462948A3B0BF
:102DF00090F80201BDF9A070002848D0E0208DF8BD
:102E00000400F5208DF806000025E8B2EC1C1CF843
:102E10000060E4B222A80135204416B100F8846CA9
:102E2000F3E70D1200F8845C601C22ADC0B22844A8
:102E300000F8841CA11CC9B21012294401F8840CAA
:102E4000E11CC9B2294401F8842C221DD2B2191206
:102E50002A4402F8841C621DD2B22A4402F8843C3F
:102E6000A31D04F10801DBB207342B443A12E4B28B
:102E700003F8842CC9B2084B2C4401A804F8847CC4
:102E80008DF805109847054B1E60FFF7EDFB23B04A
:102E9000F0BD00BFFC490020ED01002018002742D2
:102EA00030B51F4B1F4A03F1200153F8044B8B42EE
:102EB00042F8044BF9D11B780001137040F009006F
:102EC000194BC0B233F81020184BD1B293F85940C7
:102ED000920A24F03F0444EA900093F85A4083F8A1
:102EE000590004F00F04880800F0300544F0400455
:102EF0002C4383F85A4093F8604000F00F0024F010
:102F00000F04204383F8600093F8610002F03C0254
:102F100000F0030040EA8111114383F8611030BDD5
:102F200059B70008918D0020CAB40008448D0020D4
:102F30002DE9FF41634C41F2D823E35A624804EB88
:102F400083035B68C3F313035840FFF771FE032844
:102F500000F2B38041F2DA23E05A002100F60116B4
:102F6000B6B2B6F5166F26BFA0F15F0292B2324636
:102F70000D464FF47A574CF2801CDFF8548102F171
:102F80000C0334F9133011F908800FFA8CFC3FB2AE
:102F90009C45B8BF9C469F42A8BF1F46B8F1010F91
:102FA0001FFA8CFCBFB20AD0B8F1030F05D0B8F1FC
:102FB000FF3F06D003EB430303E003EB4303ED1AAB
:102FC00000E01D44531D9BB2B3F5166F28BFA2F657
:102FD0005B1201F1010128BF93B2142901D01A46F6
:102FE000CBE741F2E822A258364B954265DD41F22B
:102FF00034329A5C632A13D10FFA8CFC3FB26744D7
:103000007F1041F210329F52C7EB0C0C44F63E1772
:1030100007FB0CFC41F232324FEAEC3C23F802C0D1
:1030200041F21033E35EB6F5166F009341F232338E
:1030300028BFA0F15F06E35E28BFB6B202AF0193DE
:1030400014213A4600233046FFF792F82378002BEC
:103050004FF0000314BF0422022219461B4813F844
:1030600000C0F85C01338CEA0000DFF868C0052B73
:103070001CF800000144C9B2F0D191421DD841F2C0
:10308000E821655041F2EC21635241F2DA23E35A20
:103090000C4A03F6FB0080B202F59751B0F5166FAB
:1030A0000B8041F2DC21665228BF653B41F2DE21F4
:1030B00034BF50525352012000E0002004B0BDE85C
:1030C000F08100BF047A0020ADB50700F2B6000819
:1030D0004FAF0008E1C600082DE9FF47984C804635
:1030E000B4F8543B974854F8233023F07F435840BA
:1030F000FFF79EFD0228A0F10300C0B28CBF4FF085
:10310000000A4FF0010A122840F21781B4F856CB9A
:1031100000220CF22D5080B2B0F5B46F26BFACF196
:10312000730189B2014615464FF47A564CF2801766
:1031300004EB4103B3F914303FB236B29F42B8BF3B
:103140001F469E42A8BF1E46BFB2B6B2BAF1000FDC
:1031500002D0DFF8FC9101E0DFF8F89112F8099055
:103160004FFA89F9B9F1010F0AD0B9F1030F05D06F
:10317000B9F1FF3F06D003EB430303E003EB430346
:10318000ED1A00E01D444B1D9BB2B3F5B46F28BF90
:10319000A1F29B5102F1010228BF8BB2182A01D083
:1031A0001946C5E7D4F8603B9D4240F3C6803FB264
:1031B00033B23B445B109EB2FF1A44F631435F4387
:1031C000B0F5B46F33B2C7F3CF3728BFACF173009B
:1031D00000930DF108093BB228BF80B2019318217A
:1031E0004A460423FFF754F857495848BAF1000FEC
:1031F00044D000231A4610F803A019F803C00AEAC5
:103200000C0CDFF854A113F80AA001338CEA0A0C65
:1032100011F80CC0072B6244D2B2ECD1032A00F2A1
:103220008C80B8F1000F13D00023A4F8727BA4F8AF
:10323000707BA4F86E7BA4F86C7BA4F86A6BA4F88E
:10324000686BA4F8666BA4F8646B84F8743B10E0B8
:1032500094F8743B3A4A04EB43010133DBB2032B8D
:10326000A1F86C7BA1F8646B94BF82F8743B82F880
:10327000748B334AC4F8605B402342E053465246A5
:1032800010F803A019F803C00AEA0C0CDFF8CCA070
:1032900013F80AA001338CEA0A0C11F80CC0072BB2
:1032A0006244D2B2ECD1032A47D8B8F1000F13D050
:1032B0000023A4F8727BA4F8707BA4F86E7BA4F8BA
:1032C0006C7BA4F86A6BA4F8686BA4F8666BA4F82E
:1032D000646B84F8743B10E094F8743B184A04EB78
:1032E00043010133DBB2032BA1F86C7BA1F8646BC3
:1032F00094BF82F8743B82F8748B114AC4F8605B07
:10330000202384F8753BB4F8563B03F21A4189B286
:10331000B1F5B46F28BFA3F5C371A2F85A1B03F22D
:103320000D1292B2B2F5B46FA4F8583B2ABFA3F2C3
:103330009343A4F85C2BA4F85C3B04B0BDE8F08791
:10334000649200206E287600E1C60008FEB60008F0
:103350001DB70008B6AE000841AF000848AF00082E
:103360002DE9FF41744C42F2D813E35A734804EB41
:1033700083035B6823F07F435840FFF759FC022822
:1033800000F2D58042F2DA13E05A002100F58356AC
:103390000D36B6B2B6F5875F26BFA0F1730292B2C2
:1033A00032460D464FF47A574CF2801CDFF890817C
:1033B00002F10C0334F9133011F908800FFA8CFC78
:1033C0003FB29C45B8BF9C469F42A8BF1F46B8F17C
:1033D000010F1FFA8CFCBFB20AD0B8F1030F05D061
:1033E000B8F1FF3F06D003EB430303E003EB4303D5
:1033F000ED1A00E01D44531D9BB2B3F5875F03D364
:10340000A2F586521B3A93B20131182901D01A460F
:10341000CCE742F2EC12A258474B954240F387802A
:1034200042F238229A5C632A13D10FFA8CFC3FB225
:1034300067447F1042F214229F52C7EB0C0C44F6F3
:103440003E1707FB0CFC42F236224FEAEC3C23F815
:1034500002C042F21423E35EB6F5875F009342F2A6
:10346000362328BFA0F17306E35E28BFB6B202AFD1
:103470000193304618213A460023FEF7E9FF2078F1
:103480000023002814BF042202221946DFF8B4C02A
:1034900013F80C8017F803C0013388EA0C0CDFF82E
:1034A000A880062B18F80CC06144C9B2EED1914235
:1034B0003DD842F2EC13E550052242F2F013E252FD
:1034C00042F2DA13E35A42F2E812A35242F2DE1257
:1034D000A65203F58352073292B2174FB2F5875FB7
:1034E00042F2E01128BFA3F179027A52E8B903F25F
:1034F000BB7080B242F2E612A3520F4942F2DC12D4
:10350000B0F5875FA65228BFA3F6251042F2E2125B
:10351000885203F2BD7189B2B1F5875F42F2E412BD
:103520002ABFA3F62313A152A352012000E00020DA
:1035300004B0BDE8F08100BFB8270020A030FB0038
:1035400005B70008C3B40008E1C60008B0F820378A
:103550002DE9F04700EB83035B680446834823F0C2
:103560007F4386B058408846FFF762FB0228A0F1EF
:103570000300C0B28CBF4FF000094FF001091228C0
:1035800040F2F080B4F822370020A3F1730189B231
:1035900005331FFA83FA0F464CF280164FF47A5225
:1035A000054607F10C0334F9133036B212B29E42CD
:1035B000B8BF1E469A42A8BF1A46B6B292B2B9F137
:1035C000000F02D0DFF8B0C101E0DFF8B0C110F8A1
:1035D0000CC04FFA8CFCBCF1010F0AD0BCF1030FF8
:1035E00005D0BCF1FF3F06D003EB430303E003EB40
:1035F0004303ED1A00E01D440537BFB2574500F103
:103600000100CED1D4F82C379D4240F3AB8036B2C6
:1036100012B232445210B61A44F631435E430423C8
:10362000C6F3CF3600930DF1100A33B20192029324
:10363000204697B253461822FFF78CF84C494D4864
:10364000B9F1000F40D00022134610F802901AF88A
:1036500002C009EA0C0CDFF8289112F80990013237
:103660008CEA090C11F80CC0072A6344DBB2ECD1D8
:10367000032B77D8B8F1000F11D0A4F83E67A4F857
:103680003C67A4F83A67A4F83867A4F83677A4F83A
:103690003477A4F83277A4F8307700230BE094F85D
:1036A000403704EB43020133DBB2032BA2F8386747
:1036B000A2F8307702D884F8403701E084F84087D8
:1036C000C4F82C5740233FE04A464B4610F802907E
:1036D0001AF802C009EA0C0CDFF8A89012F8099059
:1036E00001328CEA090C11F80CC0072A6344DBB2E2
:1036F000ECD1032B36D8B8F1000F11D0A4F83E67F7
:10370000A4F83C67A4F83A67A4F83867A4F83677B9
:10371000A4F83477A4F83277A4F8307700230BE0CC
:1037200094F8403704EB43020133DBB2032BA2F8D9
:103730003867A2F8307702D884F8403701E084F87F
:103740004087C4F82C57202384F84137B4F8223737
:10375000A3F5C372A4F8243703F20D13A4F82627A7
:10376000A4F8283706B0BDE8F08700BF6E287600C1
:10377000E1C600088CAF000829AF000841B7000877
:103780007AB70008F7B6000838B505460948FFF7CC
:10379000F5F9202809D900242B1906485978013455
:1037A000FFF7C0F8212CF7D101E0052038BD00203B
:1037B00038BD00BF54A900202DE9F8432A4C1F460C
:1037C000237889469046002B4BD094F82C33002B5D
:1037D00047D1264B1A783AB901221A7094F804237B
:1037E000234B82F001021A600138052816D8DFE861
:1037F00000F00306090C0F12B4F80A5310E0B4F8F5
:103800000C530DE0B4F80E530AE0B4F8105307E07F
:10381000B4F8125304E0B4F8145301E0B4F80853B8
:103820000026B3B243451CD239F9163029B25943A8
:10383000B4F81823C91301F30F01114489B2B1F58B
:10384000805F094B04D3B3F824230132A3F8242367
:1038500008480FB93A4600E0BA5DFEF733FF01367B
:10386000DFE7BDE8F88300BFE4210020B6090020AF
:10387000B0812142FC21002030B50023ADF5217D2F
:1038800002060BD5154A00A9194402F1280452F882
:10389000045BA24241F8045BF9D10AE0104A00A996
:1038A000194402F1280452F8045BA24241F8045B77
:1038B000F9D128334000B3F5A07FC0B2E0D169460A
:1038C00050AA0848A02304F031FA062050A9A022EB
:1038D0000023FFF771FF0DF5217D30BD64AF0008B7
:1038E000CAB60008204B0020114BD98C9A8C89B2A3
:1038F00092B2914204D193F8282092B9188B11E02A
:10390000D98C9A8C89B292B2914205D29A8CD88C79
:10391000198B80B2084401E0D88C9A8C801A80B24E
:1039200000E000201B8B834238BF0020704700BF9F
:10393000E42100202DE9F047AA4CB6B02046FFF75D
:1039400012F820B9B4F89C32002B00F0B2816289E1
:10395000636892B29A5CA34D02F0FF03002A40F024
:103960002781B5F89C62002E40F068819E4B1B7841
:103970006BB9B5F8A02299B2914205D22144AA2090
:1039800081F844000133F6E7A4F89C220CE12846B4
:10399000FEF7B4FF35469348FEF7B0FF0DF805007B
:1039A0000135292DF7D1002200230BA920AE535455
:1039B000B1180132532A8B70F6D11A4619461DF8F8
:1039C0000380174618010A4600250121A94018EA7C
:1039D000010F0CBF0021012101EB070C17440F441C
:1039E000FF070CF0010C0FD5DFF8089200F0070775
:1039F00019F807A00DF1D80909EBD00717F8AC9C0E
:103A00004AEA090907F8AC9CBCF1000F11D000F19B
:103A1000010C0DF1D80909EBDC07DFF8D8910CF0A7
:103A2000070C19F80C9017F8ACCC49EA0C0C07F805
:103A3000ACCC0135082D00F1020002D017460A4631
:103A4000C3E701332A2BBAD1684B002136A800EB1B
:103A5000D10212F8AC2C10060ED513F80D7C4FF0E5
:103A6000010C0CFA07F713F80E0C0DF1820515F88E
:103A700000C047EA0C072F5455060ED513F80B7CEF
:103A80004FF0010C0CFA07F713F80C0C0DF182053E
:103A900015F800C047EA0C072F5490060ED513F80E
:103AA000097C4FF0010C0CFA07F713F80A0C0DF122
:103AB000820515F800C047EA0C072F54D7060ED52B
:103AC00013F8077C4FF0010C0CFA07F713F8080CF9
:103AD0000DF1820515F800C047EA0C072F54B1F527
:103AE000247F41D015070ED513F8057C4FF0010C4B
:103AF0000CFA07F713F8060C0DF1820515F800C053
:103B000047EA0C072F5450070ED513F8037C4FF0EB
:103B1000010C0CFA07F713F8040C0DF1820515F8E7
:103B200000C047EA0C072F5497070ED513F8017C05
:103B30004FF0010C0CFA07F713F8020C0DF1820597
:103B400015F800C047EA0C072F54D50709D55D7852
:103B5000012707FA05F51A780DF18200875C3D43CD
:103B600085540831103371E700232149F218907809
:103B7000595C01334140532B9170F6D1EA238DF803
:103B80008030B4F89C22A6238DF881300023D11810
:103B9000F05C89B201332144552B81F84400F6D101
:103BA000104B5532A3F89C220023A4F89E3245E026
:103BB000012B21D1B5F89C32002B3FD12846FEF7CE
:103BC0009DFE0C25B4F89C620648731CA4F89C3238
:103BD000FEF794FE013D264415F0FF0586F84400EB
:103BE000F0D1E1E714250020B6090020A9AF0008B4
:103BF000CEAE000893AF0008022B1FD1B5F89C325F
:103C0000E3B92846FEF77AFEB5F89C3203F11200BC
:103C100080B20022284E9D18965DADB20132254437
:103C2000062A264985F84460F4D106339BB28342C4
:103C3000EFD1A1F89C320023A1F89E32B4F89C3257
:103C4000002B36D0FFF750FE0546282D31D9B4F8A9
:103C50009E325A1C2344A4F89E2293F84400012269
:103C6000002302EA000191420CBF4FF6B74640F232
:103C700049360BA9CE5202335200102BD2B2F0D1EA
:103C80000F4820AA082303F067FE20A9282200235A
:103C90000120FFF791FDB4F89E12B4F89C22283D54
:103CA0009142ADB2054BD0D30022A3F89E22A3F8D7
:103CB0009C2236B0BDE8F08735B7000814250020F7
:103CC00024250020124B6321002283F8701F42F24A
:103CD0000F711A70A3F8182FA3F8162FC3F8242F0A
:103CE000A3F81A1FA3F81C1FA3F81E1FA3F8201F78
:103CF000A3F8221FA3F84C2FA3F86E2FA3F8282FA8
:103D000083F82A2FC3F8742FA3F8782F704700BFC9
:103D1000B80900200E4B13B51B7813F0FD0414D125
:103D20000C4B1B788BB100284FF0E0038DF804306A
:103D30000CBF19231B2303218DF8063001A8064B65
:103D40008DF805109847054B1C6002B010BD00BFF0
:103D5000B4090020E6010020ED01002018002742F0
:103D6000F0B5224CA3B094F80241002C3BD0E024E3
:103D70008DF80440F4248DF806400025EEB2EC1CCA
:103D8000865DE4B222AF0135274416B107F8846C92
:103D9000F4E7081207F8840C601C22ADC0B2284476
:103DA00000F8841CA11CC9B21012294401F8840C2B
:103DB000E11CC9B2294401F8842C221DD2B2191287
:103DC0002A4402F8841CA11D0534E4B22C4404F8F2
:103DD000843CC9B2064B01A88DF805109847054BE5
:103DE0001E60FEF741FC23B0F0BD00BFFC4900207F
:103DF000ED0100201800274207B5E0238DF80430BC
:103E000070238DF80630084B04219B780DEB0100E0
:103E10008DF80730054B8DF805109847044B0022AC
:103E20001A6003B05DF804FBFC490020ED0100209E
:103E30001800274210B5134BC0B01B7813F0FB03DA
:103E40001ED1114A1278DAB1E0228DF80420312215
:103E50008DF80620DAB2D41C8A42E4B206D240AA17
:103E60001444C25C013304F8FC2CF3E70331C9B2FB
:103E7000064B01A88DF805109847054B00221A60E3
:103E800040B010BDB40900200C010020ED0100205D
:103E90001800274200B50F4BA3B01B78632B16D137
:103EA000E0238DF8043008238DF80630002301AAA2
:103EB0001A44C15C0133052BD170F8D10821064B9F
:103EC00001A88DF805109847044B00221A6023B012
:103ED0005DF804FBB4090020ED0100201800274222
:103EE00007B5E0238DF800307F238DF80230094BB1
:103EF00005219B788DF804008DF803306846064B49
:103F00008DF801109847054B00221A6003B05DF848
:103F100004FB00BFFC490020ED01002018002742EF
:103F200010B5134B86B01B78012B1FD8114B1B7893
:103F3000E3B1E0238DF8043011238DF8063000231F
:103F4000DAB2D41C8A42E4B206D206AA1444C25C95
:103F5000013304F8142CF3E70331C9B2064B01A86E
:103F60008DF805109847054B00221A6006B010BD69
:103F7000B4090020DA000020ED01002018002742DB
:103F800010B50B4CB4F85C234AB1D4F85813B1FB0C
:103F9000F2F2C2F30721017342730E2100E00C21FB
:103FA000FFF7BEFF0023C4F85833A4F85C3310BDFC
:103FB0003419002010B5E0238EB08DF804301023A2
:103FC0008DF806300023DAB2D41C8A42E4B206D25D
:103FD0000EAA1444C25C013304F8342CF3E7033115
:103FE000C9B201A8044B8DF805109847034B002275
:103FF0001A600EB010BD00BFED010020180027426E
:1040000010B5154B8AB01B7813F0FD0322D1134C69
:104010002478FCB100284FF0E0040CBF18201A20CF
:104020008DF800408DF80200D8B2C41C9042E4B272
:1040300006D20AA80444C85C013304F8280CF3E74C
:10404000D11CC9B2064B68468DF801109847054B44
:1040500000221A600AB010BDB4090020E601002059
:10406000ED01002018002742B0F8263730B503F1E3
:104070003C0203F516739DB292B20023541C00EB70
:104080004202A4B2B2F84A27AC42134401D02246FD
:10409000F4E74FF40772B3FBF2F3C3F3072281F89E
:1040A000222081F8233000782422BDE83040FFF739
:1040B000A7BF0000F0B5B0F822370446B0F82807D3
:1040C0008FB09842C0F06181B3F5617F80F05D816F
:1040D00004EB43000183A0F84A27B4F82027002905
:1040E00004EB820250684FEA4000B8BF40F0010084
:1040F000506094F8462732B9A3F5C8735A2B10D8EC
:10410000204601210BE0B4F82427511E89B28B42CE
:1041100007D3013292B2934203D820460021FFF721
:1041200015FAB4F82237B4F82817994240F01F81E5
:10413000B4F93237B4F93067B4F938771E44B4F9BA
:1041400034370EAD1E44B4F93637A1F28E211E4429
:10415000B4F93A3746F38F061F44B4F93C3720468A
:104160001F44B4F93E3789B21F4494F8413747F3EE
:104170008F0705F8243D0823009301962B460297EC
:104180008422FEF7E7FA94F84137402B40F09780FD
:104190000DF113020DF1120304A80DF11501FEF744
:1041A00025FA9DF8132094F843379A4240F0DF80B7
:1041B00000239DF8142084F8423784F847379DF88F
:1041C00012301A438DF814200A2B60D8DFE803F070
:1041D0003C35545F5F5F061B1B5F1B002378B4F9FF
:1041E0002427002B14BF0221012133466A4800977F
:1041F000FEF7FAFD20462946FFF736FF022384F832
:104200004637002316E094F84637022B40F0AF8083
:104210002378B4F92427002B14BF0221012133464F
:104220005E480097FEF7E0FD20462946FFF71CFF99
:104230009DF8123084F8483799E02378B4F92427A0
:10424000002B0097564809E094F84637012B0FD110
:104250002378B4F924275348002B009714BF022178
:1042600001213346FEF7C0FD20462946FFF7FCFE3C
:10427000012384F846377AE094F84637012B76D14B
:104280002378B4F92427002B0097474805E02378CA
:10429000B4F924274548002B009714BF02210121BF
:1042A0003346FEF7A1FD20462946FFF7DDFE002339
:1042B00084F8463742F20F73A4F8283757E0202BD2
:1042C00018D12378B4F92427002B14BF022101212F
:1042D000334637480097FEF787FD20462946FFF70B
:1042E000C3FE012384F84637002384F8423784F85C
:1042F00047373CE094F846378BB194F842370133A6
:10430000DBB20C2B84F8423709D92078FFF702FD85
:10431000002384F8463742F20F73A4F8283794F844
:104320004637012B16D194F84737042B06D92023A2
:104330008DF81430002384F8473705E00133DBB2F1
:1043400084F847378DF81430207829462222FFF769
:1043500057FE0CE0022B0AD194F848373BB143F0EA
:104360004003204629468DF81430FFF77DFEB4F84F
:1043700022370133A4F82237B4F8203701339BB237
:10438000042B88BF0023A4F8203794F84607003098
:1043900018BF01200FB0F0BD81B70008B8B7000802
:1043A000F0B7000828B8000863B800089FB80008F4
:1043B000CFB800080146164830B5B0F85A3B4FF464
:1043C00007743C339BB20022054605EB4300B0F86E
:1043D0007C0B013C0244581C80B2B0F5B46F28BF7E
:1043E000A3F29F53A4B228BF98B20CB10346ECE7E6
:1043F0004FF40773B2FBF3F2C2F3072381F82320D3
:1044000081F8223001202422BDE83040FFF7F8BDBA
:10441000649200202DE9F04781468CB08A464FF027
:104420000008B64C39F80800B4F8563B3AF80810C2
:1044300004EB43029082A2F87C1BB4F8542B0004D6
:1044400054F822104FEA410148BF41F0010144F8FD
:10445000221094F8782B0AB901201BE0A74AB2F881
:10446000580B00F29F5189B2B1F5B46F00F101020F
:1044700092B224BF00F1FF3189B2B2F5B46F24BF0C
:10448000A0F29F5292B2914207D28B4208D393423C
:1044900006D80020FEF720FE02E08B42F7D3F8E7B3
:1044A000B4F8562BB4F85C3B944D934240F0018134
:1044B000B5F9662BB5F9647BB5F96C6B1744B5F9A2
:1044C000682B03F212301744B5F96A2B80B21744F7
:1044D000B5F96E2BB0F5B46F1644B5F9702BC7F370
:1044E0008F071644B5F9722B28BFA3F28E2016440D
:1044F000C6F38F0695F8752B3FB236B28DF80C20B7
:1045000028BF80B2082300970196842103AAFDF7F3
:10451000BFFE94F8753B794D402B78D10DF10A021E
:104520000DF10B0302A80DF10D01FEF75FF89DF8E8
:104530000A2095F8773B9A4240F0B68000239DF818
:104540000C2085F8763B85F8793B9DF80B301A43B3
:104550008DF80C200A2B4DD8DFE803F0302C434CAB
:104560004C4C0617174C170033466548B4F9581BD6
:104570003A46FFF7F5FB03A8FFF71CFF022384F878
:10458000783B002384F87A3B8EE094F8783B5B4DCF
:10459000022B40F0898033465A48B5F9581B3A46F9
:1045A000FFF7DEFB03A8FFF705FF9DF80B3085F84A
:1045B0007A3B79E05448B4F9581B07E094F8783B0B
:1045C000012B0AD14D4B5148B3F9581B3A4633469B
:1045D000FFF7C6FB03A8FFF7EDFE012384F8783B45
:1045E00062E094F8783B012B5ED1444B4848B3F924
:1045F000581B02E04748B4F9581B3A463346FFF7C8
:10460000AFFB03A8FFF7D6FEFDF72CFE4CE0202BF6
:1046100012D133464048B5F9581B3A46FFF7A0FB84
:1046200003A8FFF7C7FE012385F8783B002385F830
:10463000763B85F8793B37E095F8783B63B195F8A0
:10464000763B0133DBB20C2B85F8763B04D9012095
:10465000FFF760FBFDF706FE94F8782B274B012A45
:1046600016D193F8792B042A06D920228DF80C2034
:10467000002283F8792B05E00132D2B283F8792B3E
:104680008DF80C20012003A92222FFF7B9FC0BE0D2
:10469000022A09D193F87A3B33B143F0400303A8CF
:1046A0008DF80C30FFF786FE0023C4F8603B84F8D9
:1046B000753BB4F8562B114B013292B2B2F5B46F80
:1046C00028BF0022A3F8562BB4F8542B0B4B013211
:1046D00092B2042A08F1020888BF0022B8F1040F40
:1046E000A3F8542B94F8780B7FF49BAE003018BFDE
:1046F0000120FDF7C7FC0CB0BDE8F08764920020F4
:1047000005B9000836B9000868B900089AB9000868
:10471000CFB9000805BA00082FBA000810B5134B2E
:104720009EB01B7813F0FB031ED1114A1278DAB148
:10473000E0228DF8002030228DF80220DAB2D41C5D
:104740008A42E4B206D21EAA1444C25C013304F8C1
:10475000782CF3E70331C9B2064B68468DF8011097
:104760009847054B00221A601EB010BDB409002006
:104770000C010020ED0100201800274210B5144B59
:10478000A2B01B78032B00D0FBB9124B1B78E3B10E
:10479000E0238DF8043020238DF806300023DAB2B0
:1047A000D41C8A42E4B206D222AA1444C25C013369
:1047B00004F8842CF3E70331C9B2074B01A88DF844
:1047C00005109847054B00221A6022B010BD00BFAB
:1047D000B4090020D9000020ED0100201800274274
:1047E00010B5144BA2B01B78052B00D0FBB9124BAF
:1047F0001B78E3B1E0238DF8043040238DF80630B8
:104800000023DAB2D41C8A42E4B206D222AA1444AB
:10481000C25C013304F8842CF3E70331C9B2074BBF
:1048200001A88DF805109847054B00221A6022B0A8
:1048300010BD00BFB4090020E7010020ED010020F9
:1048400018002742F7B54CF280124FF47A554FF01A
:10485000000E2E4617461FFA8EF38B42454C27D288
:1048600000F10C0334F91330002B0ADD3FB236B2ED
:10487000BB42A8BF1F46B342B8BF1E46BFB2B6B2C6
:1048800009E02DB212B2AB42B8BF1D469342A8BF99
:104890001A46ADB292B2431D9BB2B3F5875F03D304
:1048A000A0F586501B3883B20EF1010E1846D2E7F0
:1048B00039B236B22DB212B231442A4449105210E4
:1048C0008E187610B7B28E1BB6B233B200932A4858
:1048D0003BB2FEF789FA42F23821635C632B0FD1B9
:1048E0000023E218023302F50751202B02F508528B
:1048F0008F86D682F5D1002242F23823E25410E0AE
:1049000003F58752183204EB4202978003F5885270
:104910000133DBB2083204EB42020F2BD680635422
:10492000E9D8002342F21422A35242F23622A352C3
:104930001E461A46A11801F5075001F508513430FA
:10494000163100880988023203443144202A094D77
:104950009BB289B202D09BB28EB2EBE743F30B134A
:1049600042F21422AB5241F30B1142F23623E952C8
:1049700003B0F0BDB82700205FBA00082DE9F04F62
:10498000A5B0029003910024A74D039B029E1A5BE1
:10499000D5F8583329461344C5F85833B5F85C3375
:1049A0000133A5F85C33325B2B79D20B934209D0EB
:1049B0002B68B3F5004F2ABF6FF4CC7C03F2991338
:1049C00063442B602E68984B06F54C503330B0F59D
:1049D000803F2A7101D218607AE3A6F54C40CD38A9
:1049E00018605879012853D003D3022800F0CA82F6
:1049F0006EE3996849000AB141F001019960AD6820
:104A00008A4825F07F456840FEF712F90228864E55
:104A100010D8874800F058FC06F10C000021532202
:104A200003F028FD00233367C6F85833A6F85C333B
:104A3000012395E27F486840FEF7FAF80546002812
:104A400040F046837C4800F03FFC0120FDF71AFB54
:104A50007A4B012283F82123794A06F10C0310686E
:104A60005168C6F8585303C39068A6F85C531860A1
:104A7000A3F10800FFF784FA06F10C0029460E2284
:104A800003F0F8FC4FF4165373673567022367E2AF
:104A9000986840009860002A00F0218340F00100EF
:104AA0009860186F674EC208134400F00700305C2E
:104AB0001B7B03430A4413732B6F0133B3F5257F2C
:104AC0002B6740F0058300235F48CA18167B185CEB
:104AD00001337040532B1073F6D1002300200FAA2E
:104AE00098540133542BF9D1584B01EBE002127B5F
:104AF000D6070FD513F80E6C24AF3E4413F80D7C87
:104B00004FF0800C2CFA07F716F854CC47EA0C0744
:104B100006F8547C97070FD513F80C6C24AF3E446D
:104B200013F80B7C4FF0800C2CFA07F716F854CCD6
:104B300047EA0C0706F8547C56070FD513F80A6CA1
:104B400024AF3E4413F8097C4FF0800C2CFA07F791
:104B500016F854CC47EA0C0706F8547C17070FD513
:104B600013F8086C24AF3E4413F8077C4FF0800C18
:104B70002CFA07F716F854CC47EA0C0706F8547CD1
:104B8000B0F5247F09D10022EA67C5F88020C5F876
:104B90008420C5F88820AA675AE0D6060FD513F8F6
:104BA000066C24AF3E4413F8057C4FF0800C2CFAC1
:104BB00007F716F854CC47EA0C0706F8547C97061A
:104BC0000FD513F8046C24AF3E4413F8037C4FF068
:104BD000800C2CFA07F716F854CC47EA0C0706F8B5
:104BE000547C56060FD513F8026C24AF3E4413F8DC
:104BF000017C4FF0800C2CFA07F716F854CC47EAEA
:104C00000C0706F8547C17060BD51A7824AE3244EC
:104C10005E78802727FA06F612F8547C3E4302F8A5
:104C2000546C0830103360E734190020507655007A
:104C30001EC0000868B4AA0040C00008E42100209B
:104C40007FBA000828C20008BBBF000899BA000854
:104C500024AF07EBE20313F8541C02F00700802393
:104C6000C340402525FA00F019420CBF0023012360
:104C700001420CBF0021012183F0010581F00100F8
:104C800005EB000918180190B64803EB010CD0F8A9
:104C90007C806918D0F88460856F0CEB080A09EBFA
:104CA00006070091E9085745D4BF0497CDF810A036
:104CB000BA4501F1220A05F0070300EB8A0A07DA78
:104CC000A94F17F803B0DAF804700BEA070706E0FB
:104CD000A64F17F803B0DAF804704BEA07076644EA
:104CE000C844B045D4BFCDF814800596B04501F155
:104CF0004C06CAF8047000EB860004DA9A4EF75CA2
:104D000046683E4003E0994EF75C46683E43954F47
:104D10004660D7F88080009ED7F888C00198464446
:104D20006044B042D4BF0690069601F176098642EF
:104D300007EB89093E4607DA8B4810F803A0D9F83B
:104D400004000AEA000006E0884810F803A0D9F839
:104D500004004AEA0000C9F804000198A031804428
:104D6000009806EB81018444C445D4BFCDF81CC033
:104D7000CDF81C80E0451BDA7B48C05C4B680340E3
:104D80004B60049B0232FB67059B0135C7F88030FE
:104D9000069BB2F5257FC7F88430079BBD67C7F82F
:104DA00088307FF455AF002340F24912194604E0E1
:104DB0006E48C05C4B680343E2E703294CD8DFE848
:104DC00001F0020F1D34694D02F007002D5CD01078
:104DD00006EB8000D0F88C00054218BF02211AE0D3
:104DE000624D02F00701685CD11006EB8101D1F839
:104DF0003411084214BF0221002122E05B4802F076
:104E00000701405CD11006EB8101D1F8DC110842AA
:104E100014BF03210121544F03F0070506EBD30013
:104E20007F5D90F82C533D4013E0504D02F0070099
:104E30002F5CD01006EB8000D0F88402074208BF38
:104E4000012106EBD30003F00707EF5D90F82C5328
:104E50003D4380F82C53013312F1FF32ADD20022D2
:104E600002F11000013200236F46292AC355F7D101
:104E7000C3F5A47201323D4802F0070106EBE202DD
:104E8000415C92F82C23114209D0012003F0070164
:104E900000FA01F1DA0804ADA85C0143A95401331A
:104EA000B3F5A57FE4D14FF0FF32002304AFF85CE7
:104EB0002F495040C0B231F81010C2F3072201331D
:104EC0005140272B0A46F1D1CB439DF83710DAB277
:104ED000914209D19DF83810C3F307235A1A53425F
:104EE0005341002B3CD001E0002339E00120FDF7C5
:104EF000C9F8204B012283F82123B6F85C231E4B0E
:104F00009AB118491B78D1F85813012BB1FBF2F272
:104F1000C2F307218DF839108DF83A200FD8174BBE
:104F20001B7863B104A82B2107E01B78012B06D85E
:104F3000124B1B781BB104A82921FFF73BF8002571
:104F40000F4829460E22C6F85853A6F85C5303F0C2
:104F500091FA022373714FF4165335677367B7E004
:104F60007371B5E034190020B3BF000816C0000803
:104F700038C20008E4210020B4090020DA00002033
:104F800040190020986840009860002A00F0B18025
:104F900040F001009860186F5B4EC208134400F0A7
:104FA0000700305C1B7B03432F6FD5F80880574800
:104FB0001144013788EA00000B732F67FDF738FEB4
:104FC0000128534E21D8534800F07EF90020FDF708
:104FD00059F8514B002683F82163504B1B78012B65
:104FE00010D84F4B1B786BB1E02303218DF83C3078
:104FF0008DF83D1013238DF83E300FA8494B98478C
:10500000494B1E6000236B7162E05C2F0ED947484C
:1050100028F07F435840FDF70BFE022806D8602396
:1050200033674FF416537367012700E000272B6F97
:10503000602B16D1AFB901266FF07F403B4BF0409B
:10504000F34000EA08005840FDF7F2FD02285FFA3D
:1050500086F903D8C9F160032B6702E00136042EFC
:10506000EAD16E6F2A48013E6E67C6B9304800F03B
:105070002BF93046FDF706F8274B83F82163274BC1
:105080001B78012BBED8264B1B78002BBAD0E0230F
:1050900003218DF83C308DF83D101223ABE7026FF1
:1050A000602A15D14FB1552242752D2282751622E4
:1050B000C2750C30FEF764FF03E00C300C21FEF7E4
:1050C0002FFF1C4800210E2203F0D4F900232B6788
:1050D0000234042C7FF458AC25B0BDE8F08F186F73
:1050E000154EC208134400F00700305C1B7B0340E0
:1050F000E0E4186F104EC208134400F00700305C63
:105100001B7B034050E700BF28C200085E13AAAA19
:105110003419002061C00008E4210020B4090020F7
:10512000DA000020ED0100201800274268B4AA0030
:1051300081C000084019002030C200085B2838B543
:10514000044600F0898013D803283AD008D80128F3
:105150001FD0022840F08C804A4800F0B5F884E067
:10516000052848D039D3062840F08280464874E0AC
:105170005F2854D005D85D28444D52D053D94448B7
:1051800052E0622849D0632845D0602870D1414858
:1051900063E0414800F098F8FDF746F9FDF762F842
:1051A00001F08CFAFCF7AEFFFDF7FEF8FEF78AFD82
:1051B000364B0022A3F8E823A3F8EA2383F8EC2374
:1051C00059E0364800F080F8FDF72EF9FDF74AF86F
:1051D00001F074FAFDF736F8E6E7314800F074F8AC
:1051E000FDF722F9FDF73EF801F068FAFDF72AF81D
:1051F000FCF788FFDAE72B4800F066F8FDF714F9B2
:10520000FDF730F801F05AFAFDF71CF8FCF77AFFC9
:10521000FDF7CAF8CCE724481FE024481DE02448E5
:105220001BE0244800E0244800F04EF8FDF7FCF8AD
:10523000FDF718F801F042FAFDF704F8FCF762FFF9
:10524000FDF7B2F8FEF73EFD0023A5F8E833A5F818
:10525000EA3385F8EC330EE0184800F035F8FDF736
:10526000E3F8FCF7FFFF01F029FAFCF7EBFF99E701
:10527000134800F029F8134B1C70BDE83840FDF7C7
:105280006BB800BFA9C0000807C10008348E002019
:1052900088C1000851C10008B9C00008CCC000088E
:1052A000E6C00008F6C000081AC1000837C10008AF
:1052B0006CC10008ADC10008CFC10008F4C10008EE
:1052C00017C20008B409002010B5114BA2B093F822
:1052D0000231D3B1E0238DF80430F1238DF806308C
:1052E0000023DAB2845CD91CC9B2013324B122AAEA
:1052F000114401F8844CF4E7064B01A88DF8051021
:105300009847054B1C60FDF7AFF922B010BD00BFF8
:10531000FC490020ED010020180027422DE9F04F44
:10532000BDB003908A460027039BDFF858B2DA5BD2
:105330003AF807108A4EDBF8003006F509540B44A2
:10534000CBF800302388A4F1680801332380B8F833
:105350000030100406EB83035968824D4FEA410187
:1053600048BF41F0010159602B8803F10C0126F878
:1053700011203278012A03D0022A00F0E3809AE15A
:1053800029896A89914206D28B4207D3934205D874
:10539000FDF7E6FF02E08B42F8D3F9E72A886B8934
:1053A0009A4240F0C281DFF8E0B1BBF8003003F16F
:1053B000780080B2B0F5875F03D3A3F58350083837
:1053C00080B2694C0821B4F9003004AA0093B4F902
:1053D000223001930023FDF73BF89DF8113003F0D4
:1053E0000F03032B84F82E306CD025D8002B40F00F
:1053F0008B80BBF800004FF4C671FFF723FA5B48BF
:1054000034F92E1CB4F90020B4F92230FEF7A8FCC0
:10541000B4F90030BBF800000093B4F922304FF427
:10542000C671019305AA0823FDF712F801238DF830
:10543000143005A8642165E0072B22D00F2B63D11F
:10544000BBF80000D821FFF7FDF9494834F92E1CBC
:10545000B4F90020B4F92230FEF782FCB4F9003030
:10546000BBF800000093B4F92230D821019305AABB
:105470000823FCF7EDFF01238DF8143005A8372130
:1054800040E0BBF80000B421FFF7DCF9394834F9FB
:105490002E1CB4F90020B4F92230FEF761FCB4F9F7
:1054A0000030BBF800000093B4F92230B42101931E
:1054B00005AA0823FCF7CCFF01238DF8143005A8BA
:1054C0002E211FE0BBF800004821FFF7BBF92A4856
:1054D00034F92E1CB4F90020B4F92230FEF740FC58
:1054E000B4F90030BBF800000093B4F92230482131
:1054F000019305AA0823FCF7ABFF01238DF81430B4
:1055000005A81321FFF70AF91C4B1B8803F58652E7
:105510001F3292B2B2F5875F28BF03F1FF322A81B2
:105520005A1C92B2B2F5875F22BFA3F586531F3B88
:105530006B814FF002033370114B38BF6A81002238
:105540001A60F2E029896A89914206D28B421DD302
:1055500093421BD8FDF704FF18E08B42F8D3F9E71C
:10556000B827002092490020CC49002038C4000808
:10557000C3C4000866C4000895C40008A049002000
:10558000A4490020F449002094490020DFF8F49158
:105590002988B9F80020914240F0C780B9F810205E
:1055A000052A15D1B9F8082002F586511F3189B2B4
:1055B000B1F5875F28BF02F1FF312981511C89B203
:1055C000B1F5875F25BFA2F586521F3A69816A81CE
:1055D000644D4FF458712888FFF734F9B9F9081071
:1055E0006148B5F93620B5F95830FEF7B9FBB5F981
:1055F000363028880093B5F958304FF4587101932C
:1056000005AA0823FCF724FF6B8A013B1FFA83F9E4
:10561000A5F81290B9F1000F2DD15448FFF754FEB0
:105620004846FCF72FFD524B524A1B7882F82193D3
:1056300013F0FB0410D1504B1B786BB1E0238DF8B5
:105640001030322303218DF8123004A84B4B8DF813
:10565000111098474A4B1C604A4B42F20F710022CE
:1056600019806321327083F858109A74C5F80E209F
:1056700083F8622059E0B9F10402534253418DF896
:105680001430238863B1DBF8002005A8B2FBF3F3E4
:10569000C3F307228DF8ED208DF8EE30DB2101E019
:1056A00005A8D921FEF7C6FB0023CBF800302380E4
:1056B000C5F80E3039E0FDF753FE80B12B7E73B98B
:1056C0000120CBF800302380FCF7DCFC294B0122C1
:1056D00083F82123632385F85E300A232B762B7E03
:1056E00013B1294A013B13702B7E012B1DD1274A90
:1056F000138803F2BB7189B2B1F5875F28BFA3F6A7
:10570000251122F8041C03F2BD7189B2B1F5875F3F
:105710001F4A24BFA3F6231313804FF001033370F5
:105720004FF0000338BF11802B761A4B02371A88CE
:10573000013292B2B2F5875F29BF00221A801A8027
:1057400083F86820B8F80020134B013292B2042A83
:1057500088BF0022042F1A807FF4E6AD3DB0BDE87B
:10576000F08F00BF96490020F3C4000821C500084F
:10577000B4090020E42100200C010020ED010020EC
:105780001800274298490020AA4900209E4900207D
:105790009C49002092490020904900202DE9F04FBB
:1057A000A7B0049005910025BA4F0499059B4A5B68
:1057B000595B3B683E1D0B443B603388B64C01335C
:1057C000338036F8643C12F4004F04EB83035968CD
:1057D000DFF8F0924FEA410118BF41F00101596032
:1057E000B9F80030A24603F10C0124F81120227808
:1057F000012A40F06F81B9F80810B9F80A209142E7
:1058000006D28B4207D3934205D8FDF791FB02E005
:105810008B42F8D3F9E7DFF8B082B9F80020B8F886
:1058200000309A4240F09281B8F80E30052B16D124
:10583000B8F8023003F65F1292B2B2F5166F28BFC5
:1058400003F1FF32A9F808205A1C92B2B2F5166F84
:105850002ABFA3F65F13A9F80A20A9F80A308F4BD4
:105860004CF280124FF47A5019884FF4F079864642
:10587000944601F10C033AF91330002B0EDD0FFAB8
:105880008CFC0FFA8EFE6345A8BF9C467345B8BFDB
:105890009E461FFA8CFC1FFA8EFE09E000B212B27F
:1058A0008342B8BF18469342A8BF1A4680B292B24C
:1058B0004B1D9BB2B3F5166F09F1FF3928BFA1F656
:1058C0005B111FFA89F928BF8BB2B9F1000F01D023
:1058D0001946CEE70FFA8CF10FFA8EFE00B212B223
:1058E000714402444910521001EB020B4FEA6B0B5A
:1058F0001FFA8BFCCBEB010B1FFA8BFB0FFA8BF320
:10590000009367480FFA8CF3CDF80CC0FDF76CFAE2
:10591000644A61491378DDF80CC0632B12D10AEB9D
:10592000090309F1020903F59752B9F1200F03F5B4
:105930009853A2F810C0A3F812B0F0D1594B00222E
:105940001A700EE003F6781021F810C003F68810E4
:105950000133DBB201EB40010F2BA1F802B0137051
:10596000ECD8DFF868B10023ABF80030ABF8223098
:105970001A469E460AEB020101F5975001F598512F
:105980001030123100880988023203448E44202AE4
:105990009BB21FFA8EFE03D09BB21FFA8EFEE9E780
:1059A000DFF82C914EF30B1E43F30B139AB21FFA40
:1059B0008EF3ABF80020A9F800303B4839F9521CAF
:1059C00012B21BB2FEF7CCF9BBF9003039F8560C15
:1059D0000093B9F900304FF4F071019307AA08233E
:1059E000FCF7C6FB39F846AC0AF1FF3A1FFA8AFA0F
:1059F00029F846ACBAF1000F2BD12C48FFF764FC14
:105A00005046FCF73FFB2A4B83F821A3294B1B7818
:105A1000032B00D08BB9284B1B7873B1E0238DF892
:105A20001830212303218DF81A3006A8234B8DF856
:105A300019109847224B00221A6042F20F72A8F800
:105A40000020184A002363212370117002F8463C9D
:105A50001CE0BAF10403D3F1000A5AEB030A3388BD
:105A60008DF81CA05BB13A6807A8B2FBF3F3C3F34F
:105A700007228DF895208DF896307B2101E007A84C
:105A80007921FEF77BFE00233B60338049F84A3CD6
:105A90005CE000BF3C8D0020047A0020E08C0020F8
:105AA00042C50008388D002062C5000889C500087D
:105AB000E4210020B4090020D9000020ED010020DD
:105AC00018002742DE8C0020E28C0020148D00207C
:105AD000368D0020FDF72CFA88B199F8143073B98F
