:020000040800F2
:1000000000000120A9830008D1830008D1830008E3
:10001000D1830008D1830008D183000800000000CC
:10002000000000000000000000000000D183000874
:10003000D183000800000000D1830008D1830008AC
:10004000D1830008D1830008D1830008D183000840
:10005000D1830008D1830008D1830008D183000830
:10006000D1830008D1830008D1830008D183000820
:10007000D1830008D1830008D1830008D183000810
:10008000D1830008D1830008D1830008D183000800
:10009000D1830008D1830008D1830008D1830008F0
:1000A000D1830008D1830008D1830008D1830008E0
:1000B000D1830008D1830008D1830008D1830008D0
:1000C000D1830008D1830008D1830008D1830008C0
:1000D000D1830008D1830008D1830008D1830008B0
:1000E000D1830008D1830008D183000800000000FC
:1000F0000000000000000000000000000000000000
:100100000000000000000000D1830008D183000837
:10011000D1830008D1830008D1830008D18300086F
:10012000D1830008D1830008D1830008D18300085F
:10013000D18300080000000000000000D183000807
:10014000D1830008D1830008D1830008D18300083F
:10015000000000000000000000000000000000009F
:10016000000000000000000000000000000000008F
:10017000000000000000000000000000000000007F
:10018000000000000000000000000000000000006F
:10019000000000000000000000000000000000005F
:1001A000000000000000000000000000000000004F
:1001B000000000000000000000000000000000003F
:1001C000000000000000000000000000000000002F
:1001D000000000000000000000000000000000001F
:1001E0005FF8E0F10348044B834202D0034B03B1B4
:1001F00018477047F0080020F008002000000000B9
:1002000005480649091A891001EBD171491002D03D
:10021000034B03B118477047F0080020F008002096
:100220000000000010B5064C237843B9FFF7DAFF51
:10023000044B13B10448AFF300800123237010BDB9
:10024000F008002000000000BCE2000808B5044BE4
:100250001BB104490448AFF30080BDE80840CFE774
:1002600000000000F4080020BCE20008134B002B43
:1002700008BF114B9D46A3F5803A00218B460F46DF
:100280001148124A121A08F047FD0D4B002B00D0FE
:1002900098470C4B002B00D0984700200021040009
:1002A0000D000B4808F0D0FC08F002FD20002900EA
:1002B00005F0C8FF08F0CEFC000008000000012097
:1002C0000000000000000000F0080020C8B7002077
:1002D0007D8C00082DE9F043484C2578002D00F076
:1002E0008A8094F82C53002D40F08580444D2E7860
:1002F00036B901262E7094F804537540414E35608E
:10030000013809283BD8DFE800F005282B2E3134CE
:100310003A3A3A37B4F90A5300264FF0010CB0B21A
:10032000824268D931F91600B4F81A736843C013D1
:1003300000F30F00384480B2B0F5805F22BFB4F8FC
:1003400024730137A4F8247394F82870002B35D156
:10035000C7B184F829C00136E1E7B4F90C53DBE7F3
:10036000B4F90E53D8E7B4F91053D5E7B4F91253E2
:10037000D2E7B4F91453CFE7B4F91653CCE7B4F984
:100380000853C9E7B4F824E0E7691FFA8EFE27F89E
:100390001E00A78C206ABFB2C355A08C278B0130EA
:1003A00080B2A084A08C874200D8A384A78CE08C64
:1003B00080B2B84208BF84F828C0CCE707F0FF0E2F
:1003C000002FC6D1B4F82490E7691FFA89F913F811
:1003D000068027F81900A78C206ABFB200F80780B2
:1003E000A08C278B013080B2A084A08C874298BF5C
:1003F000A4F824E0DAE7BDE8F08300BF885B0020C2
:10040000BE5E0020B08121420F4BD88C998C1A8B94
:1004100089B2814206D193F82830002B0CBF1046D8
:1004200000207047D98C988C884287BF998CD88CD3
:10043000D88C9B8C86BF8018401AC01A80B290421C
:1004400088BF0020704700BF885B0020114B1B78DD
:100450005A1E51425141104A981E11604142A3F167
:10046000030C414142F8041CDCF1000141EB0C019A
:10047000181F51604142A3F1050C41419160DCF12C
:10048000000141EB0C01D160991F4B424B411361BC
:10049000704700BFBA5E00209C81214210B5174B07
:1004A000174A03F1200153F8044B8B4242F8044BE6
:1004B000F9D11B780001137040F00900114BC0B254
:1004C00033F810301049DCB29B0A8008A20803F010
:1004D0003C0381F8590043EA841302F0300002F033
:1004E0000F0240F04D0062F02F0243F0030381F849
:1004F0005A0081F8602081F8613010BD6BCF000890
:10050000B54B002094BC0008684B0020034B1A78C0
:1005100082421CBF024A106018707047B85E00200B
:100520009481214243681BB102680AB102334360DF
:10053000704700002DE9F04FBDF928E003EB4101C1
:10054000BDF92490DFF890801FFA81FACEF1000BFC
:10055000204C00F10C0134F811405E1CA4EB09049E
:10056000B6B224B24FEAE30C03F00705F1100233F0
:1005700006F007065C4512F80C7018F8055018F8DC
:1005800006609BB206DA27EA050502F80C50545CB7
:10059000264308E0002C15DA27EA050502F80C507E
:1005A000545C24EA06065654411D89B2B1F5875FB2
:1005B00023BFA0F586501B3880B208469A45C7D1A4
:1005C000BDE8F08F3D4302F80C507445545CDFDA0F
:1005D000E7E700BFD0730020269B00082DE9F04F0D
:1005E000BDF928E003EB4101BDF92490DFF88C80D0
:1005F0001FFA81FACEF1000B1F495E1C01EB40018E
:10060000CC8AB6B2A4EB090424B24FEAE30C03F09F
:100610000705F110023306F007065C4512F80C706E
:1006200018F8055018F806609BB206DA27EA0505A7
:1006300002F80C50545C264308E0002C15DA27EA37
:10064000050502F80C50545C24EA0606565400F1E5
:100650000A0189B2B1F5F06F26BFA0F2767080B2C0
:1006600008469A45C8D1BDE8F08F3D4302F80C50CA
:100670007445545CDFDAE7E7C05E0020269B000883
:100680002DE9F04FBDF928E003EB4101BDF92490BD
:10069000DFF88C801FFA81FACEF1000B1F4C00F1BD
:1006A0000C0134F811405E1CA4EB0904B6B224B26C
:1006B0004FEAE30C03F00705F110023306F00706DA
:1006C0005C4512F80C7018F8055018F806609BB2DB
:1006D00006DA27EA050502F80C50545C264308E0C8
:1006E000002C14DA27EA050502F80C50545C24EAC1
:1006F00006065654411D89B2B1F5166F26BFA0F605
:100700005B1080B208469A45C8D1BDE8F08F3D43E2
:1007100002F80C507445545CE0DAE8E7E89E0020EB
:10072000269B00082DE9F04F0139CCB2BDF928E035
:10073000991C01EB4401BDF92490DFF88C801FFA6D
:1007400081FACEF1000B1F495E1C01EB40018C8A3F
:10075000B6B2A4EB090424B24FEAE30C03F0070598
:10076000F110023306F007065C4512F80C7018F819
:10077000055018F806609BB206DA27EA050502F86C
:100780000C50545C264308E0002C14DA27EA0505D7
:1007900002F80C50545C24EA06065654411D89B2F6
:1007A000B1F5257F26BFA0F28F2080B208469A457A
:1007B000C9D1BDE8F08F3D4302F80C507445545C3C
:1007C000E0DAE8E770290020269B00082DE9F04FC9
:1007D0000139CCB2BDF928E0991C01EB4401BDF907
:1007E0002490DFF88C801FFA81FACEF1000B1F49AC
:1007F0005E1C01EB40018C8AB6B2A4EB090424B262
:100800004FEAE30C03F00705F110023306F0070688
:100810005C4512F80C7018F8055018F806609BB289
:1008200006DA27EA050502F80C50545C264308E076
:10083000002C14DA27EA050502F80C50545C24EA6F
:1008400006065654411D89B2B1F5B46F26BFA0F219
:100850009B5080B208469A45C9D1BDE8F08F3D4310
:1008600002F80C507445545CE0DAE8E7C00D002053
:10087000269B0008F0B5487BCC7C8600A40026F0BF
:100880003F0604F03C0434430E7B0D7D810941EAB0
:10089000860144EA9514C9B2E4B2C90201EBC4016D
:1008A000C5F3C2052944B1F5006F08460EDB4FF4CD
:1008B000802440F675460B4F384207D0204201D1C4
:1008C0006408FBE7E50A75436840F5E7064C54F811
:1008D00020004140C1F3C721080901F00F01107049
:1008E0001970F0BD00F8FFFF8C9C0008037B10B569
:1008F00003F0FF021BB101234373002010BD0389E5
:1009000044689BB224F813100389018801339BB219
:1009100003810389994298BF0281028943899BB26E
:1009200093424FF0010308BF03731846E6E7000047
:100930002DE9F74F013AD2B202EB82024D1DBDF90B
:1009400038802A4492B2BDF83040BDF934A0DFF8B7
:1009500080900192C8F1000B01F10C0230F81250A6
:10096000671CA5EB0A05BFB22DB24FEAE40E04F0F6
:100970000706FA10023407F007075D4513F80EC0AA
:1009800019F8066019F80770A4B206DA2CEA060610
:1009900003F80E609D5C2F4308E0002D0FDA2CEA6F
:1009A000060603F80E609D5C25EA07079F54053193
:1009B000019A89B29142CFD103B0BDE8F08F4CEAE1
:1009C000060603F80E6045459D5CE4DAECE700BFDF
:1009D000269B00080023C0E90133C0E9033310B5AA
:1009E0000170436100F1180100F5E46421F8023B55
:1009F000A1424FF00002F9D142F20F71C0F828175E
:100A00000021C0F82037C0F82437C0F82C37C0F8D0
:100A10003037C0F83437C0F83837C0F83C37C0F842
:100A20004037A0F8443780F8462780F8472780F8F9
:100A3000482700F24A7300F6526223F8021B9A42DA
:100A4000FBD110BD072910B592BF04464368041DB1
:100A50004FF00F008CBF083923688900884023EAD3
:100A6000000302FA01F11943216010BD10F1FF30BB
:100A700001D300BFFAE77047074AC3B2C0F30721AA
:100A8000515CD35C0B44C0F30741515C000E105C19
:100A90000B441844C0B270479492000842F2D81335
:100AA0002DE9F043684C6948E35A85B004EB8303B1
:100AB0005B6823F07F435840FFF7DEFF022800F217
:100AC000C18042F2DA134FF0000CE35A664603F598
:100AD00083550D35ADB2B5F5875F24BFA3F173051E
:100AE000ADB22A464FF47A50594FDFF868E102F16F
:100AF0000C0334F913301CF90E109F42B8BF1F4687
:100B00009842A8BF1846012909D0032904D0013111
:100B100040F095801E4403E0A3EB8303FAE7F61A46
:100B2000511D89B2B1F5875F24BFA2F586521B3AE9
:100B30000CF1010C2CBF92B20A46BCF1180FD6D1B1
:100B400042F2EC13E358B3427CDA42F23823E35C1E
:100B5000632B0CD142F21422C3195B10A35244F64A
:100B60003E12FB1A534342F23622DB13A35242F2E7
:100B70003623E35E02AF019342F21423E35E1821B1
:100B80000093284600233A46FFF7D4FC0021207842
:100B90000B46002814BF4FF0040C4FF0020CDFF896
:100BA000B8E0DFF8B8807A5C11F80890013182EA89
:100BB00009021EF8022006291344DBB2F3D1634573
:100BC00040D842F2EC130522E65042F2F013E25212
:100BD00042F2DA1342F2E812E35A42F2E011A3526F
:100BE00042F2DE12A55203F58352073292B2B2F5F9
:100BF000875F28BFA3F179026252E0B942F2E612A0
:100C0000A35242F2DC1242F2E211A55203F2BB728D
:100C100092B2B2F5875F28BFA3F62512625242F264
:100C2000E41103F2BD7292B2B2F5875F2ABFA3F658
:100C3000231362526352012005B0BDE8F08303EB39
:100C4000430367E70020F7E7D0730020A030FB00E4
:100C500080C1FFFFBCCD0008949200083A9B0008B9
:100C6000F0B5554C85B0B4F8163F04EB43035888F3
:100C7000C0F3090080F4A67080F00100FFF7FCFECD
:100C8000022800F296800027B4F8183F3D4603F290
:100C90002676B6B2B6F5F06F24BFA3F15A06B6B207
:100CA00031464FF47A524548DFF818E104EB41032E
:100CB000B3F9163017F90EC09842B8BF18469A42D9
:100CC000A8BF1A46BCF1010F0AD0BCF1030F04D033
:100CD000BCF1FF3F6AD11D4403E0A3EB8303FAE7B5
:100CE000ED1A01F10A039BB2B3F5F06F28BFA1F230
:100CF000767107F101072CBF89B219460A2FD5D1A9
:100D0000D4F8243FAB4254DA94F8703F632B0AD1F5
:100D100002445210A4F84C2F821A44F63E1042436B
:100D2000D213A4F86E2FB4F96E3F30460193B4F994
:100D30004C3F03AA00930A210023FFF74FFC2378BE
:100D40009DF80D20002B14BF032001209DF80C30CE
:100D50001B4983F0CD0382F0F5028A5CCB5C13441F
:100D60009DF80E2022F00F0282F090028A5C13445C
:100D700003F0FF0398421CD306230120A4F8283F68
:100D8000B4F8183FC4F8245F03F21B7292B2B2F5B4
:100D9000F06FA4F81E3F28BF653BA4F81A6F34BF5C
:100DA000A4F81C2FA4F81C3F05B0F0BD03EB4303CF
:100DB00091E70020F8E700BFC05E002080C1FFFF80
:100DC00094920008B2CD00082DE9FF4141F2D823EA
:100DD000564C5748E35A04EB83035B68C3F3130391
:100DE0005840FFF749FE032800F29D8041F2DA23C4
:100DF0000027E35A3D4603F60116B6B2B6F5166F64
:100E000024BFA3F15F06B6B231464FF47A52494887
:100E1000DFF828E101F10C0334F9133017F90EC0A3
:100E20009842B8BF18469A42A8BF1A46BCF1010FB3
:100E30000AD0BCF1030F04D0BCF1FF3F70D11D44B8
:100E400003E0A3EB8303FAE7ED1A4B1D9BB2B3F566
:100E5000166F28BFA1F65B1107F101072CBF89B2FD
:100E60001946142FD6D141F2E823E358AB425ADA9F
:100E700041F23433E35C632B0CD141F21033024472
:100E80005210E252821A44F63E1041F2323342438B
:100E9000D213E25241F23233E35E02AF019341F2E8
:100EA0001033E35E304600933A4600231421FFF7E7
:100EB000E7FB2378DFF888C0002B4FF0000314BF56
:100EC000042002201A46DFF87C80F95C13F808E061
:100ED000013381EA0E011CF80110052B0A44D2B23D
:100EE000F3D182421FD841F2E822A55041F2EC2210
:100EF000A35241F2DA23104AE35A41F2DE21138071
:100F000041F2DC220120A65203F6FB0292B2B2F5B6
:100F1000166F2ABF653B6252635204B0BDE8F08190
:100F200003EB43038BE70020F7E700BFE89E0020B8
:100F3000ADB5070080C1FFFFC8B10020D4CD0008C7
:100F400094920008409B00082DE9FF47874C074614
:100F5000B4F8543B864854F8233023F07F4358407C
:100F6000FFF78AFDC31EDBB2122B804640F2AB8036
:100F70000021B4F8563B0E4603F22D5080B2B0F576
:100F8000B46F24BFA3F1730080B284464FF47A5249
:100F9000784DDFF8ECE1DFF8EC9104EB4C03B3F9AA
:100FA00014309D42B8BF1D469A42A8BF1A46B8F1F8
:100FB000020F94BF11F909A011F90EA0BAF1010FA7
:100FC0000AD0BAF1030F04D0BAF1FF3F7ED11E441C
:100FD00003E0A3EB8303FAE7F61A0CF105039BB2D7
:100FE000B3F5B46F28BFACF29B5C01F101012CBFDB
:100FF0001FFA8CFC9C461829CFD1D4F8603BB34231
:1010000061DA2A4452100FFA82F9AA1A44F63145DD
:1010100055430DF1080A45F3CF350423CDE900957A
:101020005246FFF7D3FB0023B8F1020F9C4652490A
:1010300052485DD8DFF850E110F803801AF8032019
:1010400002EA080213F80E80013382EA08028A5C81
:10105000072B94445FFA8CFCEED1BCF1030F32D81D
:10106000BFB30023A4F8725BA4F8705BA4F86E5BB6
:10107000A4F86C5BA4F86A9BA4F8689BA4F8669B30
:10108000A4F8649B84F8743B4023C4F8606B84F834
:10109000753BB4F8563B03F21A4292B2B2F5B46F04
:1010A00028BFA3F5C372A4F85A2B03F20D1292B213
:1010B000B2F5B46FA4F8583B2ABFA3F29343A4F847
:1010C0005C2BA4F85C3B04B0BDE8F08703EB430362
:1010D0007DE794F8743B04EB43020133DBB2032B4E
:1010E000A2F86C5BA2F8649BCCD984F8747BCBE744
:1010F000DFF898E010F803801AF8032002EA0802EB
:1011000013F80E80013382EA08028A5C072B9444AC
:101110005FFA8CFCEED1BCF1030FD4D8B7B1002339
:10112000A4F8725BA4F8705BA4F86E5BA4F86C5B27
:10113000A4F86A9BA4F8689BA4F8669BA4F8649B37
:1011400084F8743BC4F8606B2023A0E794F8743BE8
:1011500004EB43020133DBB2032BA2F86C5BA2F871
:10116000649BEDD984F8747BECE700BFC00D0020D0
:101170006E28760080C1FFFF949200088CBC0008A6
:1011800000CE0008E8CD0008A4CD0008ABCD0008D3
:10119000B0F820372DE9F04700EB83035B68044685
:1011A000794823F07F43584086B08846FFF764FCB7
:1011B000C31EDBB2122B814640F29180B4F8221795
:1011C0000120733989B20F464FF47A5200266F4DD1
:1011D000DFF8C4E1DFF8C4A107F10C0334F91330E0
:1011E0009D42B8BF1D469A42A8BF1A46B9F1020FE8
:1011F00094BF00EB0A0C00EB0E0C1CF901CCBCF107
:10120000010F0AD0BCF1030F04D0BCF1FF3F69D13C
:101210001E4403E0A3EB8303FAE7F61A0130053717
:101220001928BFB2D8D1D4F82C37B34257DA2A44A0
:10123000521017B2AA1A44F63145042355430DF152
:10124000100A45F3CF35009320465346CDE901758A
:101250001822FFF76DFB0023B9F1020F9C464C49A1
:101260004C4851D8DFF838E110F803901AF8032001
:1012700002EA090213F80E90013382EA09028A5C3D
:10128000072B94445FFA8CFCEED1BCF1030F26D8F7
:10129000B8F1000F29D00023A4F83E57A4F83C571A
:1012A000A4F83A57A4F83857A4F83677A4F8347756
:1012B000A4F83277A4F8307784F840374023C4F894
:1012C0002C6784F84137B4F82237A3F5C372A4F829
:1012D000243703F20D13A4F82627A4F8283706B004
:1012E000BDE8F08703EB430392E794F8403704EB43
:1012F00043020133DBB2032BA2F83857A2F8307750
:10130000DAD984F84087D9E7DFF898E010F803903D
:101310001AF8032002EA090213F80E90013382EA58
:1013200009028A5C072B94445FFA8CFCEED1BCF175
:10133000030FD4D8B8F1000F16D00023A4F83E57FD
:10134000A4F83C57A4F83A57A4F83857A4F83677CD
:10135000A4F83477A4F83277A4F8307784F84037CB
:10136000C4F82C672023ACE794F8403704EB430221
:101370000133DBB2032BA2F83857A2F83077EDD94E
:1013800084F84087ECE700BF6E28760080C1FFFF3D
:10139000949200088CBC000800CE0008E8CD00083C
:1013A000A4CD0008ABCD000810B54289416892B2C7
:1013B0000346885C002119735A891C88013292B255
:1013C0005A815A89C0B2944298BF598110BD037B9B
:1013D00010B503F0FF02B3B9038944689BB2E1542E
:1013E0000389018801339BB203810389994298BF25
:1013F0000281028943899BB293424FF0010300D1DD
:101400000373184600E0002010BD428903899BB297
:10141000934205D1027B02F0FF0382B1008870473E
:10142000438902899A429DBF4289038900880389C2
:101430008BBF4089C018181A801A80B270471846AE
:10144000704700002DE9F0411B4C014604EB0016EB
:101450003046FFF7DAFF202809D9D4F8DC30132B07
:1014600005D901F1380354F82330052B0FD8002299
:10147000124B214481F8E82003F1210113F8010FF8
:101480008B4283F8620083F83A20F7D10EE04FF0E8
:10149000000804F1860504F1A7073046FFF784FF32
:1014A00085F8290005F8018FBD42F6D12123C4F843
:1014B000D830BDE8F08100BF684B0020B44B00205D
:1014C0004189038902889BB28B4205D1037B002BA3
:1014D0000CBF10460020704743890189994287BF9D
:1014E000038940894389008986BF8018C01A181A69
:1014F00080B2904288BF00207047000070B504465B
:101500000948FFF7DDFF20280BD9074E04F121051C
:1015100014F8011F3046FFF75AFFAC42F8D1002003
:1015200070BD0520FCE700BF7C24002070B5044698
:101530000948FFF7C5FF2F280BD9074E04F13005E6
:1015400014F8011F3046FFF742FFAC42F8D10020EB
:1015500070BD0520FCE700BF3C6E0020F8B50746D3
:101560000D480C46FFF7ACFFA04211D3013CE1B29D
:101570000948FFF72CFF0025074EEBB29C4205F10E
:10158000010507D93B4459783046FFF720FFF4E7BF
:101590000520F8BD0020FCE7149600202229F8B5AC
:1015A000054620D1134C04F11000FFF789FF2028D5
:1015B0001BD994F8E9302BB10023238384F8E93058
:1015C000638323770C4F05F1210615F8011F384678
:1015D000FFF7FDFEB542F8D1084B187838B9012362
:1015E00084F84C30F8BD0420FCE70520FAE7002021
:1015F000F8E700BF684B0020784B0020BE5E00205B
:10160000024B99685A689142FBD1704770070020DD
:1016100010B5114BA2B093F80231D3B1E023ADF86D
:101620000430F1238DF806300023DAB2845CD91C33
:10163000C9B2013324B122AA114401F8844CF4E761
:10164000064B01A88DF805109847054B1C60FFF765
:10165000D7FF22B010BD00BFD49D002001000020A4
:10166000180027425F2810B5044600F0708124D886
:10167000052800F064810ED8022843D004D8012840
:1016800000F01781B8483EE0032800F05681042896
:10169000F8D1B64837E05B2800F0638106D8062809
:1016A00000F04F810A28EDD1B1482CE05C2800F011
:1016B00056815D28E6D1AF4825E0662800F04981D3
:1016C0000ED8622800F0418103D86028DAD1AA48F8
:1016D00019E0632800F037816528D3D1A74812E0CC
:1016E000692800F03A8106D8672800F0348168281C
:1016F000C8D1A34807E06A2800F02B816B28C1D12C
:10170000A04800E0A048FFF783FF00229F4B022C77
:101710001A601A715A719A60C3E91C22C3F85823DF
:10172000A3F85C2340F0C880002241F2E821984BE6
:1017300063205A5041F23431585441F2D82141F2D9
:10174000DC205A509349042C195003F5975001603E
:1017500041F2E42142F20F70585241F210315A52D4
:1017600041F232315A5241F2EC215A5241F2EE2109
:101770005A5441F238315A5041F23C311A705A529F
:1017800032D0002242F2EC11834B63205A5042F2D5
:101790003821585442F2D81142F2DC105A507D4997
:1017A000052C195042F2E010195042F2E410195081
:1017B00042F2E81142F20F70585242F214215A528A
:1017C00042F236215A5242F2F0115A5242F2F211CA
:1017D0005A5442F23C215A5003F509510A8042F210
:1017E00042211A705A5425D063216C4B002283F891
:1017F000701F42F20F710A2C1A70A3F8182FA3F869
:10180000162FC3F8242FA3F81A1FA3F81C1FA3F840
:101810001E1FA3F8201FA3F8221FA3F84C2FA3F824
:101820006E2FA3F8282F83F82A2FC3F8742FA3F85C
:10183000782F30D000225A4BA3F8242983F834287B
:10184000A3F82629C3F83C28C3F84428C3F8542831
:10185000C3F85C28C3F86428C3F86C28C3F81428BC
:10186000C3F8182883F81C28A3F8102883F800244C
:10187000A3F8EC27A3F8F027A3F8FA271A70A3F827
:10188000EC23A3F8F023A3F8FA2383F82A2883F89B
:10189000282983F829290022424BA3F8E823A3F83A
:1018A000EA2383F8EC23404B1C70BDE81040FEF7A0
:1018B000CDBD3E48FFF7ACFE002342F20F7141F26E
:1018C00095503B4A032CC2F84435C2F84835C2F85B
:1018D0003C35A2F84015374AC2F8603B82F8753BA8
:1018E00082F8763B82F8783BC2F8583BA2F85C1B42
:1018F000314A135441F29650135441F29A50135402
:1019000041F27450135041F27850135041F27C5020
:1019100082F8413782F8423782F84637C2F82037DA
:10192000C2F82437C2F82817C2F82C37115002F534
:10193000AC5213603FF425AFF6E62048E3E62048BA
:10194000E1E62048DFE62048DDE62048DBE62048E7
:10195000D9E62048D7E62048D5E62048D3E62048F7
:10196000D1E62048CFE600BF4ED3000879D1000869
:10197000ADD10008C7D20008F3D1000831D3000868
:101980006AD20008A8D200083CD10008544C0020BC
:10199000E89E00200F270F27D0730020C05E002094
:1019A00058520020D0090020BA5E00204CD1000817
:1019B00070290020C00D0020C02E00205FD100083B
:1019C00089D100089AD10008BCD10008D9D10008FB
:1019D0000ED200082AD2000849D2000889D2000895
:1019E000E9D200080ED30008F0B5224CA3B094F859
:1019F0000241002C3BD0E024ADF80440F4248DF8E3
:101A000006400324E51EEDB2465D22AF651CEDB233
:101A100027441EB107F8846C2C46F3E7081207F838
:101A2000840C22A8054405F8841CA11CC9B20144F9
:101A3000101201F8840CE11C22A8C9B2014401F87B
:101A4000842C221DD2B20244191202F8841CA11D5A
:101A50000534E4B2044404F8843CC9B2064B01A83E
:101A60008DF805109847054B1E60FFF7C9FD23B0A0
:101A7000F0BD00BFD49D00200100002018002742C7
:101A800030B5164BA3B093F802312BB3E023ADF879
:101A90000430F2238DF806300323DA1ED2B2845CC0
:101AA00022AD5A1CD2B21D441CB105F8844C134619
:101AB000F3E7081205F8840C023322A8DBB20244D3
:101AC00002F8841C01A88DF805301946044B98478C
:101AD000044B1C60FFF794FD23B030BDD49D002063
:101AE000010000201800274208B50848FFF7E8FC6D
:101AF000014620B90648FFF7C3FF052008BD0221B3
:101B00000248FFF764FC0020F8E700BFB44F002054
:101B100020D7000870B504460D48FFF7D1FC0C280B
:101B200005D801B20B48FFF7ABFF052070BD0121BE
:101B30000748FFF74CFC064E651E0B3415F8011FD5
:101B40003046FFF744FCA542F8D10020EEE700BF85
:101B5000B44F00203DD7000870B504460D48FFF78C
:101B6000AFFC292805D801B20B48FFF789FF0520F3
:101B700070BD00210748FFF72AFC064E651E283479
:101B800015F8011F3046FFF722FCA542F8D10020CE
:101B9000EEE700BFB44F002000D70008F0B5294C95
:101BA000A3B094F80241BDF9A070002C48D0E02405
:101BB000ADF80440F5248DF806400324E51EEDB28F
:101BC000465D0DF1880C651CEDB2A4441EB10CF805
:101BD000846C2C46F2E708120CF8840C22A8054409
:101BE00005F8841CA11CC9B20144101201F8840C30
:101BF000E11C22A8C9B2014401F8842C221DD2B2F2
:101C00000244191202F8841C621DD2B2024402F886
:101C1000843CA31D04F10801DBB2073403443A12EB
:101C2000E4B203F8842CC9B20444074B01A804F8B9
:101C3000847C8DF805109847044B1E60FFF7E0FC8C
:101C400023B0F0BDD49D00200100002018002742E1
:101C5000F7B54FF47A52DFF80CC1DFF80CE100273A
:101C600016466346744600F10C053EF91550002DEA
:101C70005DDDAB42B8BF2B46AE42A8BF2E46451D28
:101C8000ADB2B5F5875F28BFA0F5865007F1010713
:101C90002CBF1B382846BDB228BF80B2A942E2D86B
:101CA00099196244491052108D186D102EB24D1BB7
:101CB0002DB2334609B2009512B22948FFF76EFFE4
:101CC00042F23821635C632B38D1002342F2F410D6
:101CD00042F2162104EB43020133102B16525552E7
:101CE000F8D142F238230022E254002342F21422B7
:101CF000A35242F236221946A35242F2F4171A4670
:101D000042F2162504EB4300C65B405B01333144CD
:101D10000244102B09B212B2F4D142F21423091179
:101D2000E15242F236231211E25203B0F0BDAA4250
:101D3000A8BF2A46AC45B8BFAC46A0E703F587521A
:101D4000183204EB4202968003F588520133DBB26D
:101D5000083204EB42020F2BD5806354C1D8C4E78C
:101D600082D5000880C1FFFFD0730020034670B504
:101D7000D0E90254D3E904026A4300FB01221E6841
:101D8000986906FB0022D8695E6800FB1422186A75
:101D9000C3E9005406FB1020C01300F30E0000B28C
:101DA000C3E9021070BD036833B1406828B18342B3
:101DB0002CBF0020012070471846704703680BB104
:101DC000012343607047000030B5B0F8EC231D4D8F
:101DD0000346B0F8FA1302F0070400EBD200407893
:101DE0002C5D204007D0D3F8F443B3F9FC03645CC6
:101DF0000CB9404200B2B3F8F843013189B28C42C9
:101E0000A3F8FA139CBF0021A3F8FA13B3F8F01358
:101E1000B3F8EE43013189B28C42A3F8F0130FD826
:101E200000210132B3F8EA4392B29442A3F8EC23C2
:101E3000A3F8F0139EBF1970A3F8EC13A3F8FA13DC
:101E400030BD00BF269B0008B0F8EC3343B9B0F8B2
:101E5000F0332BB9B0F8FA03003018BF01207047F7
:101E60000120704708B50246FFF7EEFF38B901239D
:101E7000A2F8EC031370A2F8F003A2F8FA0308BD6D
:101E800010B50F4CD4F84C3883B104F64800FFF776
:101E90008AFF98B10B48FFF7BBFB2046FFF7E2FF34
:101EA00004F64800BDE81040FFF788BF0548FFF77B
:101EB000AFFB2046BDE81040FFF7D4BF10BD00BF08
:101EC000585200205FD3000870B5AF4C054694F817
:101ED0003438062B3DD8DFE813F007006400940087
:101EE000C700FF000B013601B0B3D4F85038172BF0
:101EF0004CD9A648FFF78CFB0123A54884F8343859
:101F0000FFF75CFF94F8353823B194F837380BB9F4
:101F1000FFF7B6FF4FF496659E4E00213046FEF760
:101F2000E5FC013DF9D19C48FFF748FF9B48FFF7CE
:101F300045FF9B48FFF742FF0120FEF7E7FA012229
:101F4000984B994883F82123FFF762FB0A22974BAD
:101F50001A7094F83438C3B9944E33780A2B14D1DC
:101F6000237893B994F800547DB99148FFF750FB5A
:101F70003570C4F83C58C4F84458C4F85458C4F8F0
:101F80005C58C4F86458C4F86C5870BD8948FFF7B1
:101F90003FFB022384F8343894F83538002BB9D04D
:101FA000B6E7D8B17A48FFF7FEFE0028EDD08148A9
:101FB000FFF72EFB022384F834380023C4F854388A
:101FC00094F83538002BE0D094F83738002BDCD06B
:101FD000FFF756FF7248FFF7F1FEBAE7FEF796FAF1
:101FE000704B83F821037448FFF712FB84F83458D0
:101FF000C4F85458C4F84458C4F85C58C4F83C5861
:10200000A7E710B3D4F84438ABB16348FFF7CBFE71
:1020100088B16A48FFF7FCFA0423012284F83438B7
:10202000002384F82A28C4F85C38C4F84438C4F87B
:102030002C3884F83038D4F83C38002B89D05848F4
:10204000FFF7B1FE002884D0C2E7FEF75FFA554BD8
:1020500083F821035A48FFF7DBFA0323594884F831
:102060003438FFF7ABFEE6E780B10120FEF74EFA09
:1020700001224C4B4F4883F82123FFF7C9FA022372
:1020800084F834380023C4F86438D4E7D4F86438CA
:10209000002BD0D04B48FFF786FE0028CBD04A4813
:1020A000FFF7B6FA062384F83438D4F85C381BB14D
:1020B0003A48FFF778FE40B14448FFF7A9FA444890
:1020C000FFF7D0FE0023C4F85C380023C4F864385E
:1020D000C4F844383F48C4E70028ACD1FEF716FAEC
:1020E000304B83F821033C48FFF792FA0523B5E70C
:1020F00058B10120FEF70AFA01222A4B2F4883F833
:102100002123FFF785FA0423BAE7D4F86438002BBB
:1021100091D02C48FFF747FE00288CD02A48FFF7C3
:1021200077FA0623294884F8343884F82A58FFF7C8
:102130006FFA2748FFF796FEC4F86458C4F85C5855
:10214000C4F84458C6E700284AD00120FEF7DEF95B
:102150000122144B174883F82123FFF759FA022371
:102160001E4884F83438FFF753FA00230A4884F8ED
:102170000034A4F8EC37A4F8F037A4F8FA37FFF7E6
:102180001DFE06486DE700BF585200206DD30008C1
:10219000A85A0020745B0020985A0020B05A0020F2
:1021A000905A0020885B002091D30008BA5E00207E
:1021B00015D400087FD30008A4D30008B7D30008C3
:1021C000C8D30008B85A0020DFD30008EDD30008B8
:1021D00058560020C05A0020F6D300080CD400083E
:1021E000D4F86C38002B3FF426AF0B48FFF7DBFD2B
:1021F00000283FF420AF0948FFF70AFA94F8363870
:1022000084F83458C4F86C580BB1FFF739FE00233A
:10221000C4F83C380FE700BFC05A0020A4D3000820
:102220002DE9F04F7C4B85B093F8EC2806468B46A1
:10223000002A00F0EE8093F8ED380BB180F0010633
:102240007648FEF76FF97648FEF76CF97548FEF7A9
:1022500069F97548FEF766F97448FEF763F9744842
:10226000FEF760F97348FEF75DF900276A4C3BF909
:102270001750B4F908392D0295FBF3F5D4F814285A
:10228000DFF8BCC14FEAE279DCE9001E02FB0EFC7C
:1022900001FB09CCA2FB0189D4F81838E1442DB226
:1022A0004FEAD87C4CEA490C05EB65080CF31E0C90
:1022B000C3EB4C03434441F27078B4F810C894F86F
:1022C0001C080CF1010C1FFA8CFC00F0FE0AC4453E
:1022D00084F81CA8C4F818280193C4F81438A4F88A
:1022E00010C85BD183FB0389CDE90289029B4FEAC9
:1022F000D378039B48EA430808F31E0382FB028954
:102300000293019B4FEAD87C4CEA490C82FB03897B
:102310000CF31E0C4FEAD87242EA490202F31E097E
:102320004A4609FB0EFED31701FB03EEA9FB01236E
:102330007344D10F41EA4301029B01F31E019C4407
:1023400000F00203002BACEB410114BF4FF0010C75
:102350004FF0000CD4F8082818BFD4F80C2891428C
:10236000B5BF20F003004AF0030A40F0010084F8F2
:102370001CA8B8BF84F81C0894F81C38C3F34003A9
:102380009C4504D012B209B22B48FFF72DFB002365
:10239000A4F81038C4F81438C4F8183894F8EC3895
:1023A00094F81C9833BB29462448FEF79FFAB4F8EA
:1023B0001429B4F816399BB2934202D194F8183913
:1023C000C3B1B4F81639D4F810299BB232F81350BF
:1023D000002284F81829B4F81639B4F80C1901331E
:1023E0009BB2A4F81639B4F816392DB2994298BFA9
:1023F000A4F81629DFF84C8019F0010F98F8003086
:1024000022D10A2B00F0E880002F40F0E280012763
:102410002DE7012614E700BF58520020905A0020F3
:10242000985A0020A05A0020A85A0020B05A002034
:10243000B85A0020C05A00202AD40008645B00204B
:10244000585A0020BA5E002009F00209B9F1000FC5
:1024500014BF304600200A2B00F0B480FFF734FD93
:1024600098F800300A2BCFD194F83438013B012B77
:1024700000F2C580B4F9DC38B3B394F8E22852B95D
:10248000AB4200F3B480012384F8E2380023C4F89F
:10249000E43884F8E83894F8E2382BB3D4F8E43818
:1024A000B3F5166F00F2A98094F8E818754DB4F9E9
:1024B000E00855F821504A1C4543D2B20B2A4FEA96
:1024C000E53584F8E82805F30F052DB202D900227E
:1024D00084F8E82842F6DF6201339342C4F8E43816
:1024E00084BF002384F8E238B4F8EE9805FB09F5C0
:1024F0000FFA85F92046FFF7A7FC40B994F80004CD
:1025000010B16148FFF760FC81440FFA89F95E4819
:10251000FFF79AFC58B994F834382078002B71D121
:1025200010B12046FFF750FC48440FFA80F92046CE
:10253000FFF78AFCF0B95448FFF786FCD0B994F84D
:102540002A38BBB142F6E063D4F82C289A4209D964
:1025500094F830380133DBB23B2B94BF84F8303829
:1025600084F83008531C45F6BF52934288BF0023BD
:10257000C4F82C3849464548FFF7F8FB0146444863
:10258000FFF7F4FB01464348FFF7F0FBB4F82618C9
:10259000D4F820284B1C9BB2A4F8263832F911102D
:1025A000B4F824289A429CBF0023A4F8263898F84F
:1025B00000300A2B7FF428AF014409B23648FEF7F9
:1025C00095F921E7FFF780FC98F800300A2B3FF4DB
:1025D0004BAF05B0BDE8F08F002F3FF445AF19F0C9
:1025E000020F14BF30460020FFF76EFC3CE7B4F941
:1025F000DE38AB42BFF647AF4DE700256AE74FF044
:10260000000977E7002839D0B4F8EC33234D04EB08
:10261000D30003F007014078695CB4F8FA2308405E
:1026200007D0D4F8F413B4F9FE03895C09B9404229
:1026300000B2B4F8F813013292B29142A4F8FA232E
:102640009CBF0022A4F8FA23B4F8F023B4F8EE13E8
:10265000013292B29142A4F8F0230FD80022013344
:10266000B4F8EA139BB29942A4F8EC33A4F8F0232F
:102670009EBF2270A4F8EC23A4F8FA2381440FFA39
:1026800089F954E718CE000858560020C85A00208F
:10269000EC5A0020105B0020745B0020269B000891
:1026A000C28983899BB2934205D1027C02F0FF0369
:1026B00082B100887047C38982899A429DBFC289CE
:1026C0008389008883898BBFC089C018181A801A33
:1026D00080B2704718467047F0B53F4C8DB0B4F8E3
:1026E000EC54E5B92046FEF790FEA0B13B4B1B78B9
:1026F000002B54D15F20D4F8F024591C9BB29A428D
:1027000004D9234483F83C000B46F6E7A4F8EC24F4
:102710000023A4F8EE34B4F8EC34002B3DD0FDF7E0
:1027200073FE4FF4E37705462D4E142D35D9B4F8DA
:10273000EE3440F252505A1C2344A4F8EE244FF6D3
:10274000AE2C93F83C204FF63A6E002302F0C00105
:1027500080293ED0C02939D000290CBF714661467E
:102760002DF8131001339200042BD2B2EED102AA3D
:102770006946304605F02EFE0023142202A90220ED
:10278000FDF7A8FDB4F8EE24B4F8EC34143D9A42F9
:10279000ADB2CAD30023C4F8EC340DB0F0BD264668
:1027A0003046FEF701FE63190135212D83F83C0008
:1027B000F6D100230B48E218195C0133272B82F86D
:1027C0005D10F8D14823A4F8EC34A1E72DF81300EC
:1027D000C8E72DF81370C5E77C240020BE5E0020FA
:1027E0008C240020B5CE00082DE9F04FC34CB7B0C3
:1027F0002046FEF70AFE18B9B4F89C32002B55D0DB
:10280000638962689BB2D25CB4F89C3202F0FF0527
:10281000002A40F058819BB9B94B1B78002B4ED150
:102820001A46AA20B4F8A0129DB2A94241D80AB112
:10283000A4F89C120023A4F89E32B4F89C32ABB3E7
:10284000FDF7E2FD40F249370546AE4E282D2DD961
:10285000B4F89E324FF6B74C5A1C2344A4F89E227B
:1028600093F84400012200230BA932EA000E0CBFAA
:1028700021F813C021F8137001335200082BD2B293
:10288000F3D120AA304605F0A5FD0023282220A977
:102890000120FDF71FFDB4F89E22B4F89C32283DBC
:1028A0009A42ADB2D2D30023C4F89C3237B0BDE80F
:1028B000F08FE21882F8440001330122B4E78F4818
:1028C000FEF772FD2E468D4F3846FEF76DFD0DF872
:1028D00006000136292EF7D100231A460BA80DF168
:1028E000800C0CEB03011A540133532B8A70F8D17E
:1028F00000224FF0010E1146834F134600262A4650
:102900001DF8018008010EFA06F518EA050F14BF3C
:102910000125002505EB030913442B44DB0709F0CF
:1029200001090CD500F0070317F803A036AB03EB41
:10293000D00313F8ACBC4AEA0B0A03F8ACACB9F10B
:10294000000F0DD0431C0DF1D80909EBD30903F09A
:10295000070319F8ACACFB5C43EA0A0309F8AC3C8A
:102960000136082E00F10200134640F08980013143
:102970002A29C2D1DFF898E10022704601250DF125
:1029800082030EEB4201B2F5257F7DD236AE06EB17
:10299000D20616F8AC6C37060AD591F800804F784D
:1029A00013F8089005FA07F747EA090703F80870D3
:1029B00077060AD591F80280CF7813F8089005FAC7
:1029C00007F747EA090703F80870B7060AD591F830
:1029D00004804F7913F8089005FA07F747EA0907CA
:1029E00003F80870F7060AD591F80680CF7913F836
:1029F000089005FA07F747EA090703F80870171D5A
:102A0000B7F5257F01F108013CD231070BD510F84D
:102A1000178000EB4707797813F8087005FA01F181
:102A2000394303F8081071070CD5511D10F81170C7
:102A300000EB4101497813F8078005FA01F141EAFA
:102A40000801D955B7070CD5911D10F8117000EB8E
:102A50004101497813F8078005FA01F141EA0801BC
:102A6000D955F1070AD5D11D10F8116000EB4101CD
:102A700049789F5D05FA01F139439955083280E79D
:102A80002A4640E73A467EE70023204D0DF18102B9
:102A900012F8011F585D01334140532B1170F7D1DB
:102AA0004AF2EA63ADF880300023B4F89C12CA18E9
:102AB0001CF8030092B201332244552B82F84400E3
:102AC000F5D15531B4E6012D24D1002B7FF4B8AEF9
:102AD0000A48FEF769FC0C25084FB4F89C6238469A
:102AE000731CA4F89C32FEF75FFC013D264415F0F0
:102AF000FF0586F84400F0D19CE600BFB44F0020EB
:102B0000BE5E0020C44F0020269B00082F9C0008BA
:102B1000BCC30008022D7FF490AE002B7FF490AE72
:102B20001648FEF741FCC82655217A25B4F89C3298
:102B300003F1120080B2E21882F844105A1C92B2DB
:102B4000224482F844109A1C92B2224482F8441023
:102B5000DA1C92B2224482F844101A1D92B2224426
:102B600082F844605A1D063392B29BB222448342DB
:102B700082F84450DFD1A4F89C325BE6B44F0020C9
:102B800030B50024ADF5217D00F080026300EAB18C
:102B9000144A6B4402F1280152F8045B8A4243F85C
:102BA000045BF9D114344000A02CC0B2ECD1234610
:102BB00050AA69460C4805F0F7FD0023224650A9AB
:102BC0000620FDF787FB0DF5217D30BD074A6B44DC
:102BD00002F1280152F8045B8A4243F8045BF9D100
:102BE000E0E700BFD49A0008A49B0020AC9A00083C
:102BF0002DE9F041674CAAB0B4F88435002B39D1E7
:102C00002046FEF702FC88B3634B1B78002B7ED175
:102C100018465F27B4F88825B4F884559EB2711918
:102C2000B24289B205D9214481F8D4700133012020
:102C3000F4E72A4492B208B1A4F884255721B4F8E5
:102C40008435E21882F8D41075215A1C92B22244BD
:102C500082F8D410DA1CA4F88425FD2202339BB23A
:102C6000234483F8D4200023A4F88635B4F88435AF
:102C7000002B64D0FDF7C8FBF5260546474F282DED
:102C800042D9B4F8863540F2DF205A1C2344A4F818
:102C900086254FF6215C93F8D4204FF60B7E002357
:102CA00002F0C001802947D0C02942D000290CBFC2
:102CB000714661462DF8131001339200042BD2B2F5
:102CC000EED102AA6946384605F084FB282316AAED
:102CD00002A9334805F068FD0023282216A9052023
:102CE000FDF7F8FA2F4B283D1B78ADB21BB1D4F895
:102CF0008C35C4F89035B4F88625B4F884359A42FA
:102D0000BDD30023C4F884352AB0BDE8F081302556
:102D100026463046FEF748FBB4F88435013D5A1C80
:102D200015F0FF052344A4F8842583F8D400F0D1DE
:102D300099E72DF81300BFE72DF81360BCE7D4F82E
:102D40009035002BE0D0FDF75FFB0546134F07F1F0
:102D50000C08282DD8D90026042302AA6946384633
:102D6000CDE9006605F036FB282316AA02A94046E5
:102D700005F01AFD3346282216A90520FDF7AAFA08
:102D8000D4F89035283D013BADB2C4F89035002B06
:102D9000DFD1B9E73C6E0020BE5E00204C6E002003
:102DA000586E00207E0800202DE9F0415F4C96B05F
:102DB000B4F87055002D38D12046FEF726FB80B3BD
:102DC0005B4B1B7883B918467727B4F87425B4F8A1
:102DD00070559EB27119B24289B21AD9214481F854
:102DE000C07001330120F4E72046FEF7DDFA2646E5
:102DF0000746EBB29F4211D93046FEF7D5FAB4F838
:102E0000703501355A1C2344A4F8702583F8C0009E
:102E1000EFE72A4492B208B1A4F870250023A4F881
:102E20007235B4F87035002B55D0FDF7EDFA4FF43C
:102E3000D2770646DFF80481142E43D9002540F2EC
:102E4000EC414FF614304FF65C6CB4F872355A1CF6
:102E5000234493F8C030A4F8722503F0C002802AFE
:102E600036D0C02A31D0002A0CBF624602462DF867
:102E7000152001359B00042DDBB2EED12B4602AAB2
:102E80006946404605F0A6FA14230CAA02A929486F
:102E900005F08AFC002314220CA92846FDF71AFA33
:102EA000254B143E1B78B6B21BB1D4F87835C4F864
:102EB0007C35B4F87225B4F870359A42BCD300233F
:102EC000C4F8703516B0BDE8F0812DF81510D0E7C4
:102ED0002DF81570CDE7D4F87C35002BF2D0FDF736
:102EE00093FA0546154F07F10C08142DEAD9002670
:102EF000042302AA69463846CDE9006605F06AFA5D
:102F000014230CAA02A9404605F04EFC33461422B5
:102F10000CA90420FDF7DEF9D4F87C35143D013B03
:102F2000ADB2C4F87C35002BDFD1CBE7149600207E
:102F3000BE5E0020309600207E08002024960020EF
:102F40004FF49C6307B5ADF80430702304218DF86D
:102F50000630074B0DEB01009B788DF80730054BD1
:102F600098470022044B1A6003B05DF804FB00BFD1
:102F7000D49D002001000020180027424FF4BC63BC
:102F800007B5ADF800307F238DF80230074B8DF880
:102F900004009B7805218DF803306846044B984760
:102FA0000022044B1A6003B05DF804FBD49D00209E
:102FB00001000020180027427FB5104B1B78012B21
:102FC00018D80F4B1B78ABB1E0238DF804301123D8
:102FD00003218DF80630431E01A813F8012F0A546F
:102FE00001310F29F9D1074B8DF8051098470022C0
:102FF000054B1A6007B05DF804FB00BFBA5E002005
:103000007D080020010000201800274200B5134B66
:103010008BB01B7813F0FD0F1CD1114B1B78CBB17B
:10302000E02300288DF8003014BF1A2318238DF8F0
:1030300002304B1E032113F8012F0DF8012001313E
:103040002529F8D1074B68468DF8011098470022D2
:10305000054B1A600BB05DF804FB00BFBA5E0020A0
:103060007C08002001000020180027422DE9F04FC5
:10307000A44EABB03446831C871E0593B6F83C259E
:1030800037F9021F56F8223000294FEA4303B8BF30
:1030900043F0010346F8223054F82200B4F83E55BC
:1030A00020F07F4080F4EC0080F4215004EB4503D5
:1030B00080F02E009982FDF7DFFC022800F2CD801F
:1030C000002105F2212080B2B0F5257F24BFA5F1B3
:1030D000730080B202460D464FF47A5EDFF83CC2C0
:1030E000DFF83C8204EB4203B3F9143011F9089085
:1030F0009C45B8BF9C469E45A8BF9E46B9F1010FAE
:103100000AD0B9F1030F04D0B9F1FF3F6AD11D44D1
:1031100003E0A3EB8303FAE7ED1A531D9BB2B3F56B
:10312000257F28BFA2F28F2201F101012CBF92B2AC
:103130001A461829D6D1D4F84435AB4280F28D8096
:103140000EEB0C034FEA630902930FFA89F3039322
:1031500044F63143ACEB090C03FB0CFC4FEAEC33B7
:103160000493BDF91080039B0DF11C0A0093524695
:103170000423CDF80480FDF7D5FA00231A466248EF
:10318000DFF8A0E1DFF8A0C113F80AB013F80E10C1
:103190000BEA010113F80CB0013381EA0B01415C29
:1031A000072B0A44D2B2EFD1032A56D8574B93F8D3
:1031B0000231002B3BD0E023ADF82430F3238DF80F
:1031C000263003235249DA1ED2B212F801A02AA8EF
:1031D0005A1CD2B21844BAF1000F06D000F884ACE1
:1031E0001346F0E703EB430391E70299491200F815
:1031F000841C2AA90A4402F8849C9A1CD2B20A446C
:103200004FEA282102F8841C191D03332AAADBB2D5
:103210001344049AC9B203F8842C09A83D4B8DF8D5
:10322000251098473C4BC3F800A0FEF7E9F9039B33
:10323000C4F84455A4F84835B4F83E35A4F84A8596
:1032400003F20D1292B2B2F5257F25BF6FF4C3725F
:103250009B18A4F84025A4F84035B4F83E25B4F8EE
:103260004035934233D1981D80B2B0F5257F28BFF9
:10327000A3F28E20B4F94A3528BF80B20193B4F985
:10328000483509AA009384210823FDF74BFA07ABC0
:103290000DF11B020DF1250106A8FDF7EBFA94F8DC
:1032A0004C259DF81B309A420AD19DF81C30032B07
:1032B00006D1C32309A900208DF82430FFF7A6FE0C
:1032C00042F20F73A4F840350023C4F84435B4F833
:1032D0003E3501339BB2B3F5257F28BF0023A4F808
:1032E0003E35B4F83C3501339BB2042B88BF002334
:1032F000A4F83C35059BBB427FF4C0AE2BB0BDE8C3
:10330000F08F00BF7029002094920008D49D002007
:103310008CCF0008010000201800274280C1FFFF69
:10332000E8CD00088CBC0008A4CD000801460120AF
:10333000FFF76CBE0078FFF769BE000013B50D4BB8
:103340001B7813F0FD0412D10B4B1B787BB14FF4AB
:1033500078730028ADF8043014BF1B231923032110
:103360008DF8063001A8054B9847054B1C6002B04C
:1033700010BD00BFBA5E00207C08002001000020C4
:10338000180027422DE9F04FC34FDFF828B33C4621
:103390008DB0A0F10209A1F1020A00F10208B7F80C
:1033A000561B3AF8022F07EB410339F9020FA3F835
:1033B0007C2BB7F8542B988257F8223000284FEA1C
:1033C0004303B8BF43F0010347F8223094F8783B39
:1033D000002B63D10120FDF7B7FDB4F8562BB4F8EC
:1033E0005C3B934240F08E80B4F9662BB4F9645B89
:1033F000B4F96C6B1544B4F9682B03F21230154420
:10340000B4F96A2B80B21544B4F96E2BB0F5B46FE1
:103410001644B4F9702B28BFA3F28E201644B4F9D9
:10342000722B45F38F05164494F8752B46F38F06DF
:103430008DF80C2028BF80B20823CDE9005603AADE
:103440008421FDF7C3F994F8753B402B40F0C3800D
:103450000DF10B030DF10A020DF10D0102A8FDF7AC
:1034600009FA94F8772B9DF80A309A4245D1002347
:103470009DF80C2084F8763B84F8793B9DF80B305E
:103480001A438DF80C200A2B00F29F80DFE803F02E
:10349000796B839D9D9D255A5A9D5A00B4F8580B0F
:1034A00000F29F539BB2B3F5B46F00F1010292B2E8
:1034B00024BF00F1FF339BB2B2F5B46F24BFA0F27A
:1034C0009F5292B2934205D2994286D3914284D8B8
:1034D000002080E79942F9D3FAE733462A46B4F947
:1034E000581B6E48FEF780FA03A8FFF71FFF022360
:1034F00084F8783B002384F87A3B0023C4F8603BCF
:1035000084F8753BB4F8563B01339BB2B3F5B46F06
:1035100028BF0023A4F8563BB4F8543B01339BB2B8
:10352000042B88BF0023C845A4F8543B7FF437AF71
:1035300094F8780B003018BF0120FCF7E7FF0DB0BE
:10354000BDE8F08F94F8783B022BD6D133462A465B
:10355000B4F9581B5248FEF747FA03A8FFF7E6FEF6
:103560009DF80B30C7E733462A46B4F9581B4D483F
:10357000FEF73AFA03A8FFF7D9FE012384F8783B57
:10358000BBE794F8783B012BF7D133462A46B4F9D0
:10359000581B4548ECE794F8783B012BADD13346F6
:1035A0002A46B4F9581B4148FEF71EFA03A8FFF754
:1035B000BDFE002384F8763B84F8783BC4F8583B82
:1035C00042F20F73A4F85C3B97E733462A46B4F9FE
:1035D000581B3748E8E7202B12D133462A46B4F966
:1035E000581B5846FEF700FA03A8FFF79FFE012379
:1035F00084F8783B002384F8763B84F8793B7CE7B9
:1036000094F8783B002B3FF478AF94F8763B013385
:10361000DBB20C2B84F8763B11D90120FFF78EFE2C
:103620000023C4F8603B84F8753B84F8763B84F84B
:10363000783BC4F8583B42F20F73A4F85C3B94F813
:10364000783B012B17D194F8793B03A9042B83BF56
:1036500020238DF80C300023013398BFDBB24FF0EC
:1036600001008EBF84F8793B84F8793B8DF80C30EB
:10367000FFF7CCFC41E7022B7FF43FAF94F87A3B95
:10368000002B3FF43AAF43F0400303A88DF80C3011
:10369000FFF74CFE31E700BFC00D00205BD70008EC
:1036A0008CD70008BED70008F0D7000825D800083E
:1036B0005BD8000885D80008F0B5B0F8223704467A
:1036C000B0F828078FB0984202D3B3F5617F06D3D4
:1036D00094F84607003018BF01200FB0F0BD04EB8E
:1036E0004300A0F84A270183B4F82007002904EB1F
:1036F000800042684FEA4202B8BF42F001024260D5
:1037000094F84627002A63D1A3F5C8735A2B03D82F
:1037100001212046FDF73CFDB4F82237B4F8281704
:10372000994278D1B4F93237B4F93057B4F93867DF
:103730001D44B4F934370EAF1D44B4F93637A1F245
:103740008E211D44B4F93A3745F38F051E44B4F970
:103750003C3784221E44B4F93E3789B21E4494F8A3
:10376000413746F38F0607F8243D0823CDE901567B
:10377000009320463B46FDF7DBF894F84137402B99
:1037800040F0BC800DF112030DF113020DF1150193
:1037900004A8FDF76FF894F843279DF813309A4278
:1037A00039D100239DF8142084F8423784F8473734
:1037B0009DF812301A438DF814200A2B00F29380E2
:1037C000DFE803F065507491919112383891380018
:1037D000B4F82427511E89B28B429DD3013292B294
:1037E000934299D8002194E72378B4F92427002B39
:1037F00018BF02212B4608BF012170480096FEF732
:10380000CDF939462046FFF795FD022384F8463767
:10381000002384F84837B4F822370133A4F822375C
:10382000B4F8203701339BB2042B88BF0023A4F8DF
:1038300020374DE794F84637022BECD12378B4F9C2
:103840002427002B18BF02212B4608BF01215C480A
:103850000096FEF7A3F939462046FFF76BFD9DF869
:103860001230D6E72378B4F92427002B18BF0221A1
:103870002B4608BF012153480096FEF78FF93946C1
:103880002046FFF757FD012384F84637C3E794F835
:103890004637012BF7D12378B4F92427002B009663
:1038A0002B4614BF022101214748E6E794F846372A
:1038B000012BB0D12378B4F92427002B18BF0221A3
:1038C0002B4608BF012141480096FEF767F93946AB
:1038D0002046FFF72FFD002384F8463742F20F738E
:1038E000A4F8283797E72378B4F92427002B00960B
:1038F0002B4614BF022101213548E6E7202B19D1C0
:103900002378B4F92427002B18BF02212B4608BFC7
:10391000012130480096FEF741F939462046FFF76D
:1039200009FD012384F84637002384F8423784F8E0
:10393000473770E794F84637002B3FF46CAF94F8A4
:1039400042370133DBB20C2B84F8423709D9207897
:10395000FFF7F4FC002384F8463742F20F73A4F813
:10396000283794F84637012B16D194F84737394653
:10397000042B83BF20238DF814300023013396BF1E
:10398000DBB284F8473784F84737207898BF8DF842
:103990001430FFF73BFB3EE7022B7FF43CAF94F87B
:1039A0004837002B3FF437AF43F0400339462046F9
:1039B0008DF81430FFF7BEFC2DE700BFB8CF00082C
:1039C000EFCF000827D000085FD000089AD0000889
:1039D000D6D0000806D1000810B5114B9EB01B7858
:1039E00013F0FB031AD10F4A1278BAB1E0228DF816
:1039F000002030228DF80220C45C0DEB030201335D
:103A0000D470DAB29142F7D80331C9B2064B684696
:103A10008DF8011098470022044B1A601EB010BDAB
:103A2000BA5E0020BC5E0020010000201800274282
:103A300042F2DC13F0B5784C9DB0E35A02AA03F1D0
:103A4000780080B2B0F5875F28BFA3F5835042F2BB
:103A50003623E35E28BF0838019342F21423E35E65
:103A600028BF80B2009308210023FCF763FD42F2D7
:103A700042229DF8093003F00F03A3540F2B2ED8D8
:103A8000DFE803F0082D2D882D2D2D712D2D2D2DE6
:103A9000522D2DA942F2DC174FF4C671E05BFEF700
:103AA000D7F842F2362642F2142542F2E611A35F1D
:103AB000625F615E5948FDF797FFA35F4FF4C671DF
:103AC0000193635FE05B009303AA0823FCF732FDD8
:103AD000012364218DF80C3003A8FFF77DFF42F22B
:103AE000E81342F2E211E35A03F586521F3292B212
:103AF000B2F5875F28BF03F1FF32625242F2E41150
:103B00005A1C92B2B2F5875F22BFA3F586531F3BC2
:103B100063524FF0020338BF62522370002242F218
:103B2000EC13E2501DB0F0BD42F2E61542F236272A
:103B300042F21426B421605BFEF78AF8E35F38484E
:103B4000A25F615FFDF750FFE35F605B0193A35FDE
:103B50000093B421082303AAFCF7ECFC01232E21D7
:103B60008DF80C30B8E742F2DC17B421E05BFEF7C9
:103B70006FF842F2362642F2142542F2E611A35FB4
:103B80002848625F615EFDF72FFFA35FE05B019352
:103B9000635FDDE742F2DC174821E05BFEF758F88F
:103BA00042F2362642F2142542F2E611A35F625F2A
:103BB000615E1D48FDF718FFA35F48210193635F15
:103BC000E05B009303AA0823FCF7B4FC0123132154
:103BD0008DF80C3080E742F2DC17D821E05BFEF76D
:103BE00037F842F2362642F2142542F2E611A35F7C
:103BF000625F615E0D48FDF7F7FEA35FD821019378
:103C0000635FE05B009303AA0823FCF793FC0123A6
:103C100037218DF80C305FE7D07300204AD40008BC
:103C200078D40008A6D40008D5D4000803D500082D
:103C300000B50F4BA3B01B78632B15D1E0238DF893
:103C40000430082303218DF80630431E01A813F821
:103C5000012F0A5401310829F9D1064B8DF80510BE
:103C600098470022044B1A6023B05DF804FB00BFA4
:103C7000BA5E0020010000201800274242F2F01333
:103C80002DE9F041524CF8B0E35A052B1AD142F21B
:103C9000E81342F2E211E35A03F586521F3292B260
:103CA000B2F5875F28BF03F1FF32625242F2E4119E
:103CB0005A1C92B2B2F5875F25BFA3F586531F3B0E
:103CC0006252635242F2DE184FF4587134F8080021
:103CD000FDF7BEFF42F2362642F2142542F2E81109
:103CE000A35F625F615E3B48FDF77EFEA35F02AFAC
:103CF0000193635F34F8080000933A4608234FF4B9
:103D00005871FCF717FC42F2F013E55A013DADB2D1
:103D1000E552314B1B7803F0FB0685BB2F48FDF7BE
:103D200077FC2846FCF7F2FB2D4B83F821537EB934
:103D30002C4B1B7863B14FF47873ADF8E430322329
:103D400003218DF8E63039A8274B9847274B1E6092
:103D500042F2E01242F20F71A15242F23822632184
:103D60000023A15442F2F212A35442F2EC12A350E7
:103D700042F242222370A35478B0BDE8F0812B1F99
:103D80005D425D413D70CEB9164B1B78B3B1E02367
:103D90008DF8E43031238DF8E630334639AA1A44E1
:103DA000F95C0133D92BD170F8D1DC210E4B39A845
:103DB0008DF8E510984700220C4B1A60002342F260
:103DC0003C22A3500A4A138042F2EC12A350D3E7DC
:103DD000D073002033D50008BA5E002061D50008FA
:103DE000885B0020BC5E00200100002018002742F4
:103DF000109600202DE9F84F544EA0F1020806F568
:103E00000959CB46A1F1020A871C514D3AF8022FFD
:103E10002B6838F9021F13442B6035F8642CB9F86D
:103E2000003006EB82020133A9F800305368002904
:103E30004FEA4303474CB8BF43F001035360238864
:103E400003F10C0226F812103278012A3BD0022A24
:103E500066D0FCF723FE80B1237E73B901202B606E
:103E6000ABF80030FCF752FB01223B4B83F82123D7
:103E7000632384F85E300A232376237E0BB1013B53
:103E80002376237E012B2ED134490B8803F2BB729B
:103E900092B2B2F5875F28BFA3F6251221F8042C51
:103EA00003F2BD7292B2B2F5875F2D4924BFA3F62B
:103EB00023130B804FF0010333704FF0000338BF22
:103EC0000A8023760FE021896289914225D28B42B4
:103ED00003D3934201D8FCF7E1FD228863899A421B
:103EE00001D1FFF7A5FD238801339BB2B3F5875FAE
:103EF00025BF00231B4A2380238028BF137035F879
:103F0000643C01339BB2042B88BF0023474525F84E
:103F1000643C7FF47AAFBDE8F88F8B42D9D3DAE7FF
:103F20002189628991420DD28B4203D3934201D8F9
:103F3000FCF7B4FD0C4B22881B889A42D3D1FFF7C3
:103F40009DFED0E78B42F1D3F2E700BFD073002093
:103F50000C960020AA950020885B0020B6950020D2
:103F6000B495002012960020B09500202DE9F04F66
:103F7000B64DDFF800932C46B3B0871EA1F10208BE
:103F8000861C38F8022FD5F8743F37F9021F134406
:103F9000C5F8743FB5F8162FB5F8783F05EB420227
:103FA0000133A5F8783F538800294FEA43039BB2B9
:103FB000B8BF43F001035380B4F8183F04EB430249
:103FC000D1822278012A40F05981B4F8201FB4F838
:103FD000222F914280F0F4808B4203D3934201D888
:103FE000FCF73EFEB4F8182FB4F81C3F9A4240F09C
:103FF000CE80B4F8283F062B16D1B4F81E3F03F24A
:104000007F7292B2B2F5F06F28BF03F1FF32A4F8CD
:10401000202F5A1C92B2B2F5F06F2ABFA3F27F7321
:10402000A4F8222FA4F8223F4FF47A52DFF848E296
:10403000C02092467146B4F81A3F04EB430CBCF919
:1040400016C0BCF1000F40F3BF806145B8BF6146A8
:10405000E245A8BFE24603F10A0C1FFA8CFCBCF54E
:10406000F06F00F1FF3028BFA3F2767380B22CBF4F
:104070009BB263460028E0D151447244491052106B
:1040800001EB020A4FEA6A0A0FFA8AFBA1EB0A0A5D
:104090000FFA8AFA5B4609B2CDF800A012B26C485A
:1040A000FDF77CFD94F8703F6A49632B40F09380E4
:1040B000A1F1200323F802BF9942A3F822A0F9D16D
:1040C000002384F8703F00231A466348A4F84C3F4D
:1040D000A4F86E3F30F802CF6244B0F822C08142AB
:1040E000634412B21BB2F5D112111B11B4F91E1F99
:1040F0005A48A4F84C2FA4F86E3FFDF775FCB4F9AC
:104100006E3FB4F81A0F0193B4F94C3F0DF1100B48
:1041100000935A460823C021FCF760FAB4F828AF90
:104120004F4B0AF1FF3A1FFA8AFAA4F828AF1B781E
:10413000BAF1000F5DD14B480393FDF769FA504681
:10414000FCF7E4F9039B484A052B82F821A300D031
:1041500083B9464B1B786BB14FF47873ADF844309C
:10416000412303218DF8463011A8414B9847002385
:10417000C9F8003042F20F720023A4F81C2F63220A
:10418000237084F8702F84F82A3FC4F8243FB4F8D1
:10419000183F01339BB2B3F5F06F28BF0023A4F89A
:1041A000183FB4F8163F01339BB2092B88BF002398
:1041B000BE42A4F8163F7FF4E4AE33B0BDE8F08F02
:1041C0008B42FFF40BAF0BE76245A8BF6246E645A2
:1041D000B8BFE6463FE704EB43020133DBB20F2BE7
:1041E000A2F82CBFA2F84EAF84F8703F3FF668AF3C
:1041F00069E7AAF10502D2F1000A4AEB020A052B8F
:104200008DF810A000D0D3B9184B1B78BBB1E023B8
:104210008DF8443040238DF84630002311AA1A440B
:104220001BF803100133312BD170F7D13421104B1F
:1042300011A88DF8451098470023C9F800300023D5
:10424000C4F8743FA4F8783F9FE700BFC05E002029
:104250000AD600080A6E0020EA6D00202BD600085E
:10426000BA5E002053D60008885B0020BB5E0020A9
:10427000010000201800274280C1FFFFFCF7F0FC7E
:1042800098B194F82A3F83B90120C4F8743FA4F888
:10429000783FFCF73BF90122194B83F82123632374
:1042A00084F8703F052384F82A3F94F82A3F13B11D
:1042B000013B84F82A3F94F82A3F012B7FF467AF33
:1042C000B4F81E3F03F27F7292B2B2F5F06F28BFCE
:1042D00003F1FF32A4F8202F5A1C92B2B2F5F06F0E
:1042E00024BFA3F27F73A4F8223F4FF00103237091
:1042F0004FF0000338BFA4F8222F84F82A3F46E786
:10430000885B00202DE9F04F831EC7B003938B1EFE
:104310000493DFF824B3831C0593039BDFF81C93FD
:1043200033F9021F09F104080393049BAF4F33F8DC
:10433000022F00290493D9F80030AD4C1344C9F87A
:10434000003038F8642CB8F8003007EB820203F133
:104350000103A8F800305368BA464FEA4303B8BFD8
:1043600043F001035360238803F10C0227F8121075
:104370003A78012A40F06481BBF8001062899142CA
:1043800080F0EC808B4203D3934201D8FCF71CFDF4
:10439000984B21881A88914240F0C780DA89052A13
:1043A00016D15B8803F65F1292B2B2F5166F28BF82
:1043B00003F1FF32ABF800205A1C92B2B2F5166F2F
:1043C00033BF8D4B8C4AA3F65F131A8028BF13802E
:1043D0004FF47A5289484FF4F07594460146884B61
:1043E0001B8803F10C063AF91660002E40F3BA80E0
:1043F000B142B8BF3146B445A8BFB4465E1DB6B29F
:10440000B6F5166F05F1FF3528BFA3F65B13ADB205
:104410002CBF9BB23346002DE3D1614402444910C6
:1044200052108E18761033B28E1B36B209B2009637
:1044300012B274480293FDF7B1FB73490B78632BFA
:1044400040F0978041F2F02141F212320AEB45032D
:1044500002980135102D58529E52F7D100226A4B16
:104460001A70002141F2F02E0B460A4641F2123C2E
:10447000664D298069840AEB410636F80E00013149
:10448000024436F80C001029034412B21BB2F2D1D8
:104490005F4E12111B1136F9521C5E482A80338080
:1044A000FDF7A2FAB6F9003036F8560C0193B5F9CB
:1044B00000300DF1180A0093524608234FF4F071B2
:1044C000FCF7DEF836F8465C534B013DADB226F8FA
:1044D000465C1E78002D5DD15048FDF799F82846BE
:1044E000FCF714F84E4B032E83F8215300D086B905
:1044F0004C4B1B786BB14FF47873ADF8943021239B
:1045000003218DF8963025A8474B98470022474B4A
:104510001A6042F20F71374B0022198063213A7002
:1045200083F856101A74C3F80A202388404A0133CE
:104530009BB2B3F5166F28BF002323801388013385
:104540009BB2042B84BF0023394A1380059B039A36
:1045500093427FF4E2AE47B0BDE8F08F8B42FFF4A8
:1045600013AF13E7B242A8BF3246B042B8BF3046DD
:1045700044E7029803F6781227F8120003F688122F
:104580000133DBB20AEB42020F2B56800B703FF671
:1045900065AF66E72B1F5D425D41032E8AF8005030
:1045A00000D0D6B91F4B1B78BBB1E0238DF89430F7
:1045B00020238DF89630002325AA1A441AF80310F8
:1045C0000133792BD170F7D17C21174B25A88DF8B9
:1045D000951098470022154B1A600023154AC9F818
:1045E0000030A8F8003013609FE700BFE89E00206D
:1045F000C2B10020C6B10020CCB1002080C1FFFFB5
:10460000C4B10020A2D500081CB20020F8B10020DF
:104610001AB20020C2D50008BA5E0020E9D5000811
:10462000885B0020BF5E00200100002018002742A8
:10463000C0B10020D0B10020CAB1002020B20020BB
:10464000FCF7C2FB88B1237D7BB90120C9F800309B
:10465000A8F80030FBF75AFF0122164B83F82123FC
:10466000632384F85A3005232375237D0BB1013B66
:104670002375237D012B7FF458AF0F490B8803F678
:104680005F1292B2B2F5166F28BF03F1FF324A8073
:104690005A1C92B2B2F5166F084924BFA3F65F13F5
:1046A0000B804FF001033B704FF0000338BF0A80CE
:1046B00023753AE7885B0020C8B10020CCB1002008
:1046C00000232DE9F041144DDFF854C0134EC5F816
:1046D0007B30C5F87F30C5F8833013F80C4003F009
:1046E0000708E11004F00704375DDC1010F804E05F
:1046F0006A1816F8084092F87B201EEA040F03F1AE
:10470000010314BF3A43BA432944442B81F87B2068
:10471000E3D10020BDE8F081684B0020269B000813
:104720005D9B00082DE9F04F694DA9B02C468B1E0A
:104730000293831E05938B1C0793029B33F8022F71
:104740000293D5F858331344C5F85833B5F85C33A1
:10475000059A0133A5F85C3332F8023F05922A79B5
:10476000DB0B9A4209D02A68B2F5004F2ABF6FF4DA
:10477000CC7C02F2991262442A602268237102F50D
:104780004C513331B1F5803F07D22160079B029A2B
:104790009342D2D129B0BDE8F08FA2F54C42CD3A78
:1047A00022606279012A00F0B1803FD3022AEDD164
:1047B000A168226F4900D608A16002F00707A0197E
:1047C000002B00F0858341F00101A1604149037B8A
:1047D000C95D0B43264433733F48A668571C70409D
:1047E0002767FCF749F9012800F2FC8200263B48C4
:1047F000FCF70EFF0020FBF789FE394B83F821639D
:10480000384B1B78012B0FD8374B1B7863B14FF413
:104810007873ADF84C3013238DF84E300321334BB1
:1048200013A89847324B1E6000231BE0A268520079
:10483000D3B9A260A6682F4826F07F467040FCF7E7
:104840001BF9022813D82C48FCF7E2FE5322002162
:104850002A4804F061FA00232367C4F85833A4F807
:104860005C330123637191E742F00102E1E72448E0
:104870007040FCF701F90646002887D12148FCF773
:10488000C7FE0120FBF742FE0122154B1B4F83F8A8
:1048900021231D4BC4F8586318685968A4F85C6359
:1048A00003C798683860A7F10800FEF785FB0E2261
:1048B0003146A7F10800C4F85863A4F85C6304F01B
:1048C0002BFA4FF41653266763670223CAE700BF2B
:1048D000544C0020559B00085E13AAAAB8D60008C5
:1048E000885B0020BA5E00207D08002001000020C7
:1048F000180027425076550075D60008604C0020FD
:1049000068B4AA0097D6000898CD0008226FA16865
:10491000D7084900E019A16002F00706007B002BD0
:1049200000F0D282C24B41F001019B5DA1600343C4
:1049300001322744B2F5257F3B7322677FF426AF0F
:104940000023BC4ABC4E12F8011F985D0133414060
:10495000532B1170F7D10023194613AA9954013330
:10496000542BFBD1DFF8DCC20023614680200CEB26
:104970004302B3F5257FC0F2C8800023C4E91F338A
:10498000C4E92133DFF8B8C2A3670093009A28ABCB
:1049900003EBE202009B12F8547C03F0070680232D
:1049A00023FA06F240233A4023FA06F614BF012107
:1049B00000213E40B2FA82F2B6FA86F614BF012711
:1049C00000277609520902EB06083A440392D5F80B
:1049D00084E08A19EE6FC81908EB0E0A00EB060B8B
:1049E000D3455F46A8BF57460492AA6FD3450192AC
:1049F00001994FEAD202A8BF904B069702F1220715
:104A000001F0070105EB8707D7F80490ACBF13F856
:104A100001A01CF801A070444644B4BF0AEA090989
:104A20004AEA09098642B346A8BF83468642C7F8C8
:104A30000490A8BF814B02F14C0704EB8707D7F81D
:104A400004E0ACBF585C1CF80100D5F88060039B03
:104A5000B4BF00EA0E0040EA0E0003EB06097860DE
:104A6000049BD5F88800CA4603EB0008C145A8BFDF
:104A7000C246C145A8BF714B02F17607A8BF13F823
:104A80000180049B05EB870733441E46039BD7F840
:104A900004E0B8BF1CF801800344B4BF08EA0E0E5E
:104AA00048EA0E0EA0329E42C7F804E004EB8202F0
:104AB0003746A8BF1F469E42D2F804E080F2B3807A
:104AC0001CF8011001EA0E01069B5160C4E91F3B6E
:104AD000009B019A02330132B3F5257FC4E921A777
:104AE000A26700937FF452AF002240F249111346AF
:104AF0005248534F032B00F2C080DFE813F0A500AB
:104B00003E01550162013B4633E704EBE306367B89
:104B1000F7070CD592F800E028AFBE4457781EF88E
:104B2000548C20FA07F747EA08070EF8547CB707B9
:104B30000CD592F802E028AFBE44D7781EF8548C0A
:104B400020FA07F747EA08070EF8547C77070CD5D8
:104B500092F804E028AFBE4457791EF8548C20FA2E
:104B600007F747EA08070EF8547C37070CD592F888
:104B700006E028AFBE44D7791EF8548C20FA07F718
:104B800047EA08070EF8547C1F1DB7F5257F02F190
:104B90000802B8DAF2060DD511F817E028AA01EBE1
:104BA000470796447A781EF8547C20FA02F23A437A
:104BB0000EF8542CB20610D55A1D11F812700DF1D2
:104BC000A00E01EB42027744527817F854EC20FA19
:104BD00002F242EA0E0207F8542C770610D59A1D0D
:104BE00011F812700DF1A00E01EB420277445278D9
:104BF00017F854EC20FA02F242EA0E0207F8542C9D
:104C000036060ED5DA1D11F8126028AF01EB42020C
:104C10003E44527816F8547C20FA02F23A4306F8E1
:104C2000542C0833A3E6054B595C41EA0E014BE7CF
:104C3000559B00085F4C0020D49B0008269B000871
:104C4000459B000894BE0008CE1001F0070305EB59
:104C5000860610F803C0D6F88C301CEA030318BF90
:104C6000022305EBD20C02F00706BE5D9CF82CE394
:104C700006EA0E068CF82C63013211F1FF31BFF405
:104C800039AF00231A4608A9CA540133292BFAD197
:104C900040F2491301271846904E05EBE30103F05B
:104CA000070E91F82CC316F80E10C21A1CEA010F59
:104CB0000ED0D1080DF1200C1CF801C002F0070243
:104CC00007FA02F242EA0C020DF1200C0CF8012066
:104CD00013F1FF33E1D20021814808AA525C01316F
:104CE0005A40D2B230F81220C3F307235A40272982
:104CF0001346F2D1D3439DF847109BB2DAB29142EA
:104D00006DD19DF84820B2EB132F68D10120FBF73D
:104D1000FDFB0122734B83F82123734B1B789342D5
:104D20001AD8724B1B78BBB1E0238DF84C3010239E
:104D30008DF84E30002313AA08A91A44C95C013328
:104D4000292BD170F7D12C21694B13A88DF84D1068
:104D500098470022674B1A6000260E2231466648AB
:104D6000C5F85863A5F85C6303F0D6FF02236B71A6
:104D70004FF416532E676B6708E5CE1001F007035A
:104D800005EB860610F803C0D6F834311CEA03039D
:104D900018BF022305EBD20C02F00706865D9CF8D3
:104DA0002CE346EA0E0665E7CB1005EB830301F022
:104DB0000706D3F8DC31865D1E4214BF03230123AE
:104DC0004FE7CE1005EB860601F0070C10F80CC07B
:104DD000D6F884621CEA060F08BF0123DAE7002335
:104DE0006B71D3E45C2F4AD9444826F07F43584086
:104DF000FBF742FE022842D860224FF416530127E7
:104E0000C4E91C23236F602B1CD1DFB93C48C6F3D7
:104E100016035840FBF730FE022832D93948C6F352
:104E200015035840FBF728FE02282CD93648C6F354
:104E300014067040FBF720FE022803D80323C3F1B9
:104E400060032367666F013E6667F6B92F48FCF77B
:104E5000DFFB3046FBF75AFB224B83F82163224BE2
:104E60001B78012B3FF6E0AC204B1B78002B3FF466
:104E7000DBAC4FF47873ADF84C301223CCE4002750
:104E8000C0E70123DBE70223D9E7236F602B7FF420
:104E90007DACAFB1552363752D23A375162316483A
:104EA000E375FEF789F80023C4F85833A4F85C339F
:104EB0000E220021104803F02FFF0023236765E432
:104EC0000D48FEF779F8F3E7114B9B5D03402FE5A2
:104ED0000F49037BC95D0B407CE400BF269B0008A3
:104EE0008C940008885B0020BA5E00207D080020BA
:104EF0000100002018002742604C002068B4AA007E
:104F0000345A55001AAD2A008D561500D8D600081F
:104F10004D9B0008F8B5484C0646D4F8DC30474DA8
:104F20000133C4F8DC30D4F8E0300133C4F8E030A9
:104F3000D4F8E4300133C4F8E43094F86E300B2B2D
:104F400084BF002384F86E3094F86E309BB9A5F1CD
:104F50006F00FCF75AFA002868D1A5F15F00FCF752
:104F600054FA002862D1364A1368C4F86F30536887
:104F70006B609368AB6094F86E3001291D442B88F8
:104F80004FF00000A4F8AF30AA782E4B84F88700C9
:104F90009A700CBF0823042384F88930D4F8DC30DD
:104FA00084F88800132B06D904EB0110FCF72DFAC6
:104FB000003018BF012094F86E2006F00101002A8D
:104FC00036D0B2F1090C18BF4FF0010C012594F84E
:104FD000AF3081EA000743EAC01094F8B030012EE8
:104FE00008BF0826694043EAC513AF4214BF022533
:104FF0000025614514BF2021002143EACC032B4347
:1050000084F8B03094F8B130674514BF0227002708
:1050100019430323064339431A4484F8AF6084F8E4
:10502000B110C4F8D83084F86E20F8BD064A9BE76A
:1050300015464FF0010CCAE7684B0020D74B002003
:105040002E9B0008174C0020E34B00202DE9F04771
:10505000584C92B094F84C30002B00F08180B4F89A
:10506000D8207ABB013B042B00F29880DFE803F0E4
:105070000396100A15000020FCF7E4F9042384F8D5
:105080004C301FE000210120FFF744FF0323F6E727
:105090000120FCF7D7F90223F1E7474B1B78622B7D
:1050A00061D15F200021454B03F1210283F82900E3
:1050B00003F8011F9342F9D12123A4F8D83000232B
:1050C000A4F8DA30B4F8D830002B49D0FBF79CF9BB
:1050D0004FF4E3790646DFF8EC80142E40D9B4F89B
:1050E000DA200025A11891F8AF3091F887A04FF68B
:1050F000AE2040F252514FF63A6C0132A4F8DA2059
:1051000001AF03F0C002802A51D0C02A4CD0002A3F
:105110000CBF6246024627F8152001359B00042D7E
:10512000DBB2EED11422002103A803F0F5FD2B46DB
:1051300008AA394640468DF816A003F04BF903AB98
:10514000142208A90220FBF7C5F8B4F8DA20B4F855
:10515000D830143E9A42B6B2BFD30023C4F8D83038
:1051600012B0BDE8F0875F2BA9D155200021134B69
:10517000DA1D83F8290003F8011F9342F9D15F2358
:10518000FF20002184F8B6300D4BDA1D83F829008A
:1051900003F8011F9342F9D10F238EE7012100206C
:1051A000FFF7B8FE01236AE727F81510B5E727F8DF
:1051B0001590B2E7684B0020BA5E0020EE4B00204D
:1051C000F64B0020884B0020002310B503810446D5
:1051D000438101800373084603F00EFD60602046A2
:1051E00010BD00002DE9F74F04460020DFF8FC80D9
:1051F0000193A4F8EA03C5B211F805C0BCF1000F91
:1052000040D000260C27F5B27D4308EB050718F8BF
:105210000550ADB3AC4506F10106F3D14FF0000ED9
:105220004FF0004C97F808B05FFA8EF5AB4527D9E0
:10523000B4F8EA532C4B05F0070A13F80AA07B6870
:1052400004EBD5093CEA030340F2E23399F801602C
:105250000EF1010E0CBF46EA0A0626EA0A069D4236
:1052600089F8016006D900230420A4F8EA3303B0CA
:10527000BDE8F08F0135A4F8EA534FEA5C0CD3E7A0
:105280000130B8E79DF83010019BA4F8FC139DF89D
:105290003410D4F8F403A4F8FE1345F6C051B1FB62
:1052A000F2F2B1FBF3F3A4F8EE23A4F8F83308B15B
:1052B00003F0BEFCB4F8F80303F09EFC00230127C2
:1052C0001E46C4F8F403B4F8F85398B2854208D9DE
:1052D000D4F8F413B0EB550F34BF0F540E54013310
:1052E000F1E70020C3E700BF269B00088C9600086A
:1052F0001222164B1A60A3F580531A6842F410224A
:105300001A601A689103FCD55A6822F4741242F4A8
:10531000E8125A601A6842F080721A601A689201A4
:10532000FCD55A6822F0F0025A605A6822F47C5286
:1053300042F480625A605A6842F002025A605A6827
:1053400002F00C02082AFAD1704700BF0020024088
:10535000002211462DE9F04FD74B8BB01A601A711D
:105360005A719A6098180132642A0173FAD10022A6
:105370001046C3E91C11C3E91E11C3E92011C3F88B
:10538000881099180432A82AC1F88C00F9D100229B
:10539000104699180432A82AC1F83401F9D1002224
:1053A000104699180432A82AC1F8DC01F9D100226C
:1053B000104699180432A82AC1F88402F9D10022B3
:1053C0001546991801322A2A81F82C53F9D1BB4C81
:1053D0004FF4B9712046C3F85853A3F85C53FFF754
:1053E000F3FE002319462582E2180233282B91830D
:1053F000FAD100231D46E2180133B3F5167F82F877
:105400004450F8D13C23A4F8A032AD4BC4F89C52D0
:1054100028221846002103F07FFC05222274032273
:105420006282A84AA84BC4E905200022C3E90055BE
:10543000C3E902551D61154699180232B2F5A56FF0
:105440008D82F9D142F20F72A3F840254FF000028D
:10545000C3F83C55C3F84455C3F8485583F84C2568
:105460009A4C00219A48FBF7B5FA01219948FBF7BD
:10547000B1FA4FF4B9712046FFF7A6FE4FF4B971A7
:1054800004F11000FFF7A0FE002319462584E2185E
:105490000233202B9185FAD14FF0000384F84C3071
:1054A00000231A46E1180133212B81F84D20F9D150
:1054B0000023194684F86E20E21801330C2B82F881
:1054C0006F10F9D100231946E21801330C2B82F832
:1054D0007B10F9D100231946E2180133282B82F8FA
:1054E0008710F9D100231D46E2180133282B82F8DA
:1054F000AF50F9D1784B202200211846C4E9365527
:1055000003F00AFC052284F82020092273496284F2
:10551000734A0346C4E909200A68C4E93855C4F847
:105520007B204A6884F8E850C0F853208A6884F8E1
:10553000E950C0F857200868C4F86F004868002197
:10554000C3F84B200A46C3F84700664BC3E9005531
:10555000C3E902551D6158180231B1F5346F8282DA
:10556000F9D142F20F71C3F8542BC3F8582BC3F88A
:10557000602BC3F8642BC3F8682BC3F86C2BC3F8FB
:10558000702BC3F8742B83F8792B83F87A2B0022C5
:10559000A3F85C1B4FF00001154683F8781B99189F
:1055A0000232B2F5346FA1F87C5BF8D14E4C4FF467
:1055B000B9712046FFF708FE002319462582E2183C
:1055C0000233202B9183FAD100231D46E2180133C8
:1055D000B3F5966F82F83C50F8D1F023C4F8F0345C
:1055E000424B202200211846C4F8EC5403F094FBEF
:1055F00005222274092262823D4A3E4BC4E90520FD
:1056000000221146C3E90155C3E903551D705D61D0
:1056100098180232B2F5965F0183F9D141F2D8228F
:1056200041F2DC209950344A41F2F0241A503348B8
:10563000026041F2E42242F20F70985241F2E822F5
:10564000995041F2EC2299524FF0000141F2EE22C2
:1056500099540022114604EB42000132102A1952DB
:10566000F9D141F210329952002241F2123015461E
:1056700000EB42010132102A5D52F9D141F232327F
:1056800063219D5241F23432995441F238329D5097
:1056900041F23C321A4C4FF4FA6120469D52FFF71A
:1056A00093FD002319462582E2180233202B9183B3
:1056B000FAD100231D4625E0544C0020B44F0020B1
:1056C000D04F00202C06002070290020684B0020BD
:1056D000C02E0020143D0020944B00202E9B00087B
:1056E0009E040020C00D00207C240020982400206F
:1056F000E2020020E89E00200F270F27C8B10020FB
:1057000028B20020E2180133B3F5966F82F83C50BE
:10571000F8D1F023A4F8F0344FF49653C4F8F434DD
:10572000D54B202200211846C4F8EC5484F8F254DA
:10573000C4F8F85403F0F0FA0522227409226282B8
:10574000CE4ACF4BC4E9052000221146C3E90155DA
:10575000C3E903551D705D6198180232B2F5075F09
:105760000183F9D142F2D81242F2DC109950C54AB5
:1057700042F2F4141A5042F2E0101A5042F2E410CD
:105780001A5042F2E81242F20F70985242F2EC12B2
:10579000995042F2F01299524FF0000142F2F21287
:1057A00099540022114604EB42000132102A19528A
:1057B000F9D142F214229952002242F216201546E3
:1057C00000EB42010132102A5D52F9D142F2362239
:1057D00063219D5242F23822995442F23C229D505C
:1057E000A94A4FF00001158042F24222A74C995479
:1057F00020464FF4FA61FFF7E7FC002319462582A3
:10580000E2180233202B1185FAD100231946E21841
:105810000233782BA2F84810F9D100231E46E21873
:105820000133B3F5966F82F8C060F8D1F0232027DA
:10583000A4F8743541F27073954D3A460021C4F8CE
:1058400070652846C4F87835C4F87C6503F064FABE
:10585000EB1978220021184603F05EFA0522227423
:105860000822002162828B4A8B4BC4E905250A4637
:1058700063628A4BA78320621E705E809E80DE80FA
:105880001E815E819E81DE811E825E829E8258180C
:105890000231B1F5706FC282F9D1A3F8162FA3F8C7
:1058A000182FC3F8242FA3F8282F4FF0000242F23C
:1058B0000F7183F82A2F0022A3F81A1FA3F81C1FC8
:1058C000A3F81E1FA3F8201FA3F8221F1146981843
:1058D0000232202AA0F82C1FF9D100221446A3F886
:1058E0004C1F99180232202AA1F84E4FF9D1632299
:1058F0006B4D4FF4FA612846A3F86E4FC3F8744F0E
:10590000A3F8784F83F8702FFFF75EFC00232C82FA
:1059100019462C46E2180233202B1185FAD10023B8
:105920001946E21802338C2BA2F84810F9D1002353
:105930001A46E1180133B3F5966F81F8D420F8D1F7
:10594000F023A4F8883540F6B833564DC4F88425C2
:10595000C4F89025002120222846C4F88C3503F095
:10596000DBF905F120038C220021184603F0D4F95D
:105970000A222274092262824B4A4C4BC4E9052553
:10598000162220624FF47A614948A2836362FFF7CE
:105990001BFC0023464A18461446D1180233B3F5BF
:1059A000AA7F8883F9D100231D46E2180133C82B52
:1059B00082F87051F9D14823A4F83C323D4BC4F829
:1059C00038524FF4AA721846002103F0A5F90622B6
:1059D00022820022384B6061A3611346374C257048
:1059E000A1180132B2F57A7F4B70F9D1A4F8EA33ED
:1059F000A4F8EC33A4F8EE33A4F8F033C4F8F4338D
:105A0000C4F8F833C4F8FC3384F8003400231D468E
:105A1000E2180133B3F57A7F82F80154F8D10022FD
:105A20000023274FA4F8EA57C7E900234FF4804228
:105A30004FF43573A4F82828A4F8EC57A4F8EE57CF
:105A4000A4F8F057C4F8F457C4F8F857C4F8FC5752
:105A5000C4F80858C4F80C58A4F81058C4F81458DE
:105A6000C4F8185884F81C58C4F82058C4F82458AE
:105A700084F82A5826E000BF44B20020900300209A
:105A8000D07300200F270F271096002014960020B7
:105A90003C96002052020020A2020020C05E00209E
:105AA0003C6E0020646E0020EA030020A805002060
:105AB000949B0020B09B0020F80400205852002046
:105AC000585A0020C4F82C5884F8305884F83458B8
:105AD00084F8355884F8365884F83758C4F838585C
